:03000000020033C8
:03000B000204F0FC
:10003300D2B6D2B775330075814079007AFFD9FE05
:10004300DAFC75809B75A083C2B600000000D2B6AF
:1000530075808075A0C3C2B600000000D2B67528B3
:100063000075211E75220075231E7524F07525FF6A
:10007300D21812047175230075240075250012042B
:100083007175280075210075220012043DC28EC2CD
:100093008C759852758801758921758700758BFA5F
:1000A300758DFA758A00758CE1D28ED2A9D2AF9084
:1000B300051F1204AC12043D300C10D221D22212BF
:1000C300047112043312043D200CF77527007530B8
:1000D3000075261C753410A24592397523007524CA
:1000E30000752500D222D238204504C238C22230FE
:1000F3000F07C238753330D28C1204719005871202
:1001030004AC12043312043DE522543F4225E52892
:10011300541E42231204712040061204BB0203CB77
:10012300753200A242721272115003753202A24359
:10013300721472135003753204A24472155003757E
:100143003205753105A243721472135003753104DD
:10015300A242721272115003753102A24172105001
:1001630003753100C3E5329531B4001FE532953094
:10017300B40018A220722140125323E175280053C2
:1001830025C07522001204710203CB200A05C23276
:1001930002028F30320302028F300F04D223C222B5
:1001A300202106E5302402F5301530D23274F0F404
:1001B3005224E530B40009D224D223C22202028F92
:1001C300B40107D224D22502028FB40251D22530C2
:1001D3003A26E532B40206D223C222800C20420919
:1001E300A212820E500302028FA2427212823A506E
:1001F30004D223C22202028FE531B40206D223C203
:1002030022800C204209A211820E500302028FA207
:10021300427211823B5004D223C22202028FB403E2
:1002230007D225D22602028FB40451D226303A26B1
:10023300E532B40406D223C222800C204309A2145F
:10024300820E500302028FA2437214823A5004D2E8
:1002530023C22202028FE531B40406D223C22280D4
:100263000C204309A213820E500302028FA2437291
:1002730013823B5004D223C22202028FB40507D259
:1002830026D22702028FD227D223C222303838A2A5
:100293003A9220A23B9221723A402CC3E532B40039
:1002A30002800AD22095305004D221C220C3E53106
:1002B300B40502800AD22095305004D221C220A274
:1002C30020923AA221923BA220722140030203CB47
:1002D300300905D2310203CB2031030203CBC231F3
:1002E300300F03020391E530B4000EA210724140B7
:1002F300030203CBC23B020391B4024120211FE559
:1003030032B40205C23A020391300E0630120302E0
:1003130003CBA242721240030203CB020391E531E5
:10032300B40205C23B020391300E063011030203EF
:10033300CBA211724240030203CB020391B40440E7
:1003430020211FE532B40405C23A020391300E06A0
:100353003014030203CBA214724340030203CB0203
:100363000391E531B40405C23B020391300E06301C
:1003730013030203CBA213724340030203CB800E89
:10038300B40645A215724440030203CBC23A532478
:10039300F4D222C22FC22EC238753330D28CE5304C
:1003A300B40006C219C228801CB40208C21AC229AA
:1003B300C22A8011B40408C21BC22BC22C8006C2FD
:1003C3001CC22DC23A120471204515303924C2399A
:1003D300C238A222923CA223923DC222C22380129F
:1003E30020390FD239200F02D238A23C9222A23DEB
:1003F3009223C218A20D720E720F72207221501531
:10040300E52454F0B40004E5344224852434533401
:10041300F0D218800353240FA2207221500FA2227E
:1004230072235009202004D22E8002D22F0201050C
:100433007BFFDBFE007BCBDBFE2275A08075803F5C
:10044300C2B700000000858028D2B775A0817580EF
:10045300FEC2B700000000858021D2B775A0827567
:10046300803FC2B700000000858022D2B7228523D7
:100473008075A0C0C2B600000000D2B68524807586
:10048300A0C1C2B600000000D2B685258075A0C207
:10049300C2B600000000D2B622F5993099FDC29988
:1004A300223098FDE599C29822E493600AF59930C9
:1004B30099FDC299A380F222752800752100752247
:1004C30000752300752400752500C23AC23BD22271
:1004D300C223C28CD238300F07C238753330D28C66
:1004E30012047112043D9005461204AC22C2AFC03F
:1004F300E0C0D0C0A8303804C28C80171533E53370
:10050300B40010300F057533208008C28CD222C28C
:1005130023D238D0A8D0D0D0E0D2AF320D0A52695E
:100523006164696163692073797374656D206A65B9
:1005330020696E696369616C697A6F76616E792E81
:100543000D0A005269616469616369207379737488
:10055300656D206A65207265696E696369616C699E
:100563007A6F76616E7920706F2073746C61636546
:100573006E6920746C616369646C612053544F50DD
:100583002E0D0A004B616C696272616369612076AA
:100593007974616875206A6520756B6F6E63656E2B
:0505A300612E0D0A00AD
:00000001FF
