:03000000020033C8
:03000B000210C11F
:030023000212774F
:03002B0002125866
:10003300D2B6D2B775330075815079007AFFD9FEF5
:10004300DAFC75809B75A083C2B600000000D2B6AF
:1000530075808075A0C3C2B600000000D2B6C28E00
:10006300759852758921758740758B00758DFA7562
:100073008A00758C4C75C80075CA0075CB4CD2AD1F
:10008300D28CC2A9D28ED2AC754500C2617528004C
:1000930075211E75220075231E7524F07525FFD268
:1000A30018C2381211E77523007524007525001254
:1000B30011E7752800752100752200121180752A39
:1000C30000752B00121180300C13D221D222C223CF
:1000D300C2201211E7121180300C0280F8C222C232
:1000E30021D223D2201211E71211802009FAC22350
:1000F300C220D2241211E7D2A97543817544C17875
:10010300C07600754700753C1E753D00753E006363
:100113003C03E53D623CE53CB41D030201240210AF
:100123008F00753D20753E20741D53240FD2241279
:1001330011E7C238752D3CC27AD2CAC264D22FD21B
:100143002E1211E7754600121180200A0302107B5C
:1001530000200B0302107B00C219C228C22812110F
:10016300E73061031212AC00206403307AD9D26401
:10017300307A14752D3CC27AD2CA740012126F12EF
:10018300126F747E12126FA20D720E720F9218927A
:100193002F922E1211E7200FAE3045ABA20D720E37
:1001A300720F5006E528541E609DE528852AF053FA
:1001B300F00C63F0FF55F0541C701AE522543EA274
:1001C300E2B05292E2A2E3B05392E3A2E4B05392BC
:1001D300E47002214A901775121222D220C221D252
:1001E3002FC22ED222C223D2181211E70201F263C8
:1001F3003C09E53CB4140302020002108F00753D74
:100203001B753E20741453240FD2241211E71210CD
:10021300E41211803009FA1210E4121180200B034A
:1002230002105F0020091E754701304206C222D228
:1002330023D238D252D2590539C21AC22AC229123C
:1002430011E702056200200AD1C252C259001210FE
:10025300E4121180300AFA1210E41211E702026369
:10026300633C16E53CB4020302027102108F007571
:100273003D0D753E2074021210E4121180300AFA0B
:100283001210E4121180200B0302105F0020091EDC
:10029300754701304206C222D223D238D252D259F4
:1002A3000539C21AC22AC2291211E70205620020C7
:1002B3000AD1C252C259001211E71210E41211807E
:1002C300300AFA1210E4633C0EE53CB40C0302025C
:1002D300D702108F00753D20753E20740CC3740047
:1002E3007212B00E7242B052720F72383400704BF9
:1002F300E52233547EA2E3B05292E3A2E4B05392D8
:10030300E4A2E5B05392E578056006C313C313D89E
:10031300F87405C398B4020302032102034800E5FD
:1003230028541E852AF053F00C63F0FF55F0C313D5
:100333007802C313D8FC6003020348D223C22212FB
:1003430011E702039D633C0AE53CB406030203562E
:1003530002108F00753D09753E0E74061210E412EB
:100363001180300AFA1210E4121180200B030210DC
:100373005F00200A1E754703304206C222D223D2F1
:1003830038D252D25A0536C21AC22AC2291211E7EA
:100393000205D7002009D1020562633C10E53CB495
:1003A3001C030203AB02108F00753D09753E1474E4
:1003B3001C121180200B0302105F00200A1E7547D8
:1003C30003304206C222D223D238D252D25A053641
:1003D300C21AC22AC2291211E70205D7002009D185
:1003E300C220D23AC23BC2221211E70203F1633C9C
:1003F3001AE53D623CE53CB40F0302040302108F8F
:1004030000753D00753E1E740F53240FD225121143
:10041300E7C238752D3CC27AD2CAC264D22FD22E1B
:100423001211E7754640121180200A0302107B0067
:10043300200B0302107B00200C0302107B00C21A66
:10044300C22AC2291211E73061031212AC002064E0
:1004530003307AD2D264307A14752D3CC27AD2CA70
:10046300740012126F12126F747E12126FA20D7249
:100473000E720F9218922F922E1211E7200FA730AF
:1004830045A4A20D720E720F5006E528541E609605
:10049300782A79F87AF8203A0AE9F4F9EAF4FAE8DA
:1004A3006401F8E52886F053F00C63F0FF55F0542F
:1004B3001A59600302052E00E52886F053F00C63F9
:1004C300F0FF55F0541A7021E52254395A86F0A2F0
:1004D300E1B0F292E1A2E2B0F292E2A2E3B0F392CF
:1004E300E3A2E4B0F392E47042E86401F8B23AB2F2
:1004F3003BE9F4F9EAF4FAE52886F053F00C63F0EB
:10050300FF55F0541A597023E52254395A86F0A244
:10051300E1B0F292E1A2E2B0F292E2A2E3B0F3928E
:10052300E3A2E4B0F392E4700281299017751212EA
:1005330022203A0302054ED220C221D22FC22ED24C
:1005430022C223D2181211E7020562C220D221C2AD
:100553002FD22ED222C223D2181211E702076963C7
:100563003C07E53D623CE53CB40803020574021018
:100573008F00753D12753E00740853240FD2251267
:1005830011E71210E41211803009FA1210E412116B
:1005930080200B0302105F0020091E7547013043C2
:1005A30006C222D223D238D253D25A053AC21BC230
:1005B3002CC22B1211E7020A1C00200AD1C253C21B
:1005C3005A001210E4121180300AFA1210E41211C8
:1005D300E70205D7633C1AE53E623CE53CB41203EF
:1005E3000205E902108F00753D08753E2074121252
:1005F30010E4121180300AFA1210E4121180200B59
:100603000302105F0020091E754701304306C22212
:10061300D223D238D253D25A053AC21BC22CC22B90
:100623001211E7020A1C00200AD1C253C25A001257
:1006330011E71210E4121180300AFA1210E4633C3D
:1006430013E53CB4010302064F02108F00753D20F1
:10065300753E207401C374007214B00E7243B0531C
:10066300720F72383400704BE52233547EA2E3B02C
:100673005292E3A2E4B05392E4A2E5B05392E57838
:10068300056006C313C313D8F87405C398B40303F2
:100693000206990206C000E528541E852AF053F08D
:1006A3000C63F0FF55F0C3137803C313D8FC600346
:1006B3000206C0D223C2221211E7020715633C1BB4
:1006C300E53CB41A030206CE02108F00753D007597
:1006D3003E11741A1210E4121180300AFA1210E457
:1006E300121180200B0302105F00200A1E754703BE
:1006F300304306C222D223D238D253D25B0537C24B
:100703001BC22CC22B1211E7020AA4002009D1023A
:100713000A1C633C05E53CB4040302072302108F63
:1007230000753D09753E0F7404121180200B0302FE
:10073300105F00200A1E754703304306C222D223EE
:10074300D238D253D25B0537C21BC22CC22B121133
:10075300E7020AA4002009D1C220D23AC23BC22236
:100763001211E70208AB633C09E53E623CE53CB489
:10077300180302077B02108F00753D06753E09744E
:100783001853240FD2251211E71210E412118030EE
:1007930009FA1210E4121180200C03021043002006
:1007A300091E754701304106C222D223D238D252E4
:1007B300D2590539C219C228C2281211E70207C744
:1007C300000207D6C221D23BC23AC222C22312116F
:1007D300E72112200ABFC252C259001210E41211BB
:1007E30080300AFA1210E41211E70207F0633C0E9C
:1007F300E53E623CE53CB41F0302080202108F0091
:10080300753D01753E20741F1210E4121180300AE9
:10081300FA1210E4121180200C0302104300200985
:100823001E754701304106C222D223D238D252D29A
:10083300590539C219C228C2281211E70208460015
:10084300020856C221D23BC23AC222C2231211E786
:10085300020112200ABEC252C259001211E712103D
:10086300E4121180300AFA1210E4D223C2221211C8
:10087300E7020877633C11E53CB40E0302088502E6
:10088300108F00753D10753E20740E1211803009D3
:1008930007200CF7D2590535C238C221D23BC23AE0
:1008A300C2221211E7020112633C07E53D623CE5F7
:1008B3003CB40A030208BD02108F00753D10753E5B
:1008C30013740A53240FD2261211E7C238752D3C34
:1008D300C27AD2CAC264D22FD22E1211E7754680D1
:1008E300121180200A0302107B00200B0302107BED
:1008F30000200C0302107B00C21BC22CC22B12115E
:10090300E73061031212AC00206403307AD2D26460
:10091300307A14752D3CC27AD2CA740012126F1247
:10092300126F747E12126FA20D720E720F921892D2
:100933002F922E1211E7200FA73045A4A20D720E9D
:10094300720F5006E528541E6096782A79F07AE0F3
:10095300203A0AE9F4F9EAF4FAE86401F8E52886AA
:10096300F053F00C63F0FF55F0541659600302097D
:10097300E800E52886F053F00C63F0FF55F05416B9
:100983007021E52254275A86F0A2E1B0F292E1A247
:10099300E2B0F292E2A2E3B0F392E3A2E4B0F39204
:1009A300E47042E86401F8B23AB23BE9F4F9EAF4DC
:1009B300FAE52886F053F00C63F0FF55F05416590E
:1009C3007023E52254275A86F0A2E1B0F292E1A205
:1009D300E2B0F292E2A2E3B0F392E3A2E4B0F392C4
:1009E300E4700201E3901775121222203A03020AFF
:1009F30008D220C221D22FC22ED222C223D2181251
:100A030011E7020A1CC220D221C22FD22ED222C247
:100A130023D2181211E7020B6B633C11E53D623CD4
:100A2300E53CB40B03020A2E02108F00753D0E75D0
:100A33003E00740B53240FD2261211E71210E41256
:100A430011803009FA1210E4121180200B030210F6
:100A53005F0020091E754701304406C222D223D20B
:100A630038D254D25B053BC21CC22DC22D1211E7F2
:100A7300020A7A00020A8AC220D23AC23BC222C2C6
:100A8300231211E7020D6B200ABEC254C25B00128F
:100A930010E4121180300AFA1210E41211E7020A6C
:100AA300A4633C08E53E623CE53CB40303020AB69A
:100AB30002108F00753D06753E2074031210E41278
:100AC3001180300AFA1210E4121180200B03021075
:100AD3005F0020091E754701304406C222D223D28B
:100AE30038D254D25B053BC21CC22DC22D1211E772
:100AF300020AFA00020B0AC220D23AC23BC222C245
:100B0300231211E7020D6B200ABEC254C25B00120E
:100B130011E71210E4121180300AFA1210E4D22302
:100B2300C2221211E7020B2B633C06E53CB405031A
:100B3300020B3902108F00753D00753E20740512BB
:100B430010E4121180300AFA1210E41211803009F5
:100B530007200BF7D2540538C238C220D23AC23B21
:100B6300C2221211E7020D6B633C02E53E623CE5D3
:100B73003CB41B03020B7D02108F00753D16753EBE
:100B83000A741B53240FD2261211E71210E4121118
:100B9300803009FA1210E4121180200C0302104372
:100BA3000020091E754701304206C222D223D238E3
:100BB300D253D25A053AC21AC22AC2291211E702E3
:100BC300076900200AD1C253C25A001210E412115D
:100BD30080300AFA1210E41211E7020BE0633C04BE
:100BE300E53D623CE53CB40903020BF202108F00C1
:100BF300753D20753E1874091210E4121180300AF5
:100C0300FA1210E4121180200C0302104300200991
:100C13001E754701304206C222D223D238D253D2A4
:100C23005A053AC21AC22AC2291211E702076900F9
:100C3300200AD1C253C25A001211E71210E4121152
:100C430080300AFA1210E4633C19E53CB410030245
:100C53000C5802108F00753D20753E207410C3742C
:100C6300007211B00E7242B05A720F7238340070B3
:100C730050E52233547EA2E2B05A92E2A2E3B05A84
:100C830092E3A2E4B05B92E478056006C333C33316
:100C9300D8F8E8B40203020C9F020CCE007405C31B
:100CA3009402F8E528541E852BF053F00C63F0FFF3
:100CB30055F0C333C333C333C333D8FC6003020CCF
:100CC300CED223C2221211E7020D17633C01E53C89
:100CD300B41103020CDC02108F00753D20753E0039
:100CE3007411121180200C0302104300200A1E7598
:100CF3004703304206C222D223D238D252D25A05F7
:100D030036C21AC22AC2291211E70207F0002009CB
:100D1300D1020769633C05E53CB41503020D2502C6
:100D2300108F00753D00753E047415121180200C60
:100D33000302104300200A1E754703304206C222F5
:100D4300D223D238D252D25A0536C21AC22AC22963
:100D53001211E70207F0002009D1C221D23BC23AA7
:100D6300C2221211E70203F1633C16E53D623CE542
:100D73003CB41303020D7D02108F00753D20753EB8
:100D830020741353240FD2271211E7C238752D3C58
:100D9300C27AD2CAC264D22FD22E1211E77546C0CC
:100DA300121180200A0302107B00200C0302107B27
:100DB30000C21CC22DC22D1211E73061031212AC06
:100DC30000206403307AD9D264307A14752D3CC282
:100DD3007AD2CA740012126F12126F747E12126FDB
:100DE300A20D720E720F9218922F922E1211E720FB
:100DF3000FAE3045ABA20D720E720F5006E52854AC
:100E03001E609DE528852BF053F00C63F0FF55F031
:100E1300540E701AE522541FA2E1B05A92E1A2E2E5
:100E2300B05A92E2A2E3B05B92E37002A1A39017DF
:100E330075121222C220D221C22FD22ED222C22355
:100E4300D2181211E7020E4B633C05E53CB41603BE
:100E5300020E5902108F00753D20753E0F74165314
:100E6300240FD2271211E71210E41211803009FA6D
:100E73001210E4121180200C030210430020091EFB
:100E8300754701304306C222D223D238D254D25BF3
:100E9300053BC21BC22CC22B1211E7020B6B0020B5
:100EA3000AD1C254C25B001210E4121180300AFA54
:100EB3001210E41211E7020EBC633C01E53CB417C7
:100EC30003020ECA02108F00753D20753E0E741783
:100ED3001210E4121180300AFA1210E41211802069
:100EE3000C030210430020091E754701304306C25C
:100EF30022D223D238D254D25B053BC21BC22CC2AE
:100F03002B1211E7020B6B00200AD1C254C25B0003
:100F13001211E71210E4121180300AFA1210E4637E
:100F23003C10E53CB40703020F3002108F00753DFF
:100F330020753E207407C374007213B00E7243B061
:100F43005B720F723834007050E52233547EA2E294
:100F5300B05A92E2A2E3B05A92E3A2E4B05B92E405
:100F630078056006C333C333D8F8E8B40303020F2C
:100F730077020FA6007405C39403F8E528541E8571
:100F83002BF053F00C63F0FF55F0C333C333C3337B
:100F9300C333D8FC6003020FA6D223C2221211E787
:100FA300020FEF633C1EE53CB41903020FB40210B9
:100FB3008F00753D14753E007419121180200C03C7
:100FC30002104300200A1E754703304306C222D293
:100FD30023D238D253D25B0537C21BC22CC22B1289
:100FE30011E7020BE0002009D1020B6B633C0AE519
:100FF3003CB40D03020FFD02108F00753D00753EDA
:1010030020740D121180200C0302104300200A1ECD
:10101300754703304306C222D223D238D253D25B60
:101023000537C21BC22CC22B1211E7020BE00020B2
:1010330009D1C221D23BC23AC2221211E70208AB44
:10104300C221C2221211E77547051213D112135E92
:10105300753C1E753D00753E00020112C222C2237B
:101063001211E77547041213D112135E753C05750F
:101073003D00753E00020D6BC222C2231211E775BB
:101083002D3CC27AD2CA307AFD020033C220C2217B
:10109300C222C2231211E712140112135E752D141A
:1010A300C27AD2CA307AFDD2181211E7752D14C252
:1010B3007AD2CA307AFDC2181211E780E022C0D07A
:1010C300C0E0C0F0E52E152E6002800E752E14E5EB
:1010D3002A452B541E2323236224D0F0D0E0D0D002
:1010E30032C0D0C001C002752D01C27AD2CA30CA43
:1010F30003307AFAD002D001D0D022C0D0C0E0D2DF
:1011030038C222C22374E15223C025D22FD22E1219
:1011130011E7752D28C27AD2CA12113CE528541E54
:1011230060F7307AF4C22FC22ED0E055C04225D2E8
:10113300231211E7D0E0D0D022C0D0C2AF75A08077
:1011430075803FC2B700000000858028D2B775A024
:10115300817580FEC2B700000000858021D2B7757B
:10116300A08275803FC2B700000000858022D2B7FD
:101173000000000000000000D2AFD0D022C0D0C0D9
:10118300E0C2AF75A08075803FC2B7000000008544
:101193008028D2B775A0817580FEC2B70000000019
:1011A300858021D2B775A08275803FC2B700000049
:1011B30000858022D2B70000000000000000D2AFFB
:1011C300300F04C222D2232040031210FEE528541C
:1011D3001E42231211E7E522543F42251211E7D0A4
:1011E300E0D0D022C0D0C2AF85238075A0C0C2B6E4
:1011F30000000000D2B685248075A0C1C2B60000ED
:101203000000D2B685258075A0C2C2B600000000DA
:10121300D2B60000000000000000D2AFD0D022C040
:10122300D0C0E0C083C082E493600612126FA38033
:10123300F6D082D083D0E0D0D022C0D0C0E0C0832B
:10124300C082E493600612126FA380F6D082D0832B
:10125300D0E0D0D022C2CFC0E0E52D600514F52D3B
:101263008007C2CA752D00D27AD0E03210630280A3
:10127300FBF59922C0D0C0E0C00130981EC298E5AA
:1012830099B47E08754500D26102129E20610CC09C
:10129300E074802545F9D0E0F70545309904D26321
:1012A300C299D001D0E0D0D032C0D0C0C8C02DC0C8
:1012B3002F752D50C27AD2CA207A60121180306104
:1012C300F77880E6B4000302131E00B4FD03021393
:1012D3001E00B4FE0302131E00B4FF0302131E001C
:1012E3007880E675F002A404F542AA4278801214CD
:1012F3004CB47E0104F5F0E5424480F8E6B5F0090C
:1013030090177912122202131690177D121222C21D
:1013130061809EC26112132912135EC261D02FD065
:101323002DD0C8D0D022C0D0C000C001C0057544A4
:10133300C178C076007880E6F978818843E6B40006
:10134300031213BA00B401031213D100080819E9F8
:1013530070EBD005D001D000D0D022C0D0C000C0E7
:1013630001C00578C0E675F002A404F542AA4278EC
:10137300C012144CB47E0104F67D0578C012141F0C
:101383001D752D50C27AD2CA121180207A19ED60D0
:10139300163061F4C2617880E6B4FE030213AA003A
:1013A300B4FF0302137E007544C178C07600D005F4
:1013B300D001D000D0D022C000C0E0A844760408F9
:1013C300760078C00605440544D0E0D00022C00072
:1013D300C0E0C0F0A844760508E5464547300D0255
:1013E3004408300E024410300F024418F6754700CB
:1013F30078C00605440544D0F0D0E0D00022C000F8
:10140300C0E0C0F0A844760608E53C543FF678C037
:101413000605440544D0F0D0E0D00022C0D0C0E09F
:10142300C000C00179C0E775F002A40404F978C0D4
:10143300E96008E612126F081980F5747E12126FC4
:10144300D001D000D0E0D0D022C0D0C0F075F000E1
:10145300BA0003021462E4E6121469081A80F1E583
:10146300F0D0F0D0D022C083C082C0E090147E655B
:10147300F093F5F0D0E0D082D08322005EBCE2612D
:101483003FDD83C29C7E20A3FD1F419DC3217FFCC2
:10149300A2401E5F01E3BD3E6082DC237D9FC1420B
:1014A3001CFEA0E1BF5D0380DE3C62BEE0025CDFA8
:1014B30081633D7C22C09E1D43A1FF4618FAA427E9
:1014C300799BC584DA3866E5BB5907DB856739BA8A
:1014D300E406581947A5FB7826C49A653BD98704C7
:1014E3005AB8E6A7F91B45C6987A24F8A6441A9970
:1014F300C7257B3A6486D85B05E7B98CD2306EED9D
:10150300B3510F4E10F2AC2F7193CD114FADF37059
:101513002ECC92D38D6F31B2EC0E50AFF1134DCE72
:1015230090722C6D33D18F0C52B0EE326C8ED0533F
:101533000DEFB1F0AE4C1291CF2D73CA947628AB58
:10154300F517490856B4EA6937D58B5709EBB53611
:10155300688AD495CB2977F4AA4816E9B7550B883E
:10156300D6346A2B7597C94A14F6A8742AC89615F7
:101573004BA9F7B6E80A54D7896B350D0A5269614E
:1015830064696163692073797374656D206A65208A
:10159300696E696369616C697A6F76616E792E0D24
:1015A3000A000D0A5A6170696E616D205744542E0A
:1015B3002E2E0D0A000D0A43616B616D2031302020
:1015C30073656B756E642E2E2E0D0A00526961646D
:1015D300696163692073797374656D206A6520722C
:1015E30065696E696369616C697A6F76616E79208A
:1015F300706F2073746C6163656E6920746C6163D2
:1016030069646C612053544F502E0D0A004B616C7A
:101613006962726163696120767974616875206AB1
:101623006520756B6F6E63656E612E0D0A004368EE
:10163300796261212056797061646C612073706FE7
:101643006D616C6F766163696120636C6F6E6B6152
:10165300210D0A0043687962612120567970616423
:101663006C69206476652073706F6D616C6F766151
:1016730063696520636C6F6E6B79210D0A004368A3
:10168300796261212056797061646C61207A61739B
:101693007461766F766163696120636C6F6E6B61F1
:1016A300210D0A00436879626121204E656F6361F1
:1016B3006B6176616E65206E61636974616E6965E5
:1016C30020686F726E656A2073706F6D616C6F76E0
:1016D3006163656A20636C6F6E6B79210D0A004349
:1016E3006879626121204E656F63616B6176616E1B
:1016F30065206E61636974616E696520646F6C6EE9
:10170300656A2073706F6D616C6F766163656A20C3
:10171300636C6F6E6B79210D0A00436879626121F6
:10172300204E656F63616B6176616E6520706F68D3
:101733006E75746965206B6162796E79207A2070A9
:101743006F7363686F646961210D0A005370757369
:1017530074616D204B54502E2E2E0D0A00446F736E
:101763006C6F206B207A6D656E65204B5450210D94
:0E1773000A00FD897E00FE6B7E00FF357E00C1
:00000001FF
