:03000000020033C8
:03000B000210D50B
:0300230002128B3B
:03002B0002126C52
:10003300D2B6D2B775330075815079007AFFD9FEF5
:10004300DAFC75809B75A083C2B600000000D2B6AF
:1000530075808075A0C3C2B600000000D2B6C28E00
:10006300759852758921758740758B00758DFA7562
:100073008A00758C4C75C80075CA0075CB4CD2AD1F
:10008300D28CC2A9D28EC299C298D263D2AC754522
:1000930000C26175280075211E75220075231E7527
:1000A30024F07525FFD218C2381211FB7523007591
:1000B30024007525001211FB752800752100752297
:1000C30000121194752A00752B00901551121236E7
:1000D300121194300C13D221D222C223C220121146
:1000E300FB121194300C0280F8C222C221D223D217
:1000F300201211FB1211942009FAC223C220D22428
:100103001211FB901551121236D2A9754381754411
:10011300C1754700753C1E753D00753E0090172262
:10012300121236633C03E53D623CE53CB41D030219
:1001330001380210A300753D20753E20741D121274
:100143008353240FD2241211FBC238752D3CC27A7B
:10015300D2CAC264D22FD22E1211FB7546001211DD
:1001630094200A0302108900200B0302108900C2A5
:1001730019C228C2281211FB3061031212C00020D9
:100183006403307AD9D264307A14752D3CC27AD2A2
:10019300CA7400121283121283747E121283A20D88
:1001A300720E720F9218922F922E1211FB200FAE25
:1001B3003045ABA20D720E720F5006E528541E6037
:1001C3009DE528852AF053F00C63F0FF55F0541C8D
:1001D300701AE522543EA2E2B05292E2A2E3B05377
:1001E30092E3A2E4B05392E47002216190174812A3
:1001F3001236D220C221D22FC22ED222C223D2182B
:100203001211FB020209633C09E53CB41403020228
:10021300170210A300753D1B753E20741412128340
:1002230053240FD2241211FB1210F8121194300927
:10023300FA1210F8121194200B0302107000200917
:100243001E754701304206C222D223D238D252D27F
:10025300590539C21AC22AC2291211FB02056D00BF
:10026300200AD1C252C259001210F8121194300A56
:10027300FA1210F81211FB02027D633C16E53CB43E
:10028300020302028B0210A300753D0D753E20741C
:10029300021212831210F8121194300AFA1210F893
:1002A300121194200B030210700020091E754701E0
:1002B300304206C222D223D238D252D2590539C291
:1002C3001AC22AC2291211FB02056D00200AD1C2EB
:1002D30052C259001211FB1210F8121194300AFA8B
:1002E3001210F8633C0EE53CB40C030202F4021056
:1002F300A300753D20753E20740C121283C3740055
:100303007212B00E7242B052720F72383400704BD8
:10031300E52233547EA2E3B05292E3A2E4B05392B7
:10032300E4A2E5B05392E578056006C313C313D87E
:10033300F87405C398B4020302034102036800E59D
:1003430028541E852AF053F00C63F0FF55F0C313B5
:100353007802C313D8FC6003020368D223C22212BB
:1003630011FB0203C0633C0AE53CB40603020376B7
:100373000210A300753D09753E0E74061212831216
:1003830010F8121194300AFA1210F8121194200B7B
:100393000302107000200A1E754703304206C22272
:1003A300D223D238D252D25A0536C21AC22AC2290D
:1003B3001211FB0205E5002009D102056D633C1013
:1003C300E53CB41C030203CE0210A300753D09757E
:1003D3003E14741C121283121194200B030210702A
:1003E30000200A1E754703304206C222D223D238A8
:1003F300D252D25A0536C21AC22AC2291211FB029C
:1004030005E5002009D1C220D23AC23BC222121113
:10041300FB020417633C1AE53D623CE53CB40F0361
:100423000204290210A300753D00753E1E740F12CD
:10043300128353240FD2251211FBC238752D3CC2EF
:100443007AD2CAD22FD22E1211FB754640121194C2
:10045300200A0302108900200B0302108900200CDC
:100463000302108900C21AC22AC2291211FB306189
:10047300031212C000307AD5A20D720E720F9218B9
:10048300922F922E1211FB200FC33045C0A20D7282
:100493000E720F5006E528541E60B2782A79F87A56
:1004A300F8203A0AE9F4F9EAF4FAE86401F8E528ED
:1004B30086F053F00C63F0FF55F0541A59600302B1
:1004C300053900E52886F053F00C63F0FF55F0542E
:1004D3001A7021E52254395A86F0A2E1B0F292E172
:1004E300A2E2B0F292E2A2E3B0F392E3A2E4B0F3A9
:1004F30092E47042E86401F8B23AB23BE9F4F9EAF3
:10050300F4FAE52886F053F00C63F0FF55F0541A23
:10051300597023E52254395A86F0A2E1B0F292E1F0
:10052300A2E2B0F292E2A2E3B0F392E3A2E4B0F368
:1005330092E470028150901748121236203A030257
:100543000559D220C221D22FC22ED222C223D218C1
:100553001211FB02056DC220D221C22FD22ED2224C
:10056300C223D2181211FB020783633C07E53D62E5
:100573003CE53CB4080302057F0210A300753D125D
:10058300753E00740812128353240FD2251211FBF7
:100593001210F81211943009FA1210F81211942063
:1005A3000B030210700020091E754701304306C279
:1005B30022D223D238D253D25A053AC21BC22CC2FA
:1005C3002B1211FB020A2400200AD1C253C25A0083
:1005D3001210F8121194300AFA1210F81211FB02D9
:1005E30005E5633C1AE53E623CE53CB412030205B3
:1005F300F70210A300753D08753E20741212128392
:100603001210F8121194300AFA1210F812119420F1
:100613000B030210700020091E754701304306C208
:1006230022D223D238D253D25A053AC21BC22CC289
:100633002B1211FB020A2400200AD1C253C25A0012
:100643001211FB1210F8121194300AFA1210F86307
:100653003C13E53CB401030206600210A300753DA0
:1006630020753E207401121283C374007214B00EFD
:100673007243B053720F72383400704BE522335417
:100683007EA2E3B05292E3A2E4B05392E4A2E5B0B7
:100693005392E578056006C313C313D8F87405C3F2
:1006A30098B403030206AD0206D400E528541E8560
:1006B3002AF053F00C63F0FF55F0C3137803C31310
:1006C300D8FC60030206D4D223C2221211FB020714
:1006D3002C633C1BE53CB41A030206E20210A300A0
:1006E300753D00753E11741A1212831210F812111F
:1006F30094300AFA1210F8121194200B03021070AE
:1007030000200A1E754703304306C222D223D23883
:10071300D253D25B0537C21BC22CC22B1211FB0270
:100723000AAF002009D1020A24633C05E53CB40466
:100733000302073A0210A300753D09753E0F7404C6
:10074300121283121194200B0302107000200A1E50
:10075300754703304306C222D223D238D253D25B29
:100763000537C21BC22CC22B1211FB020AAF002099
:1007730009D1C220D23AC23BC2221211FB0208CED7
:10078300633C09E53E623CE53CB41803020795026D
:1007930010A300753D06753E097418121283532485
:1007A3000FD2251211FB1210F81211943009FA120C
:1007B30010F8121194200C030210570020091E7523
:1007C3004701304106C222D223D238D252D2590530
:1007D30039C219C228C2281211FB0207E40002071A
:1007E300F3C221D23BC23AC222C2231211FB2126F9
:1007F300200ABFC252C259001210F8121194300AD3
:10080300FA1210F81211FB02080D633C0EE53E626A
:100813003CE53CB41F0302081F0210A300753D0111
:10082300753E20741F1212831210F8121194300AAD
:10083300FA1210F8121194200C0302105700200929
:100843001E754701304106C222D223D238D252D27A
:10085300590539C219C228C2281211FB02086600C1
:10086300020876C221D23BC23AC222C2231211FB32
:10087300020126200ABEC252C259001211FB1210F5
:10088300F8121194300AFA1210F8D223C22212116C
:10089300FB020897633C11E53CB40E030208A50272
:1008A30010A300753D10753E20740E1212831211B1
:1008B30094300907200CF7D2590535C238C221D22A
:1008C3003BC23AC2221211FB020126633C07E53DFB
:1008D300623CE53CB40A030208E00210A300753D44
:1008E30010753E13740A12128353240FD226121169
:1008F300FBC238752D3CC27AD2CAD22FD22E121126
:10090300FB754680121194200A0302108900200B04
:100913000302108900200C0302108900C21BC22CA1
:10092300C22B1211FB3061031212C000307AD5A220
:100933000D720E720F9218922F922E1211FB200F2E
:10094300C33045C0A20D720E720F5006E528541E27
:1009530060B2782A79F07AE0203A0AE9F4F9EAF405
:10096300FAE86401F8E52886F053F00C63F0FF55CC
:10097300F054165960030209F000E52886F053F09D
:100983000C63F0FF55F054167021E52254275A8664
:10099300F0A2E1B0F292E1A2E2B0F292E2A2E3B0FD
:1009A300F392E3A2E4B0F392E47042E86401F8B294
:1009B3003AB23BE9F4F9EAF4FAE52886F053F00C8D
:1009C30063F0FF55F05416597023E52254275A86D5
:1009D300F0A2E1B0F292E1A2E2B0F292E2A2E3B0BD
:1009E300F392E3A2E4B0F392E47002210790174874
:1009F300121236203A03020A10D220C221D22FC289
:100A03002ED222C223D2181211FB020A24C220D2F0
:100A130021C22FD22ED222C223D2181211FB020BD3
:100A23007C633C11E53D623CE53CB40B03020A36B2
:100A33000210A300753D0E753E00740B1212835312
:100A4300240FD2261211FB1210F81211943009FA56
:100A53001210F8121194200B030210700020091ECB
:100A6300754701304406C222D223D238D254D25B16
:100A7300053BC21CC22DC22D1211FB020A850002C6
:100A83000A95C220D23AC23BC222C2231211FB02F0
:100A93000D8B200ABEC254C25B001210F8121194CF
:100AA300300AFA1210F81211FB020AAF633C08E590
:100AB3003E623CE53CB40303020AC10210A3007585
:100AC3003D06753E2074031212831210F81211941E
:100AD300300AFA1210F8121194200B03021070005E
:100AE30020091E754701304406C222D223D238D2D0
:100AF30054D25B053BC21CC22DC22D1211FB020B4B
:100B03000800020B18C220D23AC23BC222C22312EF
:100B130011FB020D8B200ABEC254C25B001211FBF3
:100B23001210F8121194300AFA1210F8D223C222CA
:100B33001211FB020B39633C06E53CB40503020BBF
:100B4300470210A300753D00753E20740512128301
:100B53001210F8121194300AFA1210F8121194308C
:100B63000907200BF7D2540538C238C220D23AC243
:100B73003BC2221211FB020D8B633C02E53E623C39
:100B8300E53CB41B03020B8E0210A300753D1675E2
:100B93003E0A741B12128353240FD2261211FB1226
:100BA30010F81211943009FA1210F8121194200C53
:100BB300030210570020091E754701304206C22266
:100BC300D223D238D253D25A053AC21AC22AC229E0
:100BD3001211FB02078300200AD1C253C25A00122A
:100BE30010F8121194300AFA1210F81211FB020BCA
:100BF300F4633C04E53D623CE53CB40903020C06A6
:100C03000210A300753D20753E1874091212831259
:100C130010F8121194300AFA1210F8121194200CE1
:100C2300030210570020091E754701304206C222F5
:100C3300D223D238D253D25A053AC21AC22AC2296F
:100C43001211FB02078300200AD1C253C25A0012B9
:100C530011FB1210F8121194300AFA1210F8633CC7
:100C630019E53CB41003020C6F0210A300753D207C
:100C7300753E207410121283C374007211B00E7289
:100C830042B05A720F723834007050E52233547EEA
:100C9300A2E2B05A92E2A2E3B05A92E3A2E4B05BBA
:100CA30092E478056006C333C333D8F8E8B402038B
:100CB300020CB9020CE8007405C39402F8E5285449
:100CC3001E852BF053F00C63F0FF55F0C333C33391
:100CD300C333C333D8FC6003020CE8D223C222120D
:100CE30011FB020D34633C01E53CB41103020CF625
:100CF3000210A300753D20753E0074111212831279
:100D03001194200C0302105700200A1E754703306C
:100D13004206C222D223D238D252D25A0536C21A3E
:100D2300C22AC2291211FB02080D002009D10207B1
:100D330083633C05E53CB41503020D420210A30096
:100D4300753D00753E047415121283121194200C24
:100D53000302105700200A1E754703304206C222C1
:100D6300D223D238D252D25A0536C21AC22AC22943
:100D73001211FB02080D002009D1C221D23BC23A55
:100D8300C2221211FB020417633C16E53D623CE5E7
:100D93003CB41303020D9D0210A300753D20753E64
:100DA30020741312128353240FD2271211FBC2385B
:100DB300752D3CC27AD2CAD22FD22E1211FB7546A0
:100DC300C0121194200A0302108900200C030210A0
:100DD3008900C21CC22DC22D1211FB3061031212F5
:100DE300C000307ADCA20D720E720F9218922F920D
:100DF3002E1211FB200FCA3045C7A20D720E720FBF
:100E03005006E528541E60B9E528852BF053F00CF5
:100E130063F0FF55F0540E701AE522541FA2E1B09F
:100E23005A92E1A2E2B05A92E2A2E3B05B92E3707B
:100E330002808E901748121236C220D221C22FD2BE
:100E43002ED222C223D2181211FB020E50633C058C
:100E5300E53CB41603020E5E0210A300753D207537
:100E63003E0F741612128353240FD2271211FB1252
:100E730010F81211943009FA1210F8121194200C80
:100E8300030210570020091E754701304306C22292
:100E9300D223D238D254D25B053BC21BC22CC22B05
:100EA3001211FB020B7C00200AD1C254C25B001258
:100EB30010F8121194300AFA1210F81211FB020EF4
:100EC300C4633C01E53CB41703020ED20210A30035
:100ED300753D20753E0E74171212831210F812110D
:100EE30094300AFA1210F8121194200C03021057CE
:100EF3000020091E754701304306C222D223D2388F
:100F0300D254D25B053BC21BC22CC22B1211FB0273
:100F13000B7C00200AD1C254C25B001211FB1210D9
:100F2300F8121194300AFA1210F8633C10E53CB43D
:100F33000703020F3B0210A300753D20753E20748A
:100F430007121283C374007213B00E7243B05B7244
:100F53000F723834007050E52233547EA2E2B05A47
:100F630092E2A2E3B05A92E3A2E4B05B92E4780582
:100F73006006C333C333D8F8E8B40303020F850212
:100F83000FB4007405C39403F8E528541E852BF0B1
:100F930053F00C63F0FF55F0C333C333C333C33390
:100FA300D8FC6003020FB4D223C2221211FB021039
:100FB30000633C1EE53CB41903020FC20210A300F8
:100FC300753D14753E007419121283121194200C8E
:100FD3000302105700200A1E754703304306C2223E
:100FE300D223D238D253D25B0537C21BC22CC22BB9
:100FF3001211FB020BF4002009D1020B7C633C0AA3
:10100300E53CB40D0302100E0210A300753D0075FC
:101013003E20740D121283121194200C03021057F8
:1010230000200A1E754703304306C222D223D2385A
:10103300D253D25B0537C21BC22CC22B1211FB0247
:101043000BF4002009D1C221D23BC23AC2221211B1
:10105300FB0208CEC221C2221211FB9016B5121256
:1010630036753C1E753D00753E00020126C222C244
:10107300231211FB90167A121236753C05753D004A
:10108300753E00020D8BC222C2231211FB9016F093
:10109300121236752D3CC27AD2CA307AFD02003361
:1010A300C220C221C222C2231211FB901733121293
:1010B30036752D14C27AD2CA307AFDD2181211FBBA
:1010C300752D14C27AD2CA307AFDC2181211FB8070
:1010D300E022C0D0C0E0C0F0E52E152E6002800EE5
:1010E300752E14E52A452B541E2323236224D0F0A6
:1010F300D0E0D0D032C0D0C001C002752D01C27A79
:10110300D2CA30CA03307AFAD002D001D0D022C07A
:10111300D0C0E0D238C222C22374E15223C025D208
:101123002FD22E1211FB752D28C27AD2CA1211505A
:10113300E528541E60F7307AF4C22FC22ED0E05552
:10114300C04225D2231211FBD0E0D0D022C0D0C29E
:10115300AF75A08075803FC2B7000000008580286E
:10116300D2B775A0817580FEC2B7000000008580EC
:1011730021D2B775A08275803FC2B70000000085F9
:101183008022D2B70000000000000000D2AFD0D010
:1011930022C0D0C0E0C2AF75A08075803FC2B70047
:1011A300000000858028D2B775A0817580FEC2B784
:1011B30000000000858021D2B775A08275803FC2F0
:1011C300B700000000858022D2B7000000000000B5
:1011D3000000D2AF300F04C222D2232040031211E9
:1011E30012E528541E42231211FBE522543F4225E7
:1011F3001211FBD0E0D0D022C0D0C2AF85238075BE
:10120300A0C0C2B600000000D2B685248075A0C17C
:10121300C2B600000000D2B685258075A0C2C2B652
:1012230000000000D2B60000000000000000D2AFB2
:10123300D0D022C0D0C0E0C083C082E49360061245
:101243001283A380F6D082D083D0E0D0D022C0D046
:10125300C0E0C083C082E4936006121283A380F6C9
:10126300D082D083D0E0D0D022C2CFC0E0E52D60C1
:101273000514F52D8007C2CA752D00D27AD0E0324D
:1012830010630280FBF59922C0D0C0E0C001309802
:101293001EC298E599B47E08754500D2610212B268
:1012A30020610CC0E074802545F9D0E0F705453096
:1012B3009904D263C299D001D0E0D0D032C0D0C05B
:1012C300C8C02DC02F752D50C27AD2CA207A4912B8
:1012D30011943061F77880E675F002A404F542AA10
:1012E30042788012141FB47E0104F5F0E542448075
:1012F300F8E6B5F00990174C12123602130B90174B
:1013030050121236C26180BDC261740878C0F608FB
:101313001470FB7600121324D02FD02DD0C8D0D058
:1013230022C0D0C000C001C005740878C0F60814FC
:1013330070FB76007544C178C076007880E6F97852
:10134300818843E6B400031213AB00B40103121304
:10135300C200080819E970EB78C0E675F002A4042E
:10136300F542AA4278C012141FB47E0104F67D052B
:1013730078C01213F21D752D50C27AD2CA1211947D
:10138300207A19ED60163061F4C2617880E6B4FE0C
:101393000302139F00B4FF03021373007544C1D00B
:1013A30005D001D000D0D022C000C0E0A84476040C
:1013B30008760078C00605440544D0E0D00022C07A
:1013C30000C0E0C0F0A844760508E5464547300D67
:1013D300024408300E024410300F024418F67547D9
:1013E3000078C00605440544D0F0D0E0D00022C008
:1013F300D0C0E0C000C00179C0E775F002A40404C6
:10140300F978C0E96008E6121283081980F5747E42
:10141300121283D001D000D0E0D0D022C0D0C0F0CF
:1014230075F000BA0003021435E4E612143C081AFE
:1014330080F1E5F0D0F0D0D022C083C082C0E0902C
:10144300145165F093F5F0D0E0D082D08322005E92
:10145300BCE2613FDD83C29C7E20A3FD1F419DC38F
:10146300217FFCA2401E5F01E3BD3E6082DC237D41
:101473009FC1421CFEA0E1BF5D0380DE3C62BEE073
:10148300025CDF81633D7C22C09E1D43A1FF4618A1
:10149300FAA427799BC584DA3866E5BB5907DB854F
:1014A3006739BAE406581947A5FB7826C49A653B01
:1014B300D987045AB8E6A7F91B45C6987A24F8A633
:1014C300441A99C7257B3A6486D85B05E7B98CD261
:1014D300306EEDB3510F4E10F2AC2F7193CD114F0F
:1014E300ADF3702ECC92D38D6F31B2EC0E50AFF1C1
:1014F300134DCE90722C6D33D18F0C52B0EE326CF3
:101503008ED0530DEFB1F0AE4C1291CF2D73CA9420
:101513007628ABF517490856B4EA6937D58B5709CE
:10152300EBB536688AD495CB2977F4AA4816E9B780
:10153300550B88D6346A2B7597C94A14F6A8742AB2
:10154300C896154BA9F7B6E80A54D7896B350D0A27
:1015530052696164696163692073797374656D208D
:101563006A6520696E696369616C697A6F76616E19
:10157300792E0D0A000D0A5A6170696E616D20574C
:1015830044542E2E2E0D0A000D0A43616B616D200B
:1015930031302073656B756E642E2E2E0D0A00524A
:1015A300696164696163692073797374656D206A25
:1015B30065207265696E696369616C697A6F7661CA
:1015C3006E7920706F2073746C6163656E6920742B
:1015D3006C616369646C612053544F502E0D0A0093
:1015E3004B616C69627261636961207679746168C9
:1015F30075206A6520756B6F6E63656E612E0D0ACB
:10160300004368796261212056797061646C6120BE
:1016130073706F6D616C6F766163696120636C6F6A
:101623006E6B61210D0A004368796261212056794E
:101633007061646C69206476652073706F6D616C92
:101643006F766163696520636C6F6E6B79210D0A38
:10165300004368796261212056797061646C61206E
:101663007A61737461766F766163696120636C6F0D
:101673006E6B61210D0A00436879626121204E651A
:101683006F63616B6176616E65206E61636974611E
:101693006E696520686F726E656A2073706F6D6125
:1016A3006C6F766163656A20636C6F6E6B79210D75
:1016B3000A00436879626121204E656F63616B6143
:1016C30076616E65206E61636974616E696520641D
:1016D3006F6C6E656A2073706F6D616C6F7661639A
:1016E300656A20636C6F6E6B79210D0A004368791C
:1016F300626121204E656F63616B6176616E652067
:10170300706F686E75746965206B6162796E79209C
:101713007A20706F7363686F646961210D0A0053E7
:1017230070757374616D204B54502E2E2E0D0A006C
:10173300446F736C6F206B207A6D656E65204B541C
:1017430050210D0A00FD897E00FE6B7E00FF357E71
:011753000095
:00000001FF
