:03000000020033C8
:10003300D2B6D2B775330075814079007AFFD9FE05
:10004300DAFC75809B75A083C2B600000000D2B6AF
:1000530075808075A0C3C2B600000000D2B6C2B3DB
:10006300D2AA000075280075211E75220075231E73
:100073007524F07525FFD21812034A7523007524E1
:100083000075250012034A752800752100752200AA
:1000930012030D12030D300C0FD221D22212034A88
:1000A30012030D300C0280F8753600C222C221D231
:1000B3002412034AC2B3D2AA0000C22FC22EC22402
:1000C300C225C226C227D22412034A1202FC1203FB
:1000D3000DC21912034AE528541C60F2D220D22221
:1000E30012034A0200E9C22FC22EC224C225C2262D
:1000F300C227D22412034A12030D200AE912030D68
:10010300300AFAD22E12034A02010E12030D200AFC
:10011300FAD22F12034A02011C12030D2009FAE539
:100123002854046036C220C22212034A020132C29A
:100133002FC22EC224C225C226C227D22512034AA9
:100143001202FC12030DC21A12034AE52854186066
:10015300F2D220D22212034A02015EC22FC22EC261
:1001630024C225C226C227D22512034A12030D2018
:100173000AE912030D300AFAD22E12034A0201834E
:1001830012030D200AFAD22F12034A02019112031D
:100193000D2009FAE52854086036C220C222120352
:1001A3004A0201A7C22FC22EC224C225C226C227D9
:1001B300D22612034A1202FC12030DC21B12034A77
:1001C300E528541060F2D220D22212034A0201D34E
:1001D300C22FC22EC224C225C226C227D226120390
:1001E3004A12030D200AE912030D300AFAD22E1225
:1001F300034A0201F812030D200AFAD22F12034A0E
:1002030002020612030D2009FAC220C22212034A77
:1002130002025EC22FC22EC224C225C226C227D228
:100223002612034A12030D200AE912030D300AFABB
:10023300D22F12034A02023B12030D200AFAD22ED6
:1002430012034A02024912030D2009FAE528540455
:10025300607DC221C22212034A2132C22FC22EC2A2
:1002630024C225C226C227D22712034A1202FC1235
:10027300030DC21C12034AE528540E60F2D221D2A8
:100283002212034A02028AC22FC22EC224C225C2EC
:1002930026C227D22712034A12030D200AE91203AA
:1002A3000D300AFAD22F12034A0202AF12030D20B5
:1002B3000AFAD22E12034A0202BD12030D2009FAD2
:1002C300E52854086018C221C22212034A21A7C29A
:1002D30021C22212034AC2B3D2AA00000000C221E3
:1002E300C22212034AC2B3D2AA00000000D21812DB
:1002F300034AC2B3D2AA000022D22C12034A120329
:100303000D3013F5C22C12034A2275A08075803F6D
:10031300C2B700000000858028D2B775A081758020
:10032300FEC2B700000000858021D2B775A0827598
:10033300803FC2B700000000858022D2B7E5285471
:100343001E422312034A2285238075A0C0C2B60031
:10035300000000D2B685248075A0C1C2B60000009B
:1003630000D2B685258075A0C2C2B600000000D2B7
:10037300B6220D0A526961646961636920737973F6
:1003830074656D206A6520696E696369616C697A59
:100393006F76616E792E0D0A00526961646961633B
:1003A300692073797374656D206A65207265696E5F
:1003B300696369616C697A6F76616E7920706F2009
:1003C30073746C6163656E6920746C616369646CDA
:1003D300612053544F502E0D0A004B616C696272B9
:1003E3006163696120767974616875206A65207537
:0B03F3006B6F6E63656E612E0D0A00DB
:00000001FF
