:03000000020033C8
:10003300D2B6D2B775330075814079007AFFD9FE05
:10004300DAFC75809B75A083C2B600000000D2B6AF
:1000530075808075A0C3C2B600000000D2B6C2B3DB
:10006300D2AA000075280075211E75220075231E73
:100073007524F07525FFD2181206857523007524A3
:10008300007525001206857528007521007522006C
:10009300120637120637300C11D221D222C2231294
:1000A3000685120637300C0280F8C222C221D22301
:1000B300D2201206851206372009FAC223C220D2A3
:1000C30024120685C22FC22EC224C225C226C227ED
:1000D300D22412068512061E120637C2191206858D
:1000E300E528541C60F2D220D222C22312068502D4
:1000F30000F5C22FC22EC224C225C226C227D22493
:100103001206851206081206373009FA120608127B
:100113000637200B030205ED002009030205C0008A
:10012300200AEC120608120637300AFA120608D221
:100133002E12068502013A120637200B030205ED43
:10014300002009030205B100200AECD22F12068514
:10015300120608120637300AFA120608E528540474
:10016300600AD223C22212068502016F12063720CB
:100173000B030205ED00200A030205CF002009EC62
:10018300C372427212B00E720F3400606DC220D27D
:100193003AC23BC22212068502019EC22FC22EC260
:1001A30024C225C226C227D22512068512061E1294
:1001B3000637C21A1206857418203A01F4F5F05373
:1001C300F01AE52855F07014B23AB23BE5F0F4F5B5
:1001D300F053F01AE52855F0700280D3203A030259
:1001E30001F1D220D222C2231206850201FDD221BF
:1001F300D222C2231206850202A9C22FC22EC22412
:10020300C225C226C227D225120685120608120667
:10021300373009FA120608120637200B030205EDE0
:10022300002009030205C000200AEC12060812068A
:1002330037300AFA120608D22E120685020242123B
:100243000637200B030205ED002009030205B10068
:10025300200AECD22F120685120608120637300A3E
:10026300FA120608E5285408600AD223C2221206AD
:1002730085020277120637200B030205ED00200AE0
:10028300030205CF002009ECC372437214B00E724F
:100293000F3400700302039AC220D23AC23BC22237
:1002A30012068502033BC22FC22EC224C225C226D8
:1002B300C227D2251206851206081206373009FA1C
:1002C300120608120637200C030205DE002009037C
:1002D3000205C000200ACF120608120637300AFAB8
:1002E300120608D22F1206850202EE120637200CE0
:1002F300030205DE002009030205B100200AECD247
:100303002E120685120608120637300AFA1206085C
:10031300E5285402600AD223C2221206850203236F
:10032300120637300C0530090280F5C221D23BC2D8
:100333003AC22212068501C7C22FC22EC224C22589
:10034300C226C227D22612068512061E120637C2FD
:100353001B1206857410203A01F4F5F053F016E5EC
:100363002855F07014B23AB23BE5F0F4F5F053F0CF
:1003730016E52855F0700280D3203A0302038ED28B
:1003830020D222C22312068502039AD221D222C28C
:100393002312068502042DC22FC22EC224C225C2F7
:1003A30026C227D2261206851206081206373009FE
:1003B300FA120608120637200B030205ED00200986
:1003C300030205C000200AEC120608120637300AA1
:1003D300FA120608D22E1206850203DF1206372010
:1003E3000B030205ED002009030205B100200AEC0E
:1003F300D22F120685120608120637300AFA1206A1
:1004030008E5285410600AD223C22212068502048A
:1004130014120637300B0530090280F5C220D23A98
:10042300C23BC2221206850204D8C22FC22EC224A6
:10043300C225C226C227D226120685120608120634
:10044300373009FA120608120637200C030205DEBC
:10045300002009030205C000200ACF120608120675
:1004630037300AFA120608D22F12068502047212D6
:100473000637200C030205DE002009030205B10044
:10048300200AECD22E120685120608120637300A0D
:10049300FA120608E5285404600AD223C22212067F
:1004A300850204A7120637200C030205DE00200A8A
:1004B300030205CF002009ECC372427211B00E7221
:1004C3000F340070030202A9C221D23BC23AC222F6
:1004D300120685219EC22FC22EC224C225C226C265
:1004E30027D22712068512061E120637C21C1206D1
:1004F30085E528540E60F2D221D222C2231206854A
:10050300020506C22FC22EC224C225C226C227D28A
:10051300271206851206081206373009FA12060852
:10052300120637200C030205DE002009030205C072
:1005330000200ACF120608120637300AFA120608FC
:10054300D22F12068502054B120637200C03020533
:10055300DE002009030205B100200AECD22E1206A8
:1005630085120608120637300AFA120608E52854DF
:1005730008600AD223C222120685020580120637BA
:10058300200C030205DE00200A030205CF00200928
:10059300ECC372437213B00E720F34007003020483
:1005A3002DC221D23BC23AC222120685613BC22030
:1005B300C221120685C2B3D2AA00000000C220C223
:1005C30021120685C2B3D2AA00000000C220C221B4
:1005D300120685C2B3D2AA00000000C220C22112B3
:1005E3000685C2B3D2AA00000000C220C2211206AF
:1005F30085C2B3D2AA00000000D218120685C2B386
:10060300D2AA00002279637AFFDAFE7AFFDAFE7A51
:1006130024DAFE00D9F1792AD9FE227B20120608BA
:10062300DBFB22D22C1206851206373013EDC22CC7
:100633001206852275A08075803FC2B700000000B6
:10064300858028D2B775A0817580FEC2B7000000EF
:1006530000858021D2B775A08275803FC2B70000A4
:100663000000858022D2B70000000000000000E5F2
:1006730028541E4223120685E522543F42251206C2
:10068300852285238075A0C0C2B600000000D2B6C3
:1006930085248075A0C1C2B600000000D2B68525AE
:1006A3008075A0C2C2B600000000D2B600000000F0
:1006B30000000000220D0A526961646961636920C8
:1006C30073797374656D206A6520696E6963696106
:1006D3006C697A6F76616E792E0D0A0052696164D6
:1006E300696163692073797374656D206A6520722B
:1006F30065696E696369616C697A6F76616E792089
:10070300706F2073746C6163656E6920746C6163D0
:1007130069646C612053544F502E0D0A004B616C79
:100723006962726163696120767974616875206AB0
:0E0733006520756B6F6E63656E612E0D0A009A
:00000001FF
