:03000000020033C8
:10003300D2B6D2B775330075814079007AFFD9FE05
:10004300DAFC75809B75A083C2B600000000D2B6AF
:1000530075808075A0C3C2B600000000D2B6C2B3DB
:10006300D2AA000075280075211E75220075231E73
:100073007524F07525FFD218C2381208E9752300DC
:100083007524007525001208E9752800752100758F
:10009300220012088E12088E300C11D221D222C2F5
:1000A300231208E912088E300C0280F8C222C22102
:1000B300D223D2201208E912088E2009FAC223C2E1
:1000C30020D2241208E9C22FC22EC224C225C2267E
:1000D300C227D2241208E912084A12088EC219C292
:1000E300281208E9200FF3E528541C7008E5225470
:1000F3003E700280E5D220D222C2231208E9020117
:1001030004C22FC22EC224C225C226C227D2241261
:1001130008E912081512088E3009FA120815120898
:100123008E200B030207FA002009030207CD0020EB
:100133000AEC12081512088E300AFA120815D22E8C
:100143001208E902014912088E200B030207FA0084
:100153002009030207BE00200AECD22F1208E9127D
:10016300081512088E300AFA120815C374007212A9
:10017300B00E7242720F72383400702EE52233547F
:100183007E78056006C313C313D8F87405C398B407
:10019300020302019B0201B700E528541EC3137832
:1001A30002C313D8FC60030201B7D223C222120890
:1001B300E90201B712088E200B030207FA00200A96
:1001C300030207DC002009ECC374007212B00E7244
:1001D30042720F72383400C238702EE52233547ED7
:1001E30078056006C313C313D8F87405C398B40223
:1001F300030201FA02029600E528541EC313780293
:10020300C313D8FC6003020296C220D23AC23BC297
:10021300221208E902021AC22FC22EC224C225C228
:1002230026C227D2251208E912084A12088EC21ADA
:10023300C22AC2291208E9200FF179F87AF8203A84
:1002430006E9F4F9EAF4FAE528541A597027E5287F
:10025300541A7007E52254395A701AB23AB23BE97C
:10026300F4F9EAF4FAE528541A597009E5225439E5
:100273005A700280B6203A0302028AD220D222C2E6
:10028300231208E9020296D221D222C2231208E9DC
:100293000203ACC22FC22EC224C225C226C227D259
:1002A300251208E912081512088E3009FA120815EA
:1002B30012088E200B030207FA002009030207CD60
:1002C30000200AEC12081512088E300AFA120815DB
:1002D300D22E1208E90202DB12088E200B0302075A
:1002E300FA002009030207BE00200AECD22F1208ED
:1002F300E912081512088E300AFA120815C37400A1
:100303007214B00E7243720F72383400702EE522ED
:1003130033547E78056006C313C313D8F87405C33A
:1003230098B4030302032D02034900E528541EC3B6
:10033300137803C313D8FC6003020349D223C222F8
:100343001208E902034912088E200B030207FA0080
:10035300200A030207DC002009ECC374007214B006
:100363000E7243720F72383400C238702EE5223396
:10037300547E78056006C313C313D8F87405C39875
:10038300B4030302038C0204B600E528541EC3130E
:100393007803C313D8FC60030204B6C220D23AC266
:1003A3003BC2221208E902043AC22FC22EC224C25F
:1003B30025C226C227D2251208E912081512088E73
:1003C3003009FA12081512088E200C030207EB00FD
:1003D3002009030207CD00200ACF12081512088E48
:1003E300300AFA120815D22F1208E90203F1120893
:1003F3008E200C030207EB002009030207BE002036
:100403000AECD22E1208E912081512088E300AFAE5
:10041300120815D223C2221208E902042012088E00
:10042300300C0530090280F5C238C221D23BC23AF2
:10043300C2221208E901C9C22FC22EC224C225C298
:1004430026C227D2261208E912084A12088EC21BB6
:10045300C22CC22B1208E9200FF179F07AE0203A7E
:1004630006E9F4F9EAF4FAE5285416597027E52861
:1004730054167007E52254275A701AB23AB23BE970
:10048300F4F9EAF4FAE5285416597009E5225427D9
:100493005A700280B6203A030204AAD220D222C2A2
:1004A300231208E90204B6D221D222C2231208E998
:1004B300020545C22FC22EC224C225C226C227D29C
:1004C300261208E912081512088E3009FA120815C7
:1004D30012088E200B030207FA002009030207CD3E
:1004E30000200AEC12081512088E300AFA120815B9
:1004F300D22E1208E90204FB12088E200B03020716
:10050300FA002009030207BE00200AECD22F1208CA
:10051300E912081512088E300AFA120815D223C2FE
:10052300221208E902052A12088E300B053009024F
:1005330080F5C238C220D23AC23BC2221208E90275
:100543000664C22FC22EC224C225C226C227D226C7
:100553001208E912081512088E3009FA120815124A
:10056300088E200C030207EB002009030207CD00CD
:10057300200ACF12081512088E300AFA120815D273
:100583002F1208E902058A12088E200C030207EBDA
:10059300002009030207BE00200AECD22E1208E94C
:1005A30012081512088E300AFA120815C374007265
:1005B30011B00E7242720F723834007033E5223379
:1005C300547E78056006C333C333D8F8E8B4020316
:1005D3000205D90205FD007405C39402F8E5285409
:1005E3001EC333C333C333C333D8FC60030205FDD7
:1005F300D223C2221208E90205FD12088E200C0341
:100603000207EB00200A030207DC002009ECC37495
:10061300007211B00E7242720F72383400C2387019
:1006230033E52233547E78056006C333C333D8F8E9
:10063300E8B4020302063D0203AC007405C394024E
:10064300F8E528541EC333C333C333C333D8FC6024
:10065300030203ACC221D23BC23AC2221208E941CF
:100663001AC22FC22EC224C225C226C227D22712E3
:1006730008E912084A12088EC21CC22D1208E9208A
:100683000FF3E528540E7008E522541F700280E52D
:10069300D221D222C2231208E902069FC22FC22E00
:1006A300C224C225C226C227D2271208E91208157E
:1006B30012088E3009FA12081512088E200C030254
:1006C30007EB002009030207CD00200ACF1208150B
:1006D30012088E300AFA120815D22F1208E9020600
:1006E300E412088E200C030207EB00200903020723
:1006F300BE00200AECD22E1208E912081512088E49
:10070300300AFA120815C374007213B00E724372E2
:100713000F723834007033E52233547E7805600657
:10072300C333C333D8F8E8B40303020733020757CC
:10073300007405C39403F8E528541EC333C333C3BD
:1007430033C333D8FC6003020757D223C2221208F3
:10075300E902075712088E200C030207EB00200A58
:10076300030207DC002009ECC374007213B00E729D
:1007730043720F72383400C2387033E52233547E2B
:1007830078056006C333C333D8F8E8B4030302071C
:1007930097020545007405C39403F8E528541EC366
:1007A30033C333C333C333D8FC6003020545C221CB
:1007B300D23BC23AC2221208E9813AC220C22112B4
:1007C30008E9C2B3D2AA00000000C220C221120865
:1007D300E9C2B3D2AA00000000C220C2211208E974
:1007E300C2B3D2AA00000000C220C2211208E9C28B
:1007F300B3D2AA00000000C220C2211208E9C2B38A
:10080300D2AA00000000D2181208E9C2B3D2AA008B
:10081300002279637AFFDAFE7AFFDAFE7A24DAFEBF
:1008230000D9F1792AD9FE22D238C222C22374E137
:1008330052231208E912084A120852E528541E608E
:10084300F7D2231208E9227B10120815DBFB22756D
:10085300A08075803FC2B700000000858028D2B712
:1008630075A0817580FEC2B700000000858021D28B
:10087300B775A08275803FC2B70000000085802253
:10088300D2B700000000000000002275A080758030
:100893003FC2B700000000858028D2B775A08175DC
:1008A30080FEC2B700000000858021D2B775A08208
:1008B30075803FC2B700000000858022D2B70000D8
:1008C300000000000000300F04C222D223204003A6
:1008D30012082BE528541E42231208E9E522543F4F
:1008E30042251208E92285238075A0C0C2B6000004
:1008F3000000D2B685248075A0C1C2B600000000F6
:10090300D2B685258075A0C2C2B600000000D2B65B
:100913000000000000000000220D0A5269616469B2
:100923006163692073797374656D206A6520696EEC
:10093300696369616C697A6F76616E792E0D0A005D
:1009430052696164696163692073797374656D20A9
:100953006A65207265696E696369616C697A6F762D
:10096300616E7920706F2073746C6163656E6920AA
:10097300746C616369646C612053544F502E0D0A8B
:10098300004B616C6962726163696120767974619D
:100993006875206A6520756B6F6E63656E612E0DD9
:0209A3000A0048
:00000001FF
