:03000000020033C8
:10003300D2B6D2B775330075814079007AFFD9FE05
:10004300DAFC75809B75A083C2B600000000D2B6AF
:1000530075808075A0C3C2B600000000D2B6C2B3DB
:10006300D2AA000075280075211E75220075231E73
:100073007524F07525FFD2181208687523007524BE
:100083000075250012086875280075210075220087
:1000930012081A12081A300C11D221D222C22312CA
:1000A300086812081A300C0280F8C222C221D22337
:1000B300D22012086812081A2009FAC223C220D2D9
:1000C30024120868C22FC22EC224C225C226C22708
:1000D300D22412086812080112081AC219C228127F
:1000E3000868E528541C7008E522543E700280E835
:1000F300D220D222C2231208680200FFC22FC22ECE
:10010300C224C225C226C227D2241208681207EBD2
:1001130012081A3009FA1207EB12081A200B03020D
:1001230007D0002009030207A300200AEC1207EB03
:1001330012081A300AFA1207EBD22E1208680201CB
:100143004412081A200B030207D0002009030207F8
:100153009400200AECD22F1208681207EB12081A37
:10016300300AFA1207EBC3740072427212B00E72B5
:100173000F3400702EE52233547E78056006C313D6
:10018300C313D8F87405C398B4020302019402019F
:10019300B000E528541EC3137802C313D8FC6003D0
:1001A3000201B0D223C2221208680201B012081A57
:1001B300200B030207D000200A030207B200200924
:1001C300ECC3740072427212B00E720F3400702EC0
:1001D300E52233547E78056006C313C313D8F8743D
:1001E30005C398B402030201EF02028800E5285414
:1001F3001EC3137802C313D8FC6003020288C22013
:10020300D23AC23BC22212086802020FC22FC22E88
:10021300C224C225C226C227D225120868120801A9
:1002230012081AC21AC22AC22912086879F87AF87F
:10023300203A06E9F4F9EAF4FAE528541A59702742
:10024300E528541A7007E52254395A701AB23AB2A3
:100253003BE9F4F9EAF4FAE528541A597009E5225E
:1002630054395A700280B9203A0302027CD220D258
:1002730022C223120868020288D221D222C2231288
:100283000868020398C22FC22EC224C225C226C206
:1002930027D2251208681207EB12081A3009FA123E
:1002A30007EB12081A200B030207D00020090302F0
:1002B30007A300200AEC1207EB12081A300AFA12FD
:1002C30007EBD22E1208680202CD12081A200B0384
:1002D3000207D00020090302079400200AECD22F62
:1002E3001208681207EB12081A300AFA1207EBC356
:1002F300740072437214B00E720F3400702EE52234
:1003030033547E78056006C313C313D8F87405C34A
:1003130098B4030302031D02033900E528541EC3E6
:10032300137803C313D8FC6003020339D223C22218
:1003330012086802033912081A200B030207D000BF
:10034300200A030207B2002009ECC374007243724F
:1003530014B00E720F3400702EE52233547E7805EC
:100363006006C313C313D8F87405C398B403030218
:10037300037802049D00E528541EC3137803C313B6
:10038300D8FC600302049DC220D23AC23BC22212AF
:100393000868020424C22FC22EC224C225C226C268
:1003A30027D2251208681207EB12081A3009FA122D
:1003B30007EB12081A200C030207C10020090302ED
:1003C30007A300200ACF1207EB12081A300AFA1209
:1003D30007EBD22F1208680203DD12081A200C0360
:1003E3000207C10020090302079400200AECD22E61
:1003F3001208681207EB12081A300AFA1207EBD236
:1004030023C22212086802040C12081A300C0530A9
:10041300090280F5C221D23BC23AC2221208680106
:10042300C7C22FC22EC224C225C226C227D2261279
:10043300086812080112081AC21BC22CC22B120828
:100443006879F07AE0203A06E9F4F9EAF4FAE52863
:100453005416597027E52854167007E52254275A75
:10046300701AB23AB23BE9F4F9EAF4FAE528541601
:10047300597009E52254275A700280B9203A0302C1
:100483000491D220D222C22312086802049DD221F1
:10049300D222C22312086802052AC22FC22EC22406
:1004A300C225C226C227D2261208681207EB1208F9
:1004B3001A3009FA1207EB12081A200B030207D0AD
:1004C300002009030207A300200AEC1207EB12081D
:1004D3001A300AFA1207EBD22E1208680204E2124B
:1004E300081A200B030207D0002009030207940017
:1004F300200AECD22F1208681207EB12081A300AEE
:10050300FA1207EBD223C22212086802051112085D
:100513001A300B0530090280F5C220D23AC23BC221
:1005230022120868020643C22FC22EC224C225C269
:1005330026C227D2261208681207EB12081A3009BE
:10054300FA1207EB12081A200C030207C100200954
:10055300030207A300200ACF1207EB12081A300A7E
:10056300FA1207EBD22F12086802056F12081A203D
:100573000C030207C10020090302079400200AECC0
:10058300D22E1208681207EB12081A300AFA120761
:10059300EBC3740072427211B00E720F34007033E9
:1005A300E52233547E78056006C333C333D8F8E8B5
:1005B300B402030205BC0205E0007405C39402F80B
:1005C300E528541EC333C333C333C333D8FC60039A
:1005D3000205E0D223C2221208680205E012081ABB
:1005E300200C030207C100200A030207B2002009FE
:1005F300ECC3740072427211B00E720F3400703388
:10060300E52233547E78056006C333C333D8F8E854
:10061300B4020302061C020398007405C39402F893
:10062300E528541EC333C333C333C333D8FC600339
:10063300020398C221D23BC23AC222120868410F78
:10064300C22FC22EC224C225C226C227D227120815
:100653006812080112081AC21CC22D120868E52884
:10066300540E7008E522541F700280E8D221D22272
:10067300C22312086802067BC22FC22EC224C225DF
:10068300C226C227D2271208681207EB12081A30B3
:1006930009FA1207EB12081A200C030207C1002003
:1006A30009030207A300200ACF1207EB12081A302E
:1006B3000AFA1207EBD22F1208680206C012081AB0
:1006C300200C030207C10020090302079400200A3B
:1006D300ECD22E1208681207EB12081A300AFA122B
:1006E30007EBC3740072437213B00E720F340070C1
:1006F30033E52233547E78056006C333C333D8F819
:10070300E8B4030302070D020731007405C3940321
:10071300F8E528541EC333C333C333C333D8FC6053
:1007230003020731D223C2221208680207311208DA
:100733001A200C030207C100200A030207B200209B
:1007430009ECC3740072437213B00E720F3400705D
:1007530033E52233547E78056006C333C333D8F8B8
:10076300E8B4030302076D02052A007405C394036A
:10077300F8E528541EC333C333C333C333D8FC60F3
:100783000302052AC221D23BC23AC222120868815F
:1007930024C220C221120868C2B3D2AA00000000FA
:1007A300C220C221120868C2B3D2AA00000000C24C
:1007B30020C221120868C2B3D2AA00000000C220DE
:1007C300C221120868C2B3D2AA00000000C220C22C
:1007D30021120868C2B3D2AA00000000D21812087E
:1007E30068C2B3D2AA00002279637AFFDAFE7AFFE5
:1007F300DAFE7A24DAFE00D9F1792AD9FE227B10B7
:100803001207EBDBFB22D22C12086812081A3013F2
:10081300EDC22C1208682275A08075803FC2B70014
:10082300000000858028D2B775A0817580FEC2B70D
:1008330000000000858021D2B775A08275803FC279
:10084300B700000000858022D2B70000000000003E
:100853000000E528541E4223120868E522543F4253
:10086300251208682285238075A0C0C2B600000047
:1008730000D2B685248075A0C1C2B600000000D2A4
:10088300B685258075A0C2C2B600000000D2B600AE
:1008930000000000000000220D0A526961646961D2
:1008A30063692073797374656D206A6520696E6965
:1008B3006369616C697A6F76616E792E0D0A0052F5
:1008C300696164696163692073797374656D206A12
:1008D30065207265696E696369616C697A6F7661B7
:1008E3006E7920706F2073746C6163656E69207418
:1008F3006C616369646C612053544F502E0D0A0080
:100903004B616C69627261636961207679746168B5
:1009130075206A6520756B6F6E63656E612E0D0AB7
:0109230000D3
:00000001FF
