:03000000020033C8
:03000B00020AC026
:10003300D2B6D2B775330075814079007AFFD9FE05
:10004300DAFC75809B75A083C2B600000000D2B6AF
:1000530075808075A0C3C2B600000000D2B6C28E00
:10006300759852758801758921758700758BFA75A6
:100073008DFA758A00758C4CD28CD28E75280075DA
:10008300211E75220075231E7524F07525FFD218D5
:10009300C238120BD6752300752400752500120B88
:1000A300D6752800752100752200120B77752A007A
:1000B300752B00900C20120C0D120B77300C13D201
:1000C30021D222C223C220120BD6120B77300C028C
:1000D30080F8C222C221D223D220120BD6120B7770
:1000E3002009FAC223C220D224120BD6900C20126C
:1000F3000C0D7D007E14D2A9C22FC22EC224C225AC
:10010300C226C227D224120BD6120B2F120B77C290
:1001130019C228120BD6200FF3E528852AF063F0C5
:10012300FF55F0541C7026E522543EA2E1B05292D2
:10013300E1A2E2B05292E2A2E3B05392E3A2E4B0AE
:100143005392E4A2E5B05492E5700280BFD220D26C
:1001530022C223120BD602015CC22FC22EC224C2BA
:1001630025C226C227D224120BD6120AFA120B7703
:100173003009FA120AFA120B77200B03020A7200F3
:10018300200903020A4B00200AEC120AFA120B7729
:10019300300AFA120AFAD22E120BD60201A1120A5F
:1001A300FA120B77300AFA120AFA120B77200B03B2
:1001B300020A7200200903020A3600200AECD22F39
:1001C300120BD6120AFA120B77300AFA120AFAC382
:1001D30074007212B00E7242B052720F7238340051
:1001E3007054E52233547EA2E2B05292E2A2E3B00D
:1001F3005292E3A2E4B05392E4A2E5B05392E5A293
:10020300E6B05492E678056006C313C313D8F874B6
:1002130005C398B4020302021F02024300E52854F7
:100223001E852AF063F0FF55F0C3137802C313D879
:10023300FC6003020243D223C222120BD6020281C4
:10024300120AFA120B77300AFA120AFA120B772003
:100253000B03020A7200200A19304204D223D23857
:10026300D252D25A0536C21AC22AC229120BD60258
:1002730003EE002009CAC252C25A000203A9120B9C
:1002830077200B03020A7200200A19304204D2239A
:10029300D238D252D25A0536C21AC22AC229120BF6
:1002A300D60203EE002009D6C252C25A00C220D29F
:1002B3003AC23BC222120BD60202BEC22FC22EC2C8
:1002C30024C225C226C227D225120BD6120B2F1207
:1002D3000B77C21AC22AC229120BD6200FF1782A31
:1002E30079F87AF8203A0AE9F4F9EAF4FAE86401C9
:1002F300F8E52886F063F0FF55F0541A59600302BD
:10030300038B00E52886F063F0FF55F0541A702D37
:10031300E52254395A86F0A2E0B0F192E0A2E1B0AE
:10032300F292E1A2E2B0F292E2A2E3B0F392E3A28C
:10033300E4B0F392E4A2E5B0F492E5704BE8640113
:10034300F8B23AB23BE9F4F9EAF4FAE52886F06345
:10035300F0FF55F0541A59702FE52254395A86F09C
:10036300A2E0B0F192E0A2E1B0F292E1A2E2B0F237
:1003730092E2A2E3B0F392E3A2E4B0F392E4A2E543
:10038300B0F492E5700241D2203A0302039DD220D9
:10039300D222C223120BD60203A9D221D222C22314
:1003A300120BD60204FFC22FC22EC224C225C226BC
:1003B300C227D225120BD6120AFA120B773009FA8A
:1003C300120AFA120B77200B03020A7200200903A8
:1003D300020A4B00200AEC120AFA120B77300AFACF
:1003E300120AFAD22E120BD60203EE120AFA120BDB
:1003F30077300AFA120AFA120B77200B03020A72F9
:1004030000200903020A3600200AECD22F120BD671
:10041300120AFA120B77300AFA120AFAC37400723C
:1004230014B00E7243B053720F723834007054E537
:100433002233547EA2E2B05292E2A2E3B05292E39C
:10044300A2E4B05392E4A2E5B05392E5A2E6B0541D
:1004530092E678056006C313C313D8F87405C398EE
:10046300B4030302046C02049000E528541E852A99
:10047300F063F0FF55F0C3137803C313D8FC600394
:10048300020490D223C222120BD60204C2120B77AB
:10049300200B03020A7200200A19304304D223D22C
:1004A30038D253D25B0537C21BC22CC22B120BD6D8
:1004B3000206C9002009D6C253C25B000206841299
:1004C3000B77200B03020A7200200A19304304D26F
:1004D30023D238D253D25B0537C21BC22CC22B1294
:1004E3000BD60206C9002009D6C253C25B00C22044
:1004F300D23AC23BC222120BD6020599C22FC22E98
:10050300C224C225C226C227D225120BD6120AFA4A
:10051300120B773009FA120AFA120B77200C030236
:100523000A6900200903020A4B00200ACF120AFAC3
:10053300120B77300AFA120AFAD22F120BD60205DF
:1005430044120AFA120B77300AFA120AFA120B77DC
:10055300200C03020A6900200903020A3600200A5C
:10056300ECD22E120BD6120AFA120B77300AFA12B9
:100573000AFAD223C222120BD602057F120B77305E
:100583000C0530090280F5C238C221D23BC23AC2FF
:1005930022120BD601FBC22FC22EC224C225C226B1
:1005A300C227D226120BD6120B2F120B77C21BC2F5
:1005B3002CC22B120BD6200FF1782A79F07AE02087
:1005C3003A0AE9F4F9EAF4FAE86401F8E52886F06E
:1005D30063F0FF55F0541659600302066600E528E0
:1005E30086F063F0FF55F05416702DE52254275A18
:1005F30086F0A2E0B0F192E0A2E1B0F292E1A2E2D1
:10060300B0F292E2A2E3B0F392E3A2E4B0F392E495
:10061300A2E5B0F492E5704BE86401F8B23AB23B5C
:10062300E9F4F9EAF4FAE52886F063F0FF55F054AB
:100633001659702FE52254275A86F0A2E0B0F192A2
:10064300E0A2E1B0F292E1A2E2B0F292E2A2E3B060
:10065300F392E3A2E4B0F392E4A2E5B0F492E5707E
:1006630002A1AD203A03020678D220D222C223127D
:100673000BD6020684D221D222C223120BD6020742
:100683001FC22FC22EC224C225C226C227D22612BF
:100693000BD6120AFA120B773009FA120AFA120B66
:1006A30077200B03020A7200200903020A4B002081
:1006B3000AEC120AFA120B77300AFA120AFAD22E4D
:1006C300120BD60206C9120AFA120B77300AFA1273
:1006D3000AFA120B77200B03020A720020090302A5
:1006E3000A3600200AECD22F120BD6120AFA120B8A
:1006F30077300AFA120AFAD223C222120BD6020761
:1007030004120B77300B0530090280F5C238C22082
:10071300D23AC23BC222120BD602087AC22FC22E91
:10072300C224C225C226C227D226120BD6120AFA27
:10073300120B773009FA120AFA120B77200C030214
:100743000A6900200903020A4B00200ACF120AFAA1
:10075300120B77300AFA120AFAD22F120BD60207BB
:1007630064120AFA120B77300AFA120AFA120B779A
:10077300200C03020A6900200903020A3600200A3A
:10078300ECD22E120BD6120AFA120B77300AFA1297
:100793000AFAC374007211B00E7242B05A720F7229
:1007A3003834007059E52233547EA2E1B05992E106
:1007B300A2E2B05A92E2A2E3B05A92E3A2E4B05B9F
:1007C30092E4A2E5B05B92E578056006C333C333D8
:1007D300D8F8E8B402030207DF02080B007405C36C
:1007E3009402F8E528541E852BF063F0FF55F0C3FF
:1007F30033C333C333C333D8FC600302080BD223A0
:10080300C222120BD602083D120B77200C03020AF8
:100813006900200A19304204D223D238D252D25A64
:100823000536C21AC22AC229120BD6020544002079
:1008330009D6C252C25A000204FF120B77200C03DE
:10084300020A6900200A19304204D223D238D25254
:10085300D25A0536C21AC22AC229120BD60205443D
:10086300002009D6C252C25A00C221D23BC23AC2A8
:1008730022120BD60202BEC22FC22EC224C225C22E
:1008830026C227D227120BD6120B2F120B77C21CAC
:10089300C22D120BD6200FF3E528852BF063F0FF52
:1008A30055F0540E7026E522541FA2E0B05992E091
:1008B300A2E1B05A92E1A2E2B05A92E2A2E3B05BA3
:1008C30092E3A2E4B05B92E4700280BFD221D22211
:1008D300C223120BD60208DBC22FC22EC224C225AA
:1008E300C226C227D227120BD6120AFA120B77306E
:1008F30009FA120AFA120B77200C03020A69002084
:100903000903020A4B00200ACF120AFA120B7730AE
:100913000AFA120AFAD22F120BD6020920120AFA85
:10092300120B77300AFA120AFA120B77200C030221
:100933000A6900200903020A3600200AECD22E12AB
:100943000BD6120AFA120B77300AFA120AFAC37498
:10095300007213B00E7243B05B720F7238340070C2
:1009630059E52233547EA2E1B05992E1A2E2B05A92
:1009730092E2A2E3B05A92E3A2E4B05B92E4A2E56E
:10098300B05B92E578056006C333C333D8F8E8B4A7
:10099300030302099B0209C7007405C39403F8E526
:1009A30028541E852BF063F0FF55F0C333C333C3C4
:1009B30033C333D8FC60030209C7D223C222120B0C
:1009C300D60209F9120B77200C03020A6900200AE8
:1009D30019304304D223D238D253D25B0537C21B1A
:1009E300C22CC22B120BD6020764002009D6C253B5
:1009F300C25B0002071F120B77200C03020A690077
:100A0300200A19304304D223D238D253D25B05379C
:100A1300C21BC22CC22B120BD6020764002009D6BC
:100A2300C253C25B00C221D23BC23AC222120BD6CE
:100A3300020599120AFA120B773009FA120AFA9090
:100A43000CA9120C0D020A7B120AFA120B77300959
:100A5300FA120AFA900CCF120C0D020A7B900CF9D1
:100A6300120C0D020A7B900D5A120C0D020A7B9098
:100A73000D1F120C0D020A7BD22FD22EC222D223BB
:100A8300120BD6120B77300B08300C05300902809D
:100A9300F2C220C221C222C223120BD6120B2F0292
:100AA3000AA5120B77200DFA200FF7200EF402008F
:100AB30033D218120BD6C2B3D2AA000022C0E0C0B0
:100AC300F0C080C090C0A0C0B0ED1D6002801BEEDE
:100AD300FDE52A452B541E23232362248524807598
:100AE300A0C1C2B600000000D2B6D0B0D0A0D09052
:100AF300D080D0F0D0E03279637AFFDAFE7AFFDA81
:100B0300FE7A24DAFE00D9F1792AD9FE22D238C23C
:100B130022C22374E15223120BD6120B2F120B376E
:100B2300E528541E60F7D223120BD6227B10120A3B
:100B3300FADBFB22C2AF75A08075803FC2B700000D
:100B43000000858028D2B775A0817580FEC2B700EA
:100B5300000000858021D2B775A08275803FC2B79F
:100B630000000000858022D2B700000000000000D2
:100B730000D2AF22C2AF75A08075803FC2B700001C
:100B83000000858028D2B775A0817580FEC2B700AA
:100B9300000000858021D2B775A08275803FC2B75F
:100BA30000000000858022D2B70000000000000092
:100BB30000D2AF300F04C222D223204003120B1005
:100BC300E528541E4223120BD6E522543F42251238
:100BD3000BD622C2AF85238075A0C0C2B600000029
:100BE30000D2B685248075A0C1C2B600000000D231
:100BF300B685258075A0C2C2B600000000D2B6003B
:100C030000000000000000D2AF22C0E0E493600ABD
:100C1300F5993099FDC299A380F2D0E0220D0A52D2
:100C2300696164696163692073797374656D206AAE
:100C33006520696E696369616C697A6F76616E7943
:100C43002E0D0A00526961646961636920737973C7
:100C530074656D206A65207265696E696369616C8C
:100C6300697A6F76616E7920706F2073746C61633B
:100C7300656E6920746C616369646C612053544FC1
:100C8300502E0D0A004B616C6962726163696120C9
:100C9300767974616875206A6520756B6F6E63651C
:100CA3006E612E0D0A0043687962612120567970C6
:100CB30061646C612073706F6D616C6F76616369E1
:100CC3006120636C6F6E6B61210D0A00436879626A
:100CD30061212056797061646C69206476652073A4
:100CE300706F6D616C6F766163696520636C6F6EA5
:100CF3006B79210D0A00436879626121205679706E
:100D030061646C61207A61737461766F7661636983
:100D13006120636C6F6E6B61210D0A004368796219
:100D23006121204E656F63616B6176616E65206E34
:100D330061636974616E696520686F726E656A20AC
:100D430073706F6D616C6F766163656A20636C6F3E
:100D53006E6B79210D0A00436879626121204E652B
:100D63006F63616B6176616E65206E616369746147
:100D73006E696520646F6C6E656A2073706F6D6158
:100D83006C6F766163656A20636C6F6E6B79210D9E
:020D93000A0054
:00000001FF
