:03000000020033C8
:03000B00021036AA
:03002300021217AF
:03002B000211F0CF
:10003300D2B6D2B775330075815079007AFFD9FEF5
:10004300DAFC75809B75A083C2B600000000D2B6AF
:1000530075808075A0C3C2B600000000D2B6C28E00
:10006300759852758921758740758B00758DFA7562
:100073008A00758C4C75C80075CA0075CB4CD2AD1F
:10008300D28CC2A9D28EC299C298D263D2AC754522
:1000930000C26175280075211E75220075231E7527
:1000A30024F07525FFD218C23812117F752300750D
:1000B300240075250012117F752800752100752213
:1000C30000121118752A00752B009013D01211BA63
:1000D300121118300C13D221D222C223C2201211C2
:1000E3007F121118300C0280F8C222C221D223D20F
:1000F3002012117F1211182009FAC223C220D22420
:1001030012117F9013D01211BA753C1E753D007504
:100113003E009015A11211BA633C03E53D623CE534
:100123003CB41D0302012D02100400753D20753EF1
:1001330020741D12120753240FD22412117FC238C8
:10014300752D3CC262D2CAD22FD22E12117F121148
:1001530018200A03020FEA00200B03020FEA00C271
:1001630019C228C22812117F30610312124C0030C9
:1001730062DCA20D720E720F9218922F922E121140
:100183007F200FCA3045C7A20D720E720F5006E5CD
:1001930028541E60B9E528852AF053F00C63F0FF5C
:1001A30055F0541C701AE522543EA2E2B05292E27A
:1001B300A2E3B05392E3A2E4B05392E47002808EC0
:1001C300D220C221D22FC22ED222C223D218121180
:1001D3007F0201D7633C09E53CB414030201E50245
:1001E300100400753D1B753E20741412120753242E
:1001F3000FD22412117F12107C1211183009FA1237
:10020300107C121118200B03020FD10020091B30A0
:100213004204C222D223D238D252D2590539C21A49
:10022300C22AC22912117F02051F00200AD4C2521A
:10023300C2590012107C121118300AFA12107C12E3
:10024300117F020248633C16E53CB40203020256E6
:1002530002100400753D0D753E2074021212071240
:10026300107C121118300AFA12107C121118200B8C
:1002730003020FD10020091B304204C222D223D231
:1002830038D252D2590539C21AC22AC22912117F51
:1002930002051F00200AD4C252C2590012117F1254
:1002A300107C121118300AFA12107C633C0EE53CE4
:1002B300B40C030202BC02100400753D20753E20FD
:1002C300740C121207C374007212B00E7242B05251
:1002D300720F72383400704BE52233547EA2E3B0C0
:1002E3005292E3A2E4B05392E4A2E5B05392E578CC
:1002F300056006C313C313D8F87405C398B4020387
:1003030002030902033000E528541E852AF053F046
:100313000C63F0FF55F0C3137802C313D8FC6003DA
:10032300020330D223C22212117F020385633C0AE7
:10033300E53CB4060302033E02100400753D097553
:100343003E0E740612120712107C121118300AFAAC
:1003530012107C121118200B03020FD100200A1B6C
:10036300304204C222D223D238D252D25A0536C2E4
:100373001AC22AC22912117F020594002009D4024D
:10038300051F633C10E53CB41C03020393021004F5
:1003930000753D09753E14741C12120712111820C2
:1003A3000B03020FD100200A1B304204C222D223C6
:1003B300D238D252D25A0536C21AC22AC2291211CF
:1003C3007F020594002009D4C220D23AC23BC22244
:1003D30012117F0203D9633C1AE53D623CE53CB44C
:1003E3000F030203EB02100400753D00753E1E74FB
:1003F3000F12120753240FD22512117FC238752D05
:100403003CC262D2CAD22FD22E12117F12111820EF
:100413000A03020FEA00200B03020FEA00200C0379
:10042300020FEA00C21AC22AC22912117F3062DC0B
:10043300A20D720E720F9218922F922E12117F201C
:100443000FCA3045C7A20D720E720F5006E528542D
:100453001E60B9782A79F87AF8203A0AE9F4F9EAB9
:10046300F4FAE86401F8E52886F053F00C63F0FF32
:1004730055F0541A5960030204F100E52886F0533D
:10048300F00C63F0FF55F0541A7021E52254395AE9
:1004930086F0A2E1B0F292E1A2E2B0F292E2A2E32C
:1004A300B0F392E3A2E4B0F392E47042E86401F89B
:1004B300B23AB23BE9F4F9EAF4FAE52886F053F0EC
:1004C3000C63F0FF55F0541A597023E52254395A3E
:1004D30086F0A2E1B0F292E1A2E2B0F292E2A2E3EC
:1004E300B0F392E3A2E4B0F392E47002810F203AF6
:1004F3000302050BD220C221D22FC22ED222C22345
:10050300D21812117F02051FC220D221C22FD22E70
:10051300D222C223D21812117F020729633C07E5B6
:100523003D623CE53CB4080302053102100400754A
:100533003D12753E00740812120753240FD2251280
:10054300117F12107C1211183009FA12107C12114B
:1005530018200B03020FD10020091B304304C222D1
:10056300D223D238D253D25A053AC21BC22CC22B41
:1005730012117F0209B400200AD4C253C25A0012D6
:10058300107C121118300AFA12107C12117F020526
:1005930094633C1AE53E623CE53CB412030205A6B3
:1005A30002100400753D08753E20741212120712E2
:1005B300107C121118300AFA12107C121118200B39
:1005C30003020FD10020091B304304C222D223D2DD
:1005D30038D253D25A053AC21BC22CC22B12117FF6
:1005E3000209B400200AD4C253C25A0012117F1266
:1005F300107C121118300AFA12107C633C13E53C8C
:10060300B4010302060C02100400753D20753E2060
:100613007401121207C374007214B00E7243B05304
:10062300720F72383400704BE52233547EA2E3B06C
:100633005292E3A2E4B05392E4A2E5B05392E57878
:10064300056006C313C313D8F87405C398B4030332
:1006530002065902068000E528541E852AF053F04D
:100663000C63F0FF55F0C3137803C313D8FC600386
:10067300020680D223C22212117F0206D5633C1BDD
:10068300E53CB41A0302068E02100400753D0075A2
:100693003E11741A12120712107C121118300AFA42
:1006A30012107C121118200B03020FD100200A1B19
:1006B300304304C222D223D238D253D25B0537C28D
:1006C3001BC22CC22B12117F020A3C002009D40248
:1006D30009B4633C05E53CB404030206E3021004D9
:1006E30000753D09753E0F7404121207121118208C
:1006F3000B03020FD100200A1B304304C222D22372
:10070300D238D253D25B0537C21BC22CC22B121173
:100713007F020A3C002009D4C220D23AC23BC22243
:1007230012117F02086E633C09E53E623CE53CB46E
:10073300180302073B02100400753D06753E097459
:100743001812120753240FD22512117F12107C1294
:1007530011183009FA12107C121118200C03020F21
:10076300B80020091B304104C222D223D238D2520E
:10077300D2590539C219C228C22812117F0207872C
:1007830000020796C221D23BC23AC222C2231211EF
:100793007F211B200AC2C252C2590012107C1211BF
:1007A30018300AFA12107C12117F0207B0633C0E54
:1007B300E53E623CE53CB41F030207C2021004009D
:1007C300753D01753E20741F12120712107C121121
:1007D30018300AFA12107C121118200C03020FB8F9
:1007E3000020091B304104C222D223D238D252D274
:1007F300590539C219C228C22812117F02080600FE
:10080300020816C221D23BC23AC222C22312117F6E
:1008130002011B200AC1C252C2590012117F1210D9
:100823007C121118300AFA12107CD223C222121140
:100833007F020837633C11E53CB40E03020845020E
:10084300100400753D10753E20740E12120712112C
:1008530018300907200CF7D2590535C238C221D206
:100863003BC23AC22212117F02011B633C07E53DE2
:10087300623CE53CB40A0302088002100400753DA3
:1008830010753E13740A12120753240FD226121145
:100893007FC238752D3CC262D2CAD22FD22E12111A
:1008A3007F121118200A03020FEA00200B03020F24
:1008B300EA00200C03020FEA00C21BC22CC22B1257
:1008C300117F3062DCA20D720E720F9218922F927A
:1008D3002E12117F200FCA3045C7A20D720E720F60
:1008E3005006E528541E60B9782A79F07AE0203A58
:1008F3000AE9F4F9EAF4FAE86401F8E52886F05322
:10090300F00C63F0FF55F05416596003020986009A
:10091300E52886F053F00C63F0FF55F05416702170
:10092300E52254275A86F0A2E1B0F292E1A2E2B0A6
:10093300F292E2A2E3B0F392E3A2E4B0F392E470A2
:1009430042E86401F8B23AB23BE9F4F9EAF4FAE5B1
:100953002886F053F00C63F0FF55F05416597023BA
:10096300E52254275A86F0A2E1B0F292E1A2E2B066
:10097300F292E2A2E3B0F392E3A2E4B0F392E47062
:100983000201A4203A030209A0D220C221D22FC21D
:100993002ED222C223D21812117F0209B4C220D24E
:1009A30021C22FD22ED222C223D21812117F020BC0
:1009B30006633C11E53D623CE53CB40B030209C60A
:1009C30002100400753D0E753E00740B121207539E
:1009D300240FD22612117F12107C1211183009FA3B
:1009E30012107C121118200B03020FD10020091BD7
:1009F300304404C222D223D238D254D25B053BC244
:100A03001CC22DC22D12117F020A1200020A22C239
:100A130020D23AC23BC222C22312117F020D092007
:100A23000AC1C254C25B0012107C121118300AFAB8
:100A330012107C12117F020A3C633C08E53E623CC3
:100A4300E53CB40303020A4E02100400753D06752B
:100A53003E20740312120712107C121118300AFA86
:100A630012107C121118200B03020FD10020091B56
:100A7300304404C222D223D238D254D25B053BC2C3
:100A83001CC22DC22D12117F020A9200020AA2C2B9
:100A930020D23AC23BC222C22312117F020D092087
:100AA3000AC1C254C25B0012117F12107C121118CA
:100AB300300AFA12107CD223C22212117F020AC317
:100AC300633C06E53CB40503020AD1021004007539
:100AD3003D00753E20740512120712107C12111886
:100AE300300AFA12107C121118300907200BF7D2C2
:100AF300540538C238C220D23AC23BC22212117FF7
:100B0300020D09633C02E53E623CE53CB41B030273
:100B13000B1802100400753D16753E0A741B121261
:100B23000753240FD22612117F12107C1211183092
:100B330009FA12107C121118200C03020FB80020BE
:100B4300091B304204C222D223D238D253D25A05CF
:100B53003AC21AC22AC22912117F02072900200AA7
:100B6300D4C253C25A0012107C121118300AFA125E
:100B7300107C12117F020B7B633C04E53D623CE574
:100B83003CB40903020B8D02100400753D20753E31
:100B930018740912120712107C121118300AFA1273
:100BA300107C121118200C03020FB80020091B300F
:100BB3004204C222D223D238D253D25A053AC21A9D
:100BC300C22AC22912117F02072900200AD4C25364
:100BD300C25A0012117F12107C121118300AFA1235
:100BE300107C633C19E53CB41003020BF3021004C0
:100BF30000753D20753E207410121207C3740072F5
:100C030011B00E7242B05A720F723834007050E550
:100C13002233547EA2E2B05A92E2A2E3B05A92E3A4
:100C2300A2E4B05B92E478056006C333C333D8F81B
:100C3300E8B40203020C3D020C6C007405C3940279
:100C4300F8E528541E852BF053F00C63F0FF55F0A4
:100C5300C333C333C333C333D8FC6003020C6CD236
:100C630023C22212117F020CB5633C01E53CB4118F
:100C730003020C7A02100400753D20753E007411C6
:100C8300121207121118200C03020FB800200A1BBE
:100C9300304204C222D223D238D252D25A0536C2AB
:100CA3001AC22AC22912117F0207B0002009D402F6
:100CB3000729633C05E53CB41503020CC302100489
:100CC30000753D00753E04741512120712111820A9
:100CD3000C03020FB800200A1B304204C222D223A5
:100CE300D238D252D25A0536C21AC22AC229121196
:100CF3007F0207B0002009D4C221D23BC23AC222EC
:100D030012117F0203D9633C16E53D623CE53CB416
:100D13001303020D1B02100400753D20753E207461
:100D23001312120753240FD22712117FC238752DC5
:100D33003CC262D2CAD22FD22E12117F12111820B6
:100D43000A03020FEA00200C03020FEA00C21CC2CE
:100D53002DC22D12117F3062E3A20D720E720F921B
:100D630018922F922E12117F200FD13045CEA20D53
:100D7300720E720F5006E528541E60C0E528852BBD
:100D8300F053F00C63F0FF55F0540E701AE5225443
:100D93001FA2E1B05A92E1A2E2B05A92E2A2E3B0FA
:100DA3005B92E370028095C220D221C22FD22ED251
:100DB30022C223D21812117F020DBE633C05E53C0B
:100DC300B41603020DCC02100400753D20753E0FCE
:100DD300741612120753240FD22712117F12107C9C
:100DE3001211183009FA12107C121118200C030288
:100DF3000FB80020091B304304C222D223D238D2B9
:100E030054D25B053BC21BC22CC22B12117F020BB7
:100E13000600200AD4C254C25B0012107C121118BF
:100E2300300AFA12107C12117F020E2F633C01E587
:100E33003CB41703020E3D02100400753D20753EBD
:100E43000E741712120712107C121118300AFA12BC
:100E5300107C121118200C03020FB80020091B305C
:100E63004304C222D223D238D254D25B053BC21BE5
:100E7300C22CC22B12117F020B0600200AD4C254CB
:100E8300C25B0012117F12107C121118300AFA1281
:100E9300107C633C10E53CB40703020EA30210046C
:100EA30000753D20753E207407121207C37400724B
:100EB30013B00E7243B05B720F723834007050E59A
:100EC3002233547EA2E2B05A92E2A2E3B05A92E3F2
:100ED300A2E4B05B92E478056006C333C333D8F869
:100EE300E8B40303020EED020F1C007405C3940360
:100EF300F8E528541E852BF053F00C63F0FF55F0F2
:100F0300C333C333C333C333D8FC6003020F1CD2D0
:100F130023C22212117F020F65633C1EE53CB41904
:100F230003020F2A02100400753D14753E00741964
:100F3300121207121118200C03020FB800200A1B0B
:100F4300304304C222D223D238D253D25B0537C2F4
:100F53001BC22CC22B12117F020B7B002009D4026F
:100F63000B06633C0AE53CB40D03020F7302100445
:100F730000753D00753E20740D12120712111820E2
:100F83000C03020FB800200A1B304304C222D223F1
:100F9300D238D253D25B0537C21BC22CC22B1211DB
:100FA3007F020B7B002009D4C221D23BC23AC2226A
:100FB30012117F016EC221C22212117F90153412C9
:100FC30011BA753C1E753D00753E0002011BC2221D
:100FD300C22312117F9014F91211BA753C05753DA5
:100FE30000753E00020D09C222C22312117F901523
:100FF3006F1211BA752D3CC262D2CA3062FD020073
:1010030033C220C221C222C22312117F9015B21211
:1010130011BA752D14C262D2CA3062FDD2181211F0
:101023007F752D14C262D2CA3062FDC21812117FBD
:1010330080E022C0D0C0E0C0F0C080C090C0A0C09B
:10104300B0E52E152E600280217414F52EE52A4595
:101053002B541E2323236224C2AF85248075A0C191
:10106300C2B600000000D2B6D2AFD0B0D0A0D090AC
:10107300D080D0F0D0E0D0D032C0D0C001C0027553
:101083002D01C262D2CA30CA033062FAD002D00143
:10109300D0D022C0D0C0E0D238C222C22374E152E1
:1010A30023C025D22FD22E12117F752D28C262D2D2
:1010B300CA1210D4E528541E60F73062F4C22FC25E
:1010C3002ED0E055C04225D22312117FD0E0D0D0DC
:1010D30022C0D0C2AF75A08075803FC2B7000000A8
:1010E30000858028D2B775A0817580FEC2B7000045
:1010F3000000858021D2B775A08275803FC2B700FA
:10110300000000858022D2B700000000000000002C
:10111300D2AFD0D022C0D0C0E0C2AF75A08075805E
:101123003FC2B700000000858028D2B775A0817543
:1011330080FEC2B700000000858021D2B775A0826F
:1011430075803FC2B700000000858022D2B700003F
:10115300000000000000D2AF300F04C222D22320CF
:101163004003121096E528541E422312117FE522F4
:10117300543F422512117FD0E0D0D022C0D0C2AF5D
:1011830085238075A0C0C2B600000000D2B68524B6
:101193008075A0C1C2B600000000D2B68525807557
:1011A300A0C2C2B600000000D2B6000000000000DA
:1011B3000000D2AFD0D022C0D0C0E0C083C082E450
:1011C300936006121207A380F6D082D083D0E0D0BA
:1011D300D022C0D0C0E0C083C082E4936006121264
:1011E30007A380F6D082D083D0E0D0D022C2CFC074
:1011F300E0E52D600514F52D8007C2CA752D00D2D8
:1012030062D0E03210630280FBF599223098FDC270
:1012130098E59922C0D0C0E0C00130981EC298E57D
:1012230099B47E08754500D26102123E20610CC05C
:10123300E074802545F9D0E0F70545309904D26381
:10124300C299D001D0E0D0D032C0D0752D50C26247
:10125300D2CA2062433061FA7880E675F002A404B2
:10126300F542AA42788012129EB47E0104F5F0E59D
:10127300424480F8E6B5F0099015CF1211BA021274
:101283008E9015D31211BAC26180C0C261740878FE
:10129300C0F6081470FB7600D0D022C0D0C0F07521
:1012A300F000BA00030212B4E4E61212BB081A807B
:1012B300F1E5F0D0F0D0D022C083C082C0E090121C
:1012C300D065F093F5F0D0E0D082D08322005EBCED
:1012D300E2613FDD83C29C7E20A3FD1F419DC321AC
:1012E3007FFCA2401E5F01E3BD3E6082DC237D9F45
:1012F300C1421CFEA0E1BF5D0380DE3C62BEE00292
:101303005CDF81633D7C22C09E1D43A1FF4618FA2A
:10131300A427799BC584DA3866E5BB5907DB856763
:1013230039BAE406581947A5FB7826C49A653BD910
:1013330087045AB8E6A7F91B45C6987A24F8A64449
:101343001A99C7257B3A6486D85B05E7B98CD230F6
:101353006EEDB3510F4E10F2AC2F7193CD114FAD13
:10136300F3702ECC92D38D6F31B2EC0E50AFF113DC
:101373004DCE90722C6D33D18F0C52B0EE326C8EF9
:10138300D0530DEFB1F0AE4C1291CF2D73CA9476BA
:1013930028ABF517490856B4EA6937D58B5709EBDB
:1013A300B536688AD495CB2977F4AA4816E9B75598
:1013B3000B88D6346A2B7597C94A14F6A8742AC8C1
:1013C30096154BA9F7B6E80A54D7896B350D0A521F
:1013D300696164696163692073797374656D206AF7
:1013E3006520696E696369616C697A6F76616E798C
:1013F3002E0D0A000D0A5A6170696E616D20574403
:10140300542E2E2E0D0A000D0A43616B616D20319F
:10141300302073656B756E642E2E2E0D0A00526993
:101423006164696163692073797374656D206A65AA
:10143300207265696E696369616C697A6F76616E42
:101443007920706F2073746C6163656E6920746CAE
:10145300616369646C612053544F502E0D0A004B35
:10146300616C696272616369612076797461687520
:10147300206A6520756B6F6E63656E612E0D0A00C1
:101483004368796261212056797061646C612073CD
:10149300706F6D616C6F766163696120636C6F6EF1
:1014A3006B61210D0A0043687962612120567970CE
:1014B30061646C69206476652073706F6D616C6F15
:1014C300766163696520636C6F6E6B79210D0A0029
:1014D3004368796261212056797061646C61207A76
:1014E30061737461766F766163696120636C6F6E9B
:1014F3006B61210D0A00436879626121204E656F9B
:1015030063616B6176616E65206E61636974616EA0
:10151300696520686F726E656A2073706F6D616CA8
:101523006F766163656A20636C6F6E6B79210D0A58
:1015330000436879626121204E656F63616B617658
:10154300616E65206E61636974616E696520646FA5
:101553006C6E656A2073706F6D616C6F7661636525
:101563006A20636C6F6E6B79210D0A0043687962A0
:101573006121204E656F63616B6176616E652070DA
:101583006F686E75746965206B6162796E79207A14
:1015930020706F7363686F646961210D0A00537073
:1015A300757374616D204B54502E2E2E0D0A00441A
:1015B3006F736C6F206B207A6D656E65204B545092
:1015C300210D0A0000007E00FD897E00FE6B7E0077
:0415D300FF357E0062
:00000001FF
