:03000000020033C8
:10003300D2B6D2B775330075814079007AFFD9FE05
:10004300DAFC75809B75A083C2B600000000D2B6AF
:1000530075808075A0C3C2B600000000D2B6C2B3DB
:10006300D2AA000075280075211E75220075231E73
:100073007524F07525FFD21812051A75230075240F
:100083000075250012051A752800752100752200D8
:100093001204D51204D5300C11D221D222C223125C
:1000A300051A1204D5300C0280F8753600C222C23C
:1000B30021D22412051AC2B3D2AA0000C22FC22E23
:1000C300C224C225C226C227D22412051A1204C48E
:1000D3001204D5C21912051AE528541C60F2D22065
:1000E300D222C22312051A0200EDC22FC22EC2244D
:1000F300C225C226C227D22412051A1204D5200B08
:10010300020204A900200AF31204D5300AFAD22EFF
:1001130012051A0201191204D5200B020204A900C8
:10012300200AF3D22F12051AE5285404600AD223B9
:10013300C22212051A02013B1204D5200B0202044B
:10014300A9002009F3E5285404606DC220D23AC205
:100153003BC22212051A02015CC22FC22EC224C264
:1001630025C226C227D22512051A1204C41204D5A9
:10017300C21A12051A7418203A01F4F5F053F01A52
:10018300E52855F07014B23AB23BE5F0F4F5F053BC
:10019300F01AE52855F0700280D3203A030201AF2C
:1001A300D220D222C22312051A0201BBD221D222AB
:1001B300C22312051A02022DC22FC22EC224C22547
:1001C300C226C227D22512051A1204D5200B020219
:1001D30004A900200AF31204D5300AFAD22E12051C
:1001E3001A0201E71204D5200B020204A900200A17
:1001F300F3D22F12051AE5285408600AD223C2222B
:1002030012051A0202091204D5200B020204A900E6
:100213002009F3E528540870030202F4C220D23AFD
:10022300C23BC22212051A020295C22FC22EC22459
:10023300C225C226C227D22512051A1204D5200CC4
:100243000202049A00200AE21204D5300AFAD22FDD
:1002530012051A0202591204D5200C0202049A0054
:10026300200AF3D22E12051AE5285402600AD2237B
:10027300C22212051A02027B1204D5200C020204C8
:100283009A002009F3C221D23BC23AC22212051AB4
:1002930001BFC22FC22EC224C225C226C227D22624
:1002A30012051A1204C41204D5C21B12051A7410C3
:1002B300203A01F4F5F053F016E52855F07014B226
:1002C3003AB23BE5F0F4F5F053F016E52855F0703B
:1002D3000280D3203A030202E8D220D222C22312A0
:1002E300051A0202F4D221D222C22312051A0203F2
:1002F3005DC22FC22EC224C225C226C227D2261215
:10030300051A1204D5200B020204A900200AF312D5
:1003130004D5300AFAD22E12051A0203201204D58C
:10032300200B020204A900200AF3D22F12051AE5BA
:10033300285410600AD223C22212051A0203421261
:1003430004D5200B020204A9002009F3C220D23AEB
:10035300C23BC22212051A0203CEC22FC22EC224EE
:10036300C225C226C227D22612051A1204D5200C92
:100373000202049A00200AE21204D5300AFAD22FAC
:1003830012051A0203891204D5200C0202049A00F2
:10039300200AF3D22E12051AE5285404600AD22348
:1003A300C22212051A0203AB1204D5200C02020466
:1003B3009A002009F3E5285404700302022DC22198
:1003C300D23BC23AC22212051A215CC22FC22EC2EC
:1003D30024C225C226C227D22712051A1204C41228
:1003E30004D5C21C12051AE528540E60F2D221D29C
:1003F30022C22312051A0203FCC22FC22EC224C238
:1004030025C226C227D22712051A1204D5200C02B0
:1004130002049A00200AE21204D5300AFAD22F12FB
:10042300051A0204281204D5200C0202049A0020A3
:100433000AF3D22E12051AE5285408600AD223C201
:100443002212051A02044A1204D5200C0202049A4D
:10045300002009F3E5285408700302035DC221D28A
:100463003BC23AC22212051A4195C220C22112058B
:100473001AC2B3D2AA00000000C220C22112051A78
:10048300C2B3D2AA00000000C220C22112051AC2C0
:10049300B3D2AA00000000C220C22112051AC2B3BF
:1004A300D2AA00000000C220C22112051AC2B3D290
:1004B300AA00000000D21812051AC2B3D2AA000083
:1004C30022D22C12051A1204D53013F5C22C1205B0
:1004D3001A2275A08075803FC2B700000000858096
:1004E30028D2B775A0817580FEC2B70000000085D1
:1004F3008021D2B775A08275803FC2B7000000008B
:10050300858022D2B70000000000000000E52854D7
:100513001E422312051A2285238075A0C0C2B6008D
:10052300000000D2B685248075A0C1C2B6000000C9
:1005330000D2B685258075A0C2C2B600000000D2E5
:10054300B60000000000000000220D0A5269616439
:10055300696163692073797374656D206A652069C5
:100563006E696369616C697A6F76616E792E0D0AC3
:100573000052696164696163692073797374656D9D
:10058300206A65207265696E696369616C697A6F57
:1005930076616E7920706F2073746C6163656E6928
:1005A30020746C616369646C612053544F502E0D49
:1005B3000A004B616C6962726163696120767974C8
:1005C300616875206A6520756B6F6E63656E612E59
:0305D3000D0A000E
:00000001FF
