:03000000020033C8
:03000B0002083DAB
:10003300D2B6D2B775330075814079007AFFD9FE05
:10004300DAFC75809B75A083C2B600000000D2B6AF
:1000530075808075A0C3C2B600000000D2B6758853
:1000630001758911758700758A00758C4CD28C7562
:10007300280075211E75220075231E7524F0752531
:10008300FFD218C23812092575230075240075257F
:10009300001209257528007521007522001208CA6F
:1000A300C2B3D2AA00001208CA300C13D221D22242
:1000B300C223C2201209251208CA300C0280F8C2DA
:1000C30022C221D223D2201209251208CA2009FAFA
:1000D300C223C220D224120925C22FC22EC224C297
:1000E30025C226C227D2241209251208861208CA5D
:1000F300C219C228120925200FF3E528541C7008E1
:10010300E522543E700280E5D220D222C223120996
:1001130025020117C22FC22EC224C225C226C2271E
:10012300D2241209251208511208CA3009FA1208FA
:10013300511208CA200B030207F500200903020726
:10014300E000200AEC1208511208CA300AFA120819
:1001530051D22E12092502015C1208CA200B030298
:1001630007F5002009030207D100200AECD22F1261
:1001730009251208511208CA300AFA120851C37429
:10018300007212B00E7242720F72383400702EE594
:100193002233547E78056006C313C313D8F874055D
:1001A300C398B402030201AE0201CA00E528541E3B
:1001B300C3137802C313D8FC60030201CAD223C25B
:1001C300221209250201CA1208CA200B030207F5ED
:1001D30000200A030207EF002009ECC37400721227
:1001E300B00E7242720F72383400C238702EE5229C
:1001F30033547E78056006C313C313D8F87405C35C
:1002030098B4020302020D0202A900E528541EC39A
:10021300137802C313D8FC60030202A9C220D23AA6
:10022300C23BC22212092502022DC22FC22EC224B2
:10023300C225C226C227D225120925120886120812
:10024300CAC21AC22AC229120925200FF179F87AE3
:10025300F8203A06E9F4F9EAF4FAE528541A597051
:1002630027E528541A7007E52254395A701AB23A0E
:10027300B23BE9F4F9EAF4FAE528541A597009E5AE
:100283002254395A700280B6203A0302029DD220CA
:10029300D222C2231209250202A9D221D222C223C9
:1002A3001209250203BFC22FC22EC224C225C226B1
:1002B300C227D2251209251208511208CA3009FA99
:1002C3001208511208CA200B030207F50020090384
:1002D3000207E000200AEC1208511208CA300AFA99
:1002E300120851D22E1209250202EE1208CA200B5F
:1002F300030207F5002009030207D100200AECD20C
:100303002F1209251208511208CA300AFA1208518D
:10031300C374007214B00E7243720F7238340070DB
:100323002EE52233547E78056006C313C313D8F831
:100333007405C398B4030302034002035C00E52879
:10034300541EC3137803C313D8FC600302035CD2A7
:1003530023C22212092502035C1208CA200B0302DE
:1003630007F500200A030207EF002009ECC374001D
:100373007214B00E7243720F72383400C238702E8A
:10038300E52233547E78056006C313C313D8F8748B
:1003930005C398B4030302039F0204C900E528546C
:1003A3001EC3137803C313D8FC60030204C9C2201D
:1003B300D23AC23BC22212092502044DC22FC22ED9
:1003C300C224C225C226C227D225120925120851EA
:1003D3001208CA3009FA1208511208CA200C030283
:1003E30007F2002009030207E000200ACF12085198
:1003F3001208CA300AFA120851D22F120925020430
:10040300041208CA200C030207F2002009030207A2
:10041300D100200AECD22E1209251208511208CA63
:10042300300AFA120851D223C222120925020433D8
:100433001208CA300C0530090280F5C238C221D235
:100443003BC23AC22212092501DCC22FC22EC224AA
:10045300C225C226C227D2261209251208861208EF
:10046300CAC21BC22CC22B120925200FF179F07AC4
:10047300E0203A06E9F4F9EAF4FAE528541659704B
:1004830027E52854167007E52254275A701AB23A02
:10049300B23BE9F4F9EAF4FAE5285416597009E590
:1004A3002254275A700280B6203A030204BDD22098
:1004B300D222C2231209250204C9D221D222C22385
:1004C300120925020558C22FC22EC224C225C226F4
:1004D300C227D2261209251208511208CA3009FA76
:1004E3001208511208CA200B030207F50020090362
:1004F3000207E000200AEC1208511208CA300AFA77
:10050300120851D22E12092502050E1208CA200B19
:10051300030207F5002009030207D100200AECD2E9
:100523002F1209251208511208CA300AFA1208516B
:10053300D223C22212092502053D1208CA300B0537
:1005430030090280F5C238C220D23AC23BC222121D
:100553000925020677C22FC22EC224C225C226C293
:1005630027D2261209251208511208CA3009FA1295
:1005730008511208CA200C030207F20020090302E3
:1005830007E000200ACF1208511208CA300AFA12F3
:100593000851D22F12092502059D1208CA200C0307
:1005A3000207F2002009030207D100200AECD22E31
:1005B3001209251208511208CA300AFA120851C347
:1005C30074007211B00E7242720F723834007033BD
:1005D300E52233547E78056006C333C333D8F8E885
:1005E300B402030205EC020610007405C39402F87A
:1005F300E528541EC333C333C333C333D8FC60036A
:10060300020610D223C2221209250206101208CABA
:10061300200C030207F200200A030207EF0020095F
:10062300ECC374007211B00E7242720F7238340050
:10063300C2387033E52233547E78056006C333C372
:1006430033D8F8E8B402030206500203BF0074056E
:10065300C39402F8E528541EC333C333C333C333EF
:10066300D8FC60030203BFC221D23BC23AC22212AA
:100673000925412DC22FC22EC224C225C226C2275C
:10068300D2271209251208861208CAC21CC22D12CB
:100693000925200FF3E528540E7008E522541F7036
:1006A3000280E5D221D222C2231209250206B2C258
:1006B3002FC22EC224C225C226C227D22712092541
:1006C3001208511208CA3009FA1208511208CA2036
:1006D3000C030207F2002009030207E000200ACFFF
:1006E3001208511208CA300AFA120851D22F1209FD
:1006F300250206F71208CA200C030207F20020099C
:10070300030207D100200AECD22E12092512085148
:100713001208CA300AFA120851C374007213B00ED9
:100723007243720F723834007033E52233547E788B
:10073300056006C333C333D8F8E8B403030207469E
:1007430002076A007405C39403F8E528541EC333F3
:10075300C333C333C333D8FC600302076AD223C253
:100763002212092502076A1208CA200C030207F2A3
:1007730000200A030207EF002009ECC37400721380
:10078300B00E7243720F72383400C2387033E522F0
:1007930033547E78056006C333C333D8F8E8B40313
:1007A300030207AA020558007405C39403F8E52859
:1007B300541EC333C333C333C333D8FC60030205AE
:1007C30058C221D23BC23AC222120925814D1208D6
:1007D300511208CA3009FA1208510207F8120851D7
:1007E3001208CA3009FA1208510207F80207F80280
:1007F30007F80207F8D22FD22EC222D223120925DC
:100803001208CA300B08300C0530090280F2C220EE
:10081300C221C222C223120925120886020822120B
:1008230008CA200DFA200FF7200EF4020033D21865
:10083300120925C2B3D2AA000022C0E0ED1D600256
:100843008009EEFDB22FB22E120925D0E032796372
:100853007AFFDAFE7AFFDAFE7A24DAFE00D9F1793A
:100863002AD9FE22D238C222C22374E152231209AA
:100873002512088612088EE528541E60F7D223122B
:100883000925227B10120851DBFB2275A08075809D
:100893003FC2B700000000858028D2B775A08175DC
:1008A30080FEC2B700000000858021D2B775A08208
:1008B30075803FC2B700000000858022D2B70000D8
:1008C3000000000000002275A08075803FC2B700C1
:1008D300000000858028D2B775A0817580FEC2B75D
:1008E30000000000858021D2B775A08275803FC2C9
:1008F300B700000000858022D2B70000000000008E
:100903000000300F04C222D223204003120867E5FF
:1009130028541E4223120925E522543F4225120979
:10092300252285238075A0C0C2B600000000D2B680
:1009330085248075A0C1C2B600000000D2B685250B
:100943008075A0C2C2B600000000D2B6000000004D
:1009530000000000220D0A52696164696163692025
:1009630073797374656D206A6520696E6963696163
:100973006C697A6F76616E792E0D0A005269616433
:10098300696163692073797374656D206A65207288
:1009930065696E696369616C697A6F76616E7920E6
:1009A300706F2073746C6163656E6920746C61632E
:1009B30069646C612053544F502E0D0A004B616CD7
:1009C3006962726163696120767974616875206A0E
:0E09D3006520756B6F6E63656E612E0D0A00F8
:00000001FF
