:03000000020033C8
:10003300D2B6D2B775330075814079007A01D9FE03
:10004300DAFC75809B75A083C2B600000000D2B6AF
:1000530075808075A0C3C2B600000000D2B67528B3
:100063000075211E75220075231E7524F07525FF6A
:10007300D21812016F752300752400752500120133
:100083006F12012B752800752100752200120132B1
:10009300120132300C0FD221D22212016F1201321F
:1000A300300C0280F8753600C222C221D22412011C
:1000B3006F12012B120132E528541CC21912016F71
:1000C30060F2D220D22212016F0200CF120132203D
:1000D3000AFA120132300AFAD22E12016F0200E339
:1000E300120132200AFAD22F12016F0200F112011B
:1000F300322009FAC22FC22E12016F020101C2205F
:10010300C222C224D225C226C22712016F020120B5
:100113001201322009FAC220C22212016FC2B3D2E5
:10012300AA00D21812016F221201323011FA22757D
:10013300A08075803FC2B700000000858028D2B739
:1001430075A0817580FEC2B700000000858021D2B2
:10015300B775A08275803FC2B7000000008580227A
:10016300D2B7E528541E422312016F2285238075DE
:10017300A0C0C2B600000000D2B685248075A0C11D
:10018300C2B600000000D2B685258075A0C2C2B6F3
:1001930000000000D2B6220D0A52696164696163EE
:1001A300692073797374656D206A6520696E69636C
:1001B30069616C697A6F76616E792E0D0A005269F6
:1001C3006164696163692073797374656D206A651D
:1001D300207265696E696369616C697A6F76616EB5
:1001E3007920706F2073746C6163656E6920746C21
:1001F300616369646C612053544F502E0D0A004BA8
:10020300616C696272616369612076797461687592
:10021300206A6520756B6F6E63656E612E0D0A0033
:00000001FF
