:03000000020033C8
:03000B000207C227
:10003300D2B6D2B775330075814079007AFFD9FE05
:10004300DAFC75809B75A083C2B600000000D2B6AF
:1000530075808075A0C3C2B600000000D2B6C28E00
:10006300759852758801758921758700758BFA75A6
:100073008DFA758A00758C4CD28CD28E75280075DA
:10008300211E75220075231E7524F07525FFD218D5
:10009300C2381208CD752300752400752500120897
:1000A300CD75280075210075220012086E9009177E
:1000B30012090412086E300C13D221D222C223C2B9
:1000C300201208CD12086E300C0280F8C222C22121
:1000D300D223D2201208CD12086E2009FAC223C2FD
:1000E30020D2241208CD9009171209047D007E1432
:1000F300D2A9C22FC22EC224C225C226C227D2240D
:100103001208CD12082612086EC219C2281208CD91
:10011300200FF3E528541C7008E522543E7002803A
:10012300E5D220D222C2231208CD020130C22FC24F
:100133002EC224C225C226C227D2241208CD1207FA
:10014300F112086E3009FA1207F112086E200B0340
:100153000207740020090302074D00200AEC12076E
:10016300F112086E300AFA1207F1D22E1208CD02EC
:10017300017512086E200B030207740020090302A5
:10018300073800200AECD22F1208CD1207F112080B
:100193006E300AFA1207F1C374007212B00E724283
:1001A300720F72383400702EE52233547E78056066
:1001B30006C313C313D8F87405C398B4020302012A
:1001C300C70201E300E528541EC3137802C313D802
:1001D300FC60030201E3D223C2221208CD0201FA1A
:1001E30012086E200B0302077400200A0302076241
:1001F300002009EC02029812086E200B0302077418
:1002030000200A03020762002009ECC220D23AC28E
:100213003BC2221208CD02021CC22FC22EC224C22C
:1002230025C226C227D2251208CD12082612086E2F
:10023300C21AC22AC2291208CD200FF179F87AF81E
:10024300203A06E9F4F9EAF4FAE528541A59702732
:10025300E528541A7007E52254395A701AB23AB293
:100263003BE9F4F9EAF4FAE528541A597009E5224E
:1002730054395A700280B6203A0302028CD220D23B
:1002830022C2231208CD020298D221D222C2231203
:1002930008CD020384C22FC22EC224C225C226C2A5
:1002A30027D2251208CD1207F112086E3009FA126F
:1002B30007F112086E200B030207740020090302E2
:1002C300074D00200AEC1207F112086E300AFA12E9
:1002D30007F1D22E1208CD0202DD12086E200B03A5
:1002E3000207740020090302073800200AECD22F0A
:1002F3001208CD1207F112086E300AFA1207F1C381
:1003030074007214B00E7243720F72383400702E80
:10031300E52233547E78056006C313C313D8F874FB
:1003230005C398B4030302032F02034B00E52854CB
:100333001EC3137803C313D8FC600302034BD223F9
:10034300C2221208CD02036212086E200B030207B9
:100353007400200A03020762002009EC02048E12D3
:10036300086E200B0302077400200A0302076200D1
:100373002009ECC220D23AC23BC2221208CD0204A9
:1003830012C22FC22EC224C225C226C227D22512D0
:1003930008CD1207F112086E3009FA1207F112089C
:1003A3006E200C0302076B0020090302074D002097
:1003B3000ACF1207F112086E300AFA1207F1D22F90
:1003C3001208CD0203C912086E200C0302076B004A
:1003D30020090302073800200AECD22E1208CD129E
:1003E30007F112086E300AFA1207F1D223C2221261
:1003F30008CD0203F812086E300C0530090280F5AF
:10040300C238C221D23BC23AC2221208CD01F5C280
:100413002FC22EC224C225C226C227D2261208CD3D
:1004230012082612086EC21BC22CC22B1208CD2042
:100433000FF179F07AE0203A06E9F4F9EAF4FAE503
:10044300285416597027E52854167007E5225427B7
:100453005A701AB23AB23BE9F4F9EAF4FAE52854CD
:1004630016597009E52254275A700280B6203A03C0
:10047300020482D220D222C2231208CD02048ED2D9
:1004830021D222C2231208CD02051DC22FC22EC2C1
:1004930024C225C226C227D2261208CD1207F11282
:1004A300086E3009FA1207F112086E200B030207D7
:1004B300740020090302074D00200AEC1207F11211
:1004C300086E300AFA1207F1D22E1208CD0204D3B5
:1004D30012086E200B030207740020090302073879
:1004E30000200AECD22F1208CD1207F112086E3049
:1004F3000AFA1207F1D223C2221208CD0205021210
:10050300086E300B0530090280F5C238C220D23A9A
:10051300C23BC2221208CD02060DC22FC22EC22434
:10052300C225C226C227D2261208CD1207F112080D
:100533006E3009FA1207F112086E200C0302076BE2
:100543000020090302074D00200ACF1207F1120809
:100553006E300AFA1207F1D22F1208CD0205621289
:10056300086E200C0302076B002009030207380002
:10057300200AECD22E1208CD1207F112086E300AAF
:10058300FA1207F1C374007211B00E7242720F7245
:100593003834007033E52233547E78056006C33364
:1005A300C333D8F8E8B402030205B10205D50074D9
:1005B30005C39402F8E528541EC333C333C333C3BE
:1005C30033D8FC60030205D5D223C2221208CD0220
:1005D30005EC12086E200C0302076B00200A0302CD
:1005E3000762002009EC02038412086E200C030248
:1005F300076B00200A03020762002009ECC221D224
:100603003BC23AC2221208CD411CC22FC22EC224C1
:10061300C225C226C227D2271208CD1208261208E5
:100623006EC21CC22D1208CD200FF3E528540E70A4
:1006330008E522541F700280E5D221D222C2231280
:1006430008CD020648C22FC22EC224C225C226C22A
:1006530027D2271208CD1207F112086E3009FA12B9
:1006630007F112086E200C0302076B002009030236
:10067300074D00200ACF1207F112086E300AFA1252
:1006830007F1D22F1208CD02068D12086E200C033B
:1006930002076B0020090302073800200AECD22E60
:1006A3001208CD1207F112086E300AFA1207F1C3CD
:1006B30074007213B00E7243720F723834007033C9
:1006C300E52233547E78056006C333C333D8F8E894
:1006D300B403030206DC020700007405C39403F8A5
:1006E300E528541EC333C333C333C333D8FC600379
:1006F300020700D223C2221208CD02071712086E86
:10070300200C0302076B00200A0302076200200982
:10071300EC02051D12086E200C0302076B00200A71
:1007230003020762002009ECC221D23BC23AC22273
:100733001208CD81121207F112086E3009FA12075E
:10074300F19009A012090402077D1207F112086E45
:100753003009FA1207F19009C612090402077D90C5
:1007630009F012090402077D900A511209040207D5
:100773007D900A1612090402077DD22FD22EC222BF
:10078300D2231208CD12086E300B08300C05300945
:100793000280F2C220C221C222C2231208CD120853
:1007A300260207A712086E200DFA200FF7200EF479
:1007B300020033D2181208CDC2B3D2AA000022C05D
:1007C300E0C080C090C0A0C0B0ED1D60028014EEF8
:1007D300FDB22FB22E85258075A0C2C2B6000000DF
:1007E30000D2B6D0B0D0A0D090D080D0E032796320
:1007F3007AFFDAFE7AFFDAFE7A24DAFE00D9F1799B
:100803002AD9FE22D238C222C22374E1522312080B
:10081300CD12082612082EE528541E60F7D22312A3
:1008230008CD227B101207F1DBFB22C2AF75A0803B
:1008330075803FC2B700000000858028D2B775A03D
:10084300817580FEC2B700000000858021D2B77594
:10085300A08275803FC2B700000000858022D2B716
:100863000000000000000000D2AF22C2AF75A080DC
:1008730075803FC2B700000000858028D2B775A0FD
:10088300817580FEC2B700000000858021D2B77554
:10089300A08275803FC2B700000000858022D2B7D6
:1008A3000000000000000000D2AF300F04C222D2CB
:1008B30023204003120807E528541E42231208CDC3
:1008C300E522543F42251208CD22C2AF852380750D
:1008D300A0C0C2B600000000D2B685248075A0C1B6
:1008E300C2B600000000D2B685258075A0C2C2B68C
:1008F30000000000D2B60000000000000000D2AFEC
:1009030022C0E0E493600AF5993099FDC299A3806F
:10091300F2D0E0220D0A5269616469616369207350
:10092300797374656D206A6520696E696369616CAA
:10093300697A6F76616E792E0D0A00526961646976
:100943006163692073797374656D206A65207265CC
:10095300696E696369616C697A6F76616E7920701B
:100963006F2073746C6163656E6920746C61636975
:10097300646C612053544F502E0D0A004B616C6917
:1009830062726163696120767974616875206A6552
:1009930020756B6F6E63656E612E0D0A0043687977
:1009A3006261212056797061646C612073706F6D90
:1009B300616C6F766163696120636C6F6E6B61213B
:1009C3000D0A004368796261212056797061646C75
:1009D30069206476652073706F6D616C6F766163F7
:1009E300696520636C6F6E6B79210D0A004368792A
:1009F3006261212056797061646C61207A6173743D
:100A030061766F766163696120636C6F6E6B6121E0
:100A13000D0A00436879626121204E656F63616B43
:100A23006176616E65206E61636974616E696520CC
:100A3300686F726E656A2073706F6D616C6F76613B
:100A430063656A20636C6F6E6B79210D0A004368DE
:100A530079626121204E656F63616B6176616E65BA
:100A6300206E61636974616E696520646F6C6E6585
:100A73006A2073706F6D616C6F766163656A206362
:090A83006C6F6E6B79210D0A0005
:00000001FF
