:03000000020033C8
:10003300D2B6D2B775330075814079007AFFD9FE05
:10004300DAFC75809B75A083C2B600000000D2B6AF
:1000530075808075A0C3C2B600000000D2B6C2B3DB
:10006300D2AA000075280075211E75220075231E73
:100073007524F07525FFD2181204DB75230075244F
:10008300007525001204DB75280075210075220018
:10009300120496120496300C11D221D222C22312DA
:1000A30004DB120496300C0280F8753600C222C2BB
:1000B30021D2241204DBC2B3D2AA0000C22FC22E63
:1000C300C224C225C226C227D2241204DB1204850D
:1000D300120496C2191204DBE528541C60F2D220E4
:1000E300D222C2231204DB0200EDC22FC22EC2248D
:1000F300C225C226C227D2241204DB120496200B87
:100103000202046A00200AF3120496300AFAD22E7D
:100113001204DB020119120496200B0202046A0086
:10012300200AF3D22F1204DBE5285404600AD223F9
:10013300C2221204DB02013B120496200B020204CA
:100143006A002009F3E5285404606DC220D23AC244
:100153003BC2221204DB02015CC22FC22EC224C2A4
:1001630025C226C227D2251204DB12048512049667
:10017300C21A1204DB7418203A01F4F5F053F01A92
:10018300E52855F07014B23AB23BE5F0F4F5F053BC
:10019300F01AE52855F0700280D3203A030201AF2C
:1001A300D220D222C2231204DB0201BBD221D222EB
:1001B300C2231204DB02022DC22FC22EC224C22587
:1001C300C226C227D2251204DB120496200B020298
:1001D300046A00200AF3120496300AFAD22E12049B
:1001E300DB0201E7120496200B0202046A00200AD4
:1001F300F3D22F1204DBE5285408600AD223C2226B
:100203001204DB020209120496200B0202046A00A4
:100213002009F3E528540870030202DFC220D23A12
:10022300C23BC2221204DB020280C22FC22EC224AE
:10023300C225C226C227D2251204DB120496200A45
:10024300E9120496300AFAD22F1204DB0202521288
:100253000496200AFAD22E1204DBE5285402600A1F
:10026300D223C2221204DB02026D1204962009FA81
:10027300C221D23BC23AC2221204DB01BFC22FC247
:100283002EC224C225C226C227D2261204DB1204A0
:1002930085120496C21B1204DB7410203A01F4F594
:1002A300F053F016E52855F07014B23AB23BE5F07E
:1002B300F4F5F053F016E52855F0700280D3203A98
:1002C300030202D3D220D222C2231204DB0202DFB2
:1002D300D221D222C2231204DB020348C22FC22E30
:1002E300C224C225C226C227D2261204DB120496D8
:1002F300200B0202046A00200AF3120496300AFA61
:10030300D22E1204DB02030B120496200B0202040A
:100313006A00200AF3D22F1204DBE5285410600A86
:10032300D223C2221204DB02032D120496200B02F5
:1003330002046A002009F3C220D23AC23BC222124D
:1003430004DB0203A4C22FC22EC224C225C226C2CA
:1003530027D2261204DB120496200AE912049630EF
:100363000AFAD22F1204DB02036D120496200AFA52
:10037300D22E1204DBE5285404600AD223C22212CF
:1003830004DB0203881204962009FAE5285404705A
:100393000302022DC221D23BC23AC2221204DB2144
:1003A3005CC22FC22EC224C225C226C227D2271264
:1003B30004DB120485120496C21C1204DBE52854E4
:1003C3000E60F2D221D222C2231204DB0203D2C274
:1003D3002FC22EC224C225C226C227D2271204DB73
:1003E300120496200AE9120496300AFAD22F120454
:1003F300DB0203F7120496200AFAD22E1204DBE57D
:10040300285408600AD223C2221204DB0204121207
:1004130004962009FAE52854087003020348C22110
:10042300D23BC23AC2221204DB4180C220C2211253
:1004330004DBC2B3D2AA00000000C220C22112040E
:10044300DBC2B3D2AA00000000C220C2211204DB27
:10045300C2B3D2AA00000000C220C2211204DBC230
:10046300B3D2AA00000000C220C2211204DBC2B32F
:10047300D2AA00000000D2181204DBC2B3D2AA0031
:100483000022D22C1204DB1204963013F5C22C1274
:1004930004DB2275A08075803FC2B7000000008591
:1004A3008028D2B775A0817580FEC2B70000000016
:1004B300858021D2B775A08275803FC2B700000046
:1004C30000858022D2B70000000000000000E5286C
:1004D300541E42231204DB2285238075A0C0C2B6BA
:1004E30000000000D2B685248075A0C1C2B600000A
:1004F3000000D2B685258075A0C2C2B600000000F8
:10050300D2B60000000000000000220D0A5269610B
:1005130064696163692073797374656D206A65200A
:10052300696E696369616C697A6F76616E792E0DA4
:100533000A00526961646961636920737973746540
:100543006D206A65207265696E696369616C697A99
:100553006F76616E7920706F2073746C6163656E62
:100563006920746C616369646C612053544F502E2D
:100573000D0A004B616C696272616369612076796F
:1005830074616875206A6520756B6F6E63656E6153
:040593002E0D0A001F
:00000001FF
