:03000000020033C8
:10003300D2B6D2B775330075814079007AFFD9FE05
:10004300DAFC75809B75A083C2B600000000D2B6AF
:1000530075808075A0C3C2B600000000D2B6C2B3DB
:10006300D2AA000075280075211E75220075231E73
:100073007524F07525FFD2181205897523007524A0
:100083000075250012058975280075210075220069
:10009300120544120544300C11D221D222C223127C
:1000A3000589120544300C0280F8753600C222C25D
:1000B30021D224120589C2B3D2AA0000C22FC22EB4
:1000C300C224C225C226C227D224120589120533AF
:1000D300120544C219120589E528541C60F2D22086
:1000E300D222C2231205890200EDC22FC22EC224DE
:1000F300C225C226C227D22412058912054430091B
:10010300FA120544200B0202050F00200AF3120520
:1001130044300AFAD22E12058902011F1205442027
:100123000B0202050F002009020204D300200AEC8F
:10013300D22F120589E5285404600AD223C2221261
:100143000589020148120544200B0202050F002015
:100153000A020204F1002009ECE5285404606DC290
:1001630020D23AC23BC222120589020170C22FC2B9
:100173002EC224C225C226C227D225120589120502
:1001830033120544C21A1205897418203A01F4F592
:10019300F053F01AE52855F07014B23AB23BE5F08B
:1001A300F4F5F053F01AE52855F0700280D3203AA5
:1001B300030201C3D220D222C2231205890201CF36
:1001C300D221D222C223120589020255C22FC22E86
:1001D300C224C225C226C227D2251205891205448C
:1001E3003009FA120544200B0202050F00200AF31E
:1001F300120544300AFAD22E1205890202011205B1
:1002030044200B0202050F002009020204D3002040
:100213000AECD22F120589E5285408600AD223C2BA
:100223002212058902022A120544200B0202050F3D
:1002330000200A020204F1002009ECE528540870AA
:1002430003020327C220D23AC23BC222120589020B
:1002530002C8C22FC22EC224C225C226C227D2255B
:100263001205891205443009FA120544200C0202D2
:10027300050000200ADC120544300AFAD22F1205C9
:1002830089020287120544200C020205000020099E
:10029300020204D300200AECD22E120589E5285469
:1002A30002600AD223C2221205890202B012054457
:1002B300300C0530090280F5C221D23BC23AC2227A
:1002C30012058901BFC22FC22EC224C225C226C273
:1002D30027D226120589120533120544C21B1205C3
:1002E300897410203A01F4F5F053F016E52855F01F
:1002F3007014B23AB23BE5F0F4F5F053F016E5288A
:1003030055F0700280D3203A0302031BD220D2227D
:10031300C223120589020327D221D222C223120546
:100323008902039BC22FC22EC224C225C226C22722
:10033300D2261205891205443009FA120544200B0E
:100343000202050F00200AF3120544300AFAD22EE6
:10035300120589020359120544200B0202050F00FE
:100363002009020204D300200AECD22F120589E5EA
:10037300285410600AD223C2221205890203821272
:100383000544300B0530090280F5C220D23AC23B46
:10039300C222120589020420C22FC22EC224C22502
:1003A300C226C227D2261205891205443009FA1241
:1003B3000544200C0202050000200ADC120544302B
:1003C3000AFAD22F1205890203CD120544200C022A
:1003D300020500002009020204D300200AECD22EF9
:1003E300120589E5285404600AD223C22212058922
:1003F3000203F6120544200C0202050000200A0243
:100403000204F1002009ECE52854047003020255AC
:10041300C221D23BC23AC2221205892170C22FC225
:100423002EC224C225C226C227D22712058912054D
:1004330033120544C21C120589E528540E60F2D21A
:1004430021D222C22312058902044EC22FC22EC218
:1004530024C225C226C227D2271205891205443099
:1004630009FA120544200C0202050000200ADC12DE
:100473000544300AFAD22F1205890204801205447A
:10048300200C02020500002009020204D300200A06
:10049300ECD22E120589E5285408600AD223C22221
:1004A3001205890204A9120544200C02020500006A
:1004B300200A020204F1002009ECE5285408700325
:1004C30002039BC221D23BC23AC22212058941C810
:1004D300C220C221120589C2B3D2AA00000000C201
:1004E30020C221120589C2B3D2AA00000000C22093
:1004F300C221120589C2B3D2AA00000000C220C2E1
:1005030021120589C2B3D2AA00000000C220C22171
:10051300120589C2B3D2AA00000000D218120589BD
:10052300C2B3D2AA00002279007AFFD9FEDAFC22F4
:10053300D22C1205891205443013F5C22C120589F9
:100543002275A08075803FC2B70000000085802817
:10055300D2B775A0817580FEC2B700000000858008
:1005630021D2B775A08275803FC2B7000000008515
:100573008022D2B70000000000000000E528541ECE
:1005830042231205892285238075A0C0C2B60000CC
:100593000000D2B685248075A0C1C2B60000000059
:1005A300D2B685258075A0C2C2B600000000D2B6BF
:1005B3000000000000000000220D0A526961646916
:1005C3006163692073797374656D206A6520696E50
:1005D300696369616C697A6F76616E792E0D0A00C1
:1005E30052696164696163692073797374656D200D
:1005F3006A65207265696E696369616C697A6F7691
:10060300616E7920706F2073746C6163656E69200D
:10061300746C616369646C612053544F502E0D0AEE
:10062300004B616C69627261636961207679746100
:100633006875206A6520756B6F6E63656E612E0D3C
:020643000A00AB
:00000001FF
