:03000000020033C8
:10003300D2B6D2B775330075814079007AFFD9FE05
:10004300DAFC75809B75A083C2B600000000D2B6AF
:1000530075808075A0C3C2B600000000D2B6C2B3DB
:10006300D2AA000075280075211E75220075231E73
:100073007524F07525FFD21812078E752300752499
:100083000075250012078E75280075210075220062
:10009300120740120740300C11D221D222C2231280
:1000A300078E120740300C0280F8C222C221D223ED
:1000B300D22012078E1207402009FAC223C220D28F
:1000C3002412078EC22FC22EC224C225C226C227E3
:1000D300D22412078E120727120740C219C2281210
:1000E300078EE528541C7008E522543E700280E810
:1000F300D220D222C22312078E0200FFC22FC22EA9
:10010300C224C225C226C227D22412078E12071187
:100113001207403009FA120711120740200B03029D
:1001230006F6002009030206C900200AEC12071193
:10013300120740300AFA120711D22E12078E02015B
:1001430044120740200B030206F6002009030206AF
:10015300BA00200AECD22F12078E120711120740A1
:10016300300AFA120711E5285404600AD223C22286
:1001730012078E020179120740200B030206F600D4
:10018300200A030206D8002009ECC37400724272ED
:1001930012B00E720F3400702EE52233547E7805B0
:1001A3006006C313C313D8F87405C398B4020302DB
:1001B30001B802025100E528541EC3137802C31389
:1001C300D8FC6003020251C220D23AC23BC22212BF
:1001D300078E0201D8C22FC22EC224C225C226C254
:1001E30027D22512078E120727120740C21AC22AE6
:1001F300C22912078E79F87AF8203A06E9F4F9EA67
:10020300F4FAE528541A597027E528541A7007E5BB
:100213002254395A701AB23AB23BE9F4F9EAF4FAC1
:10022300E528541A597009E52254395A700280B9E5
:10023300203A03020245D220D222C22312078E02A1
:100243000251D221D222C22312078E02032AC22FC5
:10025300C22EC224C225C226C227D22512078E125D
:1002630007111207403009FA120711120740200B39
:10027300030206F6002009030206C900200AEC1255
:100283000711120740300AFA120711D22E12078EF5
:10029300020296120740200B030206F60020090310
:1002A3000206BA00200AECD22F12078E120711128F
:1002B3000740300AFA120711E5285408600AD223CE
:1002C300C22212078E0202CB120740200B03020642
:1002D300F600200A030206D8002009ECC37400725A
:1002E300437214B00E720F3400702EE52233547E25
:1002F30078056006C313C313D8F87405C398B40311
:100303000302030A02043500E528541EC3137803CD
:10031300C313D8FC6003020435C220D23AC23BC2E5
:100323002212078E0203BCC22FC22EC224C225C2D0
:1003330026C227D22512078E120711120740300951
:10034300FA120711120740200C030206E7002009E6
:10035300030206C900200ACF120711120740300A10
:10036300FA120711D22F12078E02036F12074020D1
:100373000C030206E7002009030206BA00200AEC78
:10038300D22E12078E120711120740300AFA1207F3
:1003930011E5285402600AD223C22212078E0203F7
:1003A300A4120740300C0530090280F5C221D23B6C
:1003B300C23AC22212078E01C7C22FC22EC224C262
:1003C30025C226C227D22612078E120727120740FC
:1003D300C21BC22CC22B12078E79F07AE0203A0698
:1003E300E9F4F9EAF4FAE5285416597027E5285494
:1003F300167007E52254275A701AB23AB23BE9F451
:10040300F9EAF4FAE5285416597009E52254275AF3
:10041300700280B9203A03020429D220D222C223D7
:1004230012078E020435D221D222C22312078E0272
:1004330004C8C22FC22EC224C225C226C227D22676
:1004430012078E1207111207403009FA1207111210
:100453000740200B030206F6002009030206C90029
:10046300200AEC120711120740300AFA120711D2C0
:100473002E12078E02047A120740200B030206F69F
:10048300002009030206BA00200AECD22F12078EBD
:10049300120711120740300AFA120711E528541007
:1004A300600AD223C22212078E0204AF1207403021
:1004B3000B0530090280F5C220D23AC23BC2221298
:1004C300078E0205A5C22FC22EC224C225C226C290
:1004D30027D22612078E1207111207403009FA128B
:1004E3000711120740200C030206E700200903024C
:1004F30006C900200ACF120711120740300AFA1268
:100503000711D22F12078E02050D120740200C038C
:100513000206E7002009030206BA00200AECD22EE5
:1005230012078E120711120740300AFA120711E55B
:10053300285404600AD223C22212078E02054212F3
:100543000740200C030206E700200A030206D80036
:100553002009ECC3740072427211B00E720F3400A2
:100563007033E52233547E78056006C333C333D832
:10057300F8E8B4020302057E02032A007405C3945B
:1005830002F8E528541EC333C333C333C333D8FC43
:10059300600302032AC221D23BC23AC22212078E4F
:1005A30021D8C22FC22EC224C225C226C227D227D7
:1005B30012078E120727120740C21CC22D12078E84
:1005C300E528540E7008E522541F700280E8D221FA
:1005D300D222C22312078E0205DDC22FC22EC224ED
:1005E300C225C226C227D22712078E12071112076D
:1005F300403009FA120711120740200C030206E7E4
:10060300002009030206C900200ACF1207111207AE
:1006130040300AFA120711D22F12078E0206221255
:100623000740200C030206E7002009030206BA0074
:10063300200AECD22E12078E120711120740300A3D
:10064300FA120711E5285408600AD223C2221207BE
:100653008E020657120740200C030206E700200A09
:10066300030206D8002009ECC3740072437213B06E
:100673000E720F34007033E52233547E7805600622
:10068300C333C333D8F8E8B403030206930204C8A0
:10069300007405C39403F8E528541EC333C333C35E
:1006A30033C333D8FC60030204C8C221D23BC23A2D
:1006B300C22212078E61BCC220C22112078EC2B3AE
:1006C300D2AA00000000C220C22112078EC2B3D2F8
:1006D300AA00000000C220C22112078EC2B3D2AA10
:1006E30000000000C220C22112078EC2B3D2AA00AA
:1006F300000000C220C22112078EC2B3D2AA00009A
:100703000000D21812078EC2B3D2AA000022796366
:100713007AFFDAFE7AFFDAFE7A24DAFE00D9F1797B
:100723002AD9FE227B10120711DBFB22D22C1207DF
:100733008E1207403013EDC22C12078E2275A08053
:1007430075803FC2B700000000858028D2B775A02E
:10075300817580FEC2B700000000858021D2B77585
:10076300A08275803FC2B700000000858022D2B707
:100773000000000000000000E528541E4223120779
:100783008EE522543F422512078E2285238075A0D1
:10079300C0C2B600000000D2B685248075A0C1C2D5
:1007A300B600000000D2B685258075A0C2C2B6008F
:1007B300000000D2B60000000000000000220D0A75
:1007C30052696164696163692073797374656D202B
:1007D3006A6520696E696369616C697A6F76616EB7
:1007E300792E0D0A00526961646961636920737926
:1007F3007374656D206A65207265696E69636961EA
:100803006C697A6F76616E7920706F2073746C6196
:1008130063656E6920746C616369646C6120535411
:100823004F502E0D0A004B616C69627261636961FE
:1008330020767974616875206A6520756B6F6E63C5
:07084300656E612E0D0A0035
:00000001FF
