:03000000020033C8
:03000B00020FBD24
:10003300D2B6D2B775330075814079007AFFD9FE05
:10004300DAFC75809B75A083C2B600000000D2B6AF
:1000530075808075A0C3C2B600000000D2B6C28E00
:10006300759852758801758921758740758B007560
:100073008DFA758A00758C4CD28CD28E75280075DA
:10008300211E75220075231E7524F07525FFD218D5
:10009300C2381210D3752300752400752500121081
:1000A300D3752800752100752200121074752A007B
:1000B300752B0090111D12110A121074300C13D2FB
:1000C30021D222C223C2201210D3121074300C0288
:1000D30080F8C222C221D223D2201210D31210746C
:1000E3002009FAC223C220D2241210D390111D1268
:1000F300110A7D007E14D2A9753C1E753D00753E24
:100103000090129212110A633C03E53D623CE53C08
:10011300B41D0302011C020FA100741D3099FDC21E
:1001230099F5994325C053240FD2241210D3C23812
:1001330012102C121074C219C2281210D3200FF3FC
:10014300E528852AF063F0FF55F0541C7026E5225C
:10015300543EA2E1B05292E1A2E2B05292E2A2E393
:10016300B05392E3A2E4B05392E4A2E5B05492E513
:10017300700280BFD220D222C2231210D302018385
:10018300633C09E53CB41403020191020FA100751D
:100193003D1B74143099FDC299F5994325C053242E
:1001A3000FD2241210D3120FF71210743009FA125F
:1001B3000FF7121074200B03020F5F0020091B308E
:1001C3004204C222D223D238D252D2590539C21A9A
:1001D300C22AC2291210D30204A600200AD4C25292
:1001E300C25900120FF7121074300AFA120FF7D225
:1001F3002E1210D30201FA633C16E53CB40203024B
:100203000208020FA100753D0D74023099FDC299D9
:10021300F599120FF7121074300AFA120FF7121031
:1002230074200B03020F5F0020091B304204C2221B
:10023300D223D238D252D2590539C21AC22AC2297C
:100243001210D30204A600200AD4C252C25900D20B
:100253002F1210D3120FF7121074300AFA120FF77D
:10026300633C0EE53CB40C03020271020FA100745F
:100273000C3099FDC299F599C374007212B00E72D5
:1002830042B052720F723834007054E52233547EF8
:10029300A2E2B05292E2A2E3B05292E3A2E4B053DC
:1002A30092E4A2E5B05392E5A2E6B05492E6780553
:1002B3006006C313C313D8F87405C398B4020302CA
:1002C30002C80202EC00E528541E852AF063F0FF01
:1002D30055F0C3137802C313D8FC60030202ECD2B7
:1002E30023C2221210D3020345633C0AE53CB40641
:1002F300030202FA020FA100753D09753E0E740652
:100303003099FDC299F599120FF7121074300AFA59
:10031300120FF7121074200B03020F5F00200A1B49
:10032300304204C222D223D238D252D25A0536C224
:100333001AC22AC2291210D3020524002009D402AA
:1003430004A6633C10E53CB41C03020353020FA153
:1003530000753D09753E14741C3099FDC299F599D9
:10036300121074200B03020F5F00200A1B3042049B
:10037300C222D223D238D252D25A0536C21AC22A44
:10038300C2291210D3020524002009D4C220D23A74
:10039300C23BC2221210D302039D633C1AE53D62A5
:1003A3003CE53CB40F030203AF020FA100753D000F
:1003B300753E1E740F3099FDC299F5994325C053BC
:1003C300240FD2251210D3C23812102C121074C26B
:1003D3001AC22AC2291210D3200FF1782A79F87A87
:1003E300F8203A0AE9F4F9EAF4FAE86401F8E528AE
:1003F30086F063F0FF55F0541A5960030204880035
:10040300E52886F063F0FF55F0541A702DE5225469
:10041300395A86F0A2E0B0F192E0A2E1B0F292E1A3
:10042300A2E2B0F292E2A2E3B0F392E3A2E4B0F369
:1004330092E4A2E5B0F492E5704BE86401F8B23AB5
:10044300B23BE9F4F9EAF4FAE52886F063F0FF55E4
:10045300F0541A59702FE52254395A86F0A2E0B0AD
:10046300F192E0A2E1B0F292E1A2E2B0F292E2A252
:10047300E3B0F392E3A2E4B0F392E4A2E5B0F49222
:10048300E5700261CF203A0302049AD220D222C23D
:10049300231210D30204A6D221D222C2231210D3D4
:1004A3000206CB633C07E53D623CE53CB40803022E
:1004B30004B8020FA100753D12753E00740830990F
:1004C300FDC299F5994325C053240FD2251210D3A9
:1004D300120FF71210743009FA120FF7121074206A
:1004E3000B03020F5F0020091B304304C222D223F7
:1004F300D238D253D25A053AC21BC22CC22B121085
:10050300D302092300200AD4C253C25A00120FF7A0
:10051300121074300AFA120FF7D22E1210D30205FA
:1005230024633C1AE53E623CE53CB4120302053603
:10053300020FA100753D0874123099FDC299F59917
:10054300120FF7121074300AFA120FF712107420F8
:100553000B03020F5F0020091B304304C222D22386
:10056300D238D253D25A053AC21BC22CC22B121014
:10057300D302092300200AD4C253C25A00D22F1235
:1005830010D3120FF7121074300AFA120FF7633CEC
:1005930013E53CB4010302059F020FA1007401306F
:1005A30099FDC299F599C374007214B00E7243B0E9
:1005B30053720F723834007054E52233547EA2E232
:1005C300B05292E2A2E3B05292E3A2E4B05392E4B7
:1005D300A2E5B05392E5A2E6B05492E67805600630
:1005E300C313C313D8F87405C398B403030205F601
:1005F30002061A00E528541E852AF063F0FF55F021
:10060300C3137803C313D8FC600302061AD223C2B0
:10061300221210D3020673633C1BE53CB41A030297
:100623000628020FA100753D00753E11741A30991A
:10063300FDC299F599120FF7121074300AFA120FCE
:10064300F7121074200B03020F5F00200A1B3043C4
:1006530004C222D223D238D253D25B0537C21BC283
:100663002CC22B1210D30209B4002009D40209238F
:10067300633C05E53CB40403020681020FA1007547
:100683003D09753E0F74043099FDC299F599121016
:1006930074200B03020F5F00200A1B304304C222A5
:1006A300D223D238D253D25B0537C21BC22CC22B02
:1006B3001210D30209B4002009D4C220D23AC23B9B
:1006C300C2221210D302081A633C09E53E623CE5DC
:1006D3003CB418030206DD020FA100753D06753E0A
:1006E3000974183099FDC299F5994325C053240F15
:1006F300D2251210D3120FF71210743009FA120F09
:10070300F7121074200C03020F560020091B30410E
:1007130004C222D223D238D252D2590539C219C2C5
:1007230028C2281210D30207300002073FC221D289
:100733003BC23AC222C2231210D3210A200AC2C2E8
:1007430052C25900120FF7121074300AFA120FF73F
:10075300D22F1210D302075B633C0EE53E623CE5E9
:100763003CB41F0302076D020FA100753D01741F06
:100773003099FDC299F599120FF7121074300AFAE5
:10078300120FF7121074200C03020F560020091BDE
:10079300304104C222D223D238D252D2590539C2AF
:1007A30019C228C2281210D30207B2000207C1C21D
:1007B30021D23BC23AC222C2231210D3210A200AF9
:1007C300C2C252C25900D22E1210D3120FF7121006
:1007D30074300AFA120FF7D223C2221210D302077F
:1007E300E4633C11E53CB40E030207F2020FA100DF
:1007F300753D10740E3099FDC299F599121074303D
:100803000C0530090280F5C238C221D23BC23AC27C
:10081300221210D302010A633C07E53D623CE53C2A
:10082300B40A0302082C020FA100753D10753E1394
:10083300740A3099FDC299F5994325C053240FD208
:10084300261210D3C23812102C121074C21BC22CE1
:10085300C22B1210D3200FF1782A79F07AE0203AD4
:100863000AE9F4F9EAF4FAE86401F8E52886F063A2
:10087300F0FF55F0541659600302090500E5288678
:10088300F063F0FF55F05416702DE52254275A8675
:10089300F0A2E0B0F192E0A2E1B0F292E1A2E2B004
:1008A300F292E2A2E3B0F392E3A2E4B0F392E4A201
:1008B300E5B0F492E5704BE86401F8B23AB23BE973
:1008C300F4F9EAF4FAE52886F063F0FF55F05416DC
:1008D30059702FE52254275A86F0A2E0B0F192E036
:1008E300A2E1B0F292E1A2E2B0F292E2A2E3B0F3AB
:1008F30092E3A2E4B0F392E4A2E5B0F492E57002CD
:10090300014C203A03020917D220D222C22312102B
:10091300D3020923D221D222C2231210D3020A8086
:10092300633C11E53D623CE53CB40B03020935022F
:100933000FA100753D0E753E00740B3099FDC299F1
:10094300F5994325C053240FD2261210D3120FF763
:100953001210743009FA120FF7121074200B0302ED
:100963000F5F0020091B304404C222D223D238D2A5
:1009730054D25B053BC21CC22DC22D1210D30209F7
:100983008800020998C220D23AC23BC222C2231273
:1009930010D3020C9B200AC1C254C25B00120FF792
:1009A300121074300AFA120FF7D22E1210D3020962
:1009B300B4633C08E53E623CE53CB403030209C66C
:1009C300020FA100753D0674033099FDC299F59994
:1009D300120FF7121074300AFA120FF71210742064
:1009E3000B03020F5F0020091B304404C222D223F1
:1009F300D238D254D25B053BC21CC22DC22D121079
:100A0300D3020A0B00020A1BC220D23AC23BC22203
:100A1300C2231210D3020C9B200AC1C254C25B0032
:100A2300D22F1210D3120FF7121074300AFA120FCA
:100A3300F7D223C2221210D3020A3E633C06E53CDE
:100A4300B40503020A4C020FA100753D0074053082
:100A530099FDC299F599120FF7121074300AFA1220
:100A63000FF7121074300B0530090280F5C238C23B
:100A730020D23AC23BC2221210D3020C9B633C0227
:100A8300E53E623CE53CB41B03020A92020FA1005F
:100A9300753D16753E0A741B3099FDC299F599434D
:100AA30025C053240FD2261210D3120FF71210743D
:100AB3003009FA120FF7121074200C03020F5600BC
:100AC30020091B304204C222D223D238D253D25A35
:100AD300053AC21AC22AC2291210D30206CB002039
:100AE3000AD4C253C25A00120FF7121074300AFA12
:100AF300120FF7D22F1210D3020AFE633C04E53D16
:100B0300623CE53CB40903020B10020FA100753EE1
:100B13001874093099FDC299F599120FF7121074E0
:100B2300300AFA120FF7121074200C03020F56004A
:100B330020091B304204C222D223D238D253D25AC4
:100B4300053AC21AC22AC2291210D30206CB0020C8
:100B53000AD4C253C25A00D22E1210D3120FF71264
:100B63001074300AFA120FF7633C19E53CB4100312
:100B7300020B79020FA10074103099FDC299F59907
:100B8300C374007211B00E7242B05A720F723834CD
:100B9300007059E52233547EA2E1B05992E1A2E2FA
:100BA300B05A92E2A2E3B05A92E3A2E4B05B92E4B9
:100BB300A2E5B05B92E578056006C333C333D8F88A
:100BC300E8B40203020BCD020BF9007405C39402CF
:100BD300F8E528541E852BF063F0FF55F0C333C3AB
:100BE30033C333C333D8FC6003020BF9D223C222CD
:100BF3001210D3020C43633C01E53CB41103020C15
:100C030007020FA100753E0074113099FDC299F5DA
:100C130099121074200C03020F5600200A1B304255
:100C230004C222D223D238D252D25A0536C21AC2B1
:100C33002AC2291210D302075B002009D40206CB73
:100C4300633C05E53CB41503020C51020FA100758A
:100C53003D00753E0474153099FDC299F599121043
:100C630074200C03020F5600200A1B304204C222D8
:100C7300D223D238D252D25A0536C21AC22AC22934
:100C83001210D302075B002009D4C221D23BC23A1F
:100C9300C2221210D302039D633C16E53D623CE57C
:100CA3003CB41303020CAD020FA10074133099FD81
:100CB300C299F5994325C053240FD2271210D3C2EA
:100CC3003812102C121074C21CC22D1210D3200F14
:100CD300F3E528852BF063F0FF55F0540E7026E5FD
:100CE30022541FA2E0B05992E0A2E1B05A92E1A2CD
:100CF300E2B05A92E2A2E3B05B92E3A2E4B05B9269
:100D0300E4700280BFD221D222C2231210D3020D7B
:100D130014633C05E53CB41603020D22020FA10047
:100D2300753E0F74163099FDC299F5994325C0534A
:100D3300240FD2271210D3120FF71210743009FAAE
:100D4300120FF7121074200C03020F560020091B18
:100D5300304304C222D223D238D254D25B053BC2E1
:100D63001BC22CC22B1210D3020A8000200AD4C249
:100D730054C25B00120FF7121074300AFA120FF705
:100D8300D22F1210D3020D8B633C01E53CB4170341
:100D9300020D99020FA100753E0E74173099FDC222
:100DA30099F599120FF7121074300AFA120FF7120D
:100DB3001074200C03020F560020091B304304C299
:100DC30022D223D238D254D25B053BC21BC22CC2DF
:100DD3002B1210D3020A8000200AD4C254C25B0033
:100DE300D22E1210D3120FF7121074300AFA120F08
:100DF300F7633C10E53CB40703020E02020FA100A7
:100E030074073099FDC299F599C374007213B00E3B
:100E13007243B05B720F723834007059E522335459
:100E23007EA2E1B05992E1A2E2B05A92E2A2E3B00B
:100E33005A92E3A2E4B05B92E4A2E5B05B92E57858
:100E4300056006C333C333D8F8E8B40303020E5670
:100E5300020E82007405C39403F8E528541E852B03
:100E6300F063F0FF55F0C333C333C333C333D8FC4C
:100E73006003020E82D223C2221210D3020ECF636A
:100E83003C1EE53CB41903020E90020FA100753D10
:100E930014753E0074193099FDC299F599121074B6
:100EA300200C03020F5600200A1B304304C222D237
:100EB30023D238D253D25B0537C21BC22CC22B12AA
:100EC30010D3020AFE002009D4020A80633C0AE51B
:100ED3003CB40D03020EDD020FA100753D00740D3D
:100EE3003099FDC299F599121074200C03020F5624
:100EF30000200A1B304304C222D223D238D253D259
:100F03005B0537C21BC22CC22B1210D3020AFE0090
:100F13002009D4C221D23BC23AC2221210D3011AF1
:100F2300120FF71210743009FA120FF79011A6126C
:100F3300110A020F68120FF71210743009FA120F18
:100F4300F79011CC12110A020F689011F612110AD0
:100F5300020F6890125712110A020F6890121C12A6
:100F6300110A020F68D22FD22EC222D2231210D31B
:100F7300121074300B08300C0530090280F2C220C5
:100F8300C221C222C2231210D312102C020F9212BA
:100F93001074200DFA200FF7200EF4020033C22044
:100FA300C221C222C2231210D39012A312110AD259
:100FB300181210D3C2B3D2AA0022C0E0C0F0C0807E
:100FC300C090C0A0C0B0ED1D6002801BEEFDE52AFD
:100FD300452B541E232323622485248075A0C1C27C
:100FE300B600000000D2B6D0B0D0A0D090D080D050
:100FF300F0D0E03279637AFFDAFE7AFFDAFE7A2400
:10100300DAFE00D9F1792AD9FE22D238C222C223CC
:1010130074E152231210D312102C121034E5285409
:101023001E60F7D2231210D3227B10120FF7DBFBC3
:1010330022C2AF75A08075803FC2B7000000008553
:101043008028D2B775A0817580FEC2B7000000006A
:10105300858021D2B775A08275803FC2B70000009A
:1010630000858022D2B70000000000000000D2AF4C
:1010730022C2AF75A08075803FC2B7000000008513
:101083008028D2B775A0817580FEC2B7000000002A
:10109300858021D2B775A08275803FC2B70000005A
:1010A30000858022D2B70000000000000000D2AF0C
:1010B300300F04C222D22320400312100DE528541E
:1010C3001E42231210D3E522543F42251210D3228D
:1010D300C2AF85238075A0C0C2B600000000D2B69F
:1010E30085248075A0C1C2B600000000D2B6852554
:1010F3008075A0C2C2B600000000D2B60000000096
:1011030000000000D2AF22C0E0E493600AC299F568
:10111300993099FDA380F2D0E0220D0A52696164EF
:10112300696163692073797374656D206A652069E9
:101133006E696369616C697A6F76616E792E0D0AE7
:101143000052696164696163692073797374656DC1
:10115300206A65207265696E696369616C697A6F7B
:1011630076616E7920706F2073746C6163656E694C
:1011730020746C616369646C612053544F502E0D6D
:101183000A004B616C6962726163696120767974EC
:10119300616875206A6520756B6F6E63656E612E7D
:1011A3000D0A004368796261212056797061646C8D
:1011B300612073706F6D616C6F7661636961206329
:1011C3006C6F6E6B61210D0A0043687962612120A7
:1011D30056797061646C69206476652073706F6DF5
:1011E300616C6F766163696520636C6F6E6B7921E7
:1011F3000D0A004368796261212056797061646C3D
:1012030061207A61737461766F76616369612063CB
:101213006C6F6E6B61210D0A004368796261212056
:101223004E656F63616B6176616E65206E616369A4
:1012330074616E696520686F726E656A2073706F82
:101243006D616C6F766163656A20636C6F6E6B7939
:10125300210D0A00436879626121204E656F636145
:101263006B6176616E65206E61636974616E696539
:1012730020646F6C6E656A2073706F6D616C6F763E
:101283006163656A20636C6F6E6B79210D0A00538D
:1012930070757374616D204B54502E2E2E0D0A0001
:1012A300446F736C6F206B207A6D656E65204B54B1
:0512B30050210D0A00AE
:00000001FF
