:03000000020033C8
:10003300D2B6D2B775330075814079007AFFD9FE05
:10004300DAFC75809B75A083C2B600000000D2B6AF
:1000530075808075A0C3C2B600000000D2B6C2B3DB
:10006300D2AA000075280075211E75220075231E73
:100073007524F07525FFD2181203A7752300752484
:10008300007525001203A77528007521007522004D
:1000930012036A12036A300C0FD221D2221203A771
:1000A30012036A300C0280F8753600C222C221D2D4
:1000B300241203A7C2B3D2AA0000C22FC22EC224A5
:1000C300C225C226C227D2241203A7120359120340
:1000D3006AC2191203A7E528541C60F2D220D22267
:1000E3001203A70200E9C22FC22EC224C225C226D0
:1000F300C227D2241203A712036A200AFA12036A40
:10010300300AFAD22E1203A702010E12036A200A42
:10011300FAD22F1203A702011C12036A2009FAE57F
:100123002854046069C220D23AC23BC2221203A7F8
:10013300020136C22FC22EC224C225C226C227D232
:10014300251203A712035912036AC21A1203A774D2
:1001530018203A01F4F5F053F01AE52855F070141D
:10016300B23AB23BE5F0F4F5F053F01AE52855F056
:10017300700280D3203A03020187D220D2221203D5
:10018300A7020191D221D2221203A702033EC22F5A
:10019300C22EC224C225C226C227D2251203A71209
:1001A300036A200AFA12036A300AFAD22E1203A74C
:1001B3000201B612036A200AFAD22F1203A7020120
:1001C300C412036A2009FAE52854086065C220C2F4
:1001D300221203A70201DAC22FC22EC224C225C2F1
:1001E30026C227D2261203A712035912036AC21B7F
:1001F3001203A77410203A01F4F5F053F016E52822
:1002030055F07014B23AB23BE5F0F4F5F053F01642
:10021300E52855F0700280D3203A0302022BD22046
:10022300D2221203A7020235D221D2221203A7023D
:100233000278C22FC22EC224C225C226C227D226CA
:100243001203A712036A200AFA12036A300AFAD2C7
:100253002E1203A702025A12036A200AFAD22F129D
:1002630003A702026812036A2009FAC220C22212FB
:1002730003A70202C7C22FC22EC224C225C226C2AE
:1002830027D2261203A712036A200AE912036A304F
:100293000AFAD22F1203A702029D12036A200AFA56
:1002A300D22E1203A70202AB12036A2009FAE52831
:1002B3005404700302033EC221D23BC23AC222124B
:1002C30003A72136C22FC22EC224C225C226C227AB
:1002D300D2271203A712035912036AC21C1203A7DF
:1002E300E528540E60F2D221D2221203A70202F3B0
:1002F300C22FC22EC224C225C226C227D22712036E
:10030300A712036A200AE912036A300AFAD22F12EB
:1003130003A702031812036A200AFAD22E1203A7B4
:1003230002032612036A2009FAE52854087003021F
:100333000278C221C2221203A721DAC221C22212E9
:1003430003A7C2B3D2AA00000000D2181203A7C2A7
:10035300B3D2AA000022D22C1203A712036A3013CD
:10036300F5C22C1203A72275A08075803FC2B70087
:10037300000000858028D2B775A0817580FEC2B7C2
:1003830000000000858021D2B775A08275803FC22E
:10039300B700000000858022D2B7E528541E42230F
:1003A3001203A72285238075A0C0C2B600000000F7
:1003B300D2B685248075A0C1C2B600000000D2B6B3
:1003C30085258075A0C2C2B600000000D2B6220DFA
:1003D3000A52696164696163692073797374656D35
:1003E300206A6520696E696369616C697A6F7661F9
:1003F3006E792E0D0A005269616469616369207325
:10040300797374656D206A65207265696E696369C5
:10041300616C697A6F76616E7920706F2073746C8A
:100423006163656E6920746C616369646C612053F8
:10043300544F502E0D0A004B616C696272616369FF
:100443006120767974616875206A6520756B6F6EBB
:0804530063656E612E0D0A00C5
:00000001FF
