:03000000020033C8
:10003300D2B6D2B775330075814079007AFFD9FE05
:10004300DAFC75809B75A083C2B600000000D2B6AF
:1000530075808075A0C3C2B600000000D2B6C2B3DB
:10006300D2AA000075280075211E75220075231E73
:100073007524F07525FFD2181206607523007524C8
:100083000075250012066075280075210075220091
:1000930012061B12061B300C11D221D222C22312CC
:1000A300066012061B300C0280F8C222C221D22342
:1000B300D22012066012061B2009FAC223C220D2E4
:1000C30024120660C22FC22EC224C225C226C22712
:1000D300D22412066012060212061BC2191206600F
:1000E300E528541C60F2D220D222C22312066002F9
:1000F30000F5C22FC22EC224C225C226C227D22493
:100103001206601205EC12061B3009FA1205EC12F6
:10011300061B200B030205D1002009030205A400DE
:10012300200AEC1205EC12061B300AFA1205ECD277
:100133002E12066002013A12061B200B030205D1A0
:100143000020090302059500200AECD22F12066055
:100153001205EC12061B300AFA1205ECE5285404CA
:10016300600AD223C22212066002016F12061B200C
:100173000B030205D100200A030205B3002009EC9A
:10018300E5285404606DC220D23AC23BC222120653
:1001930060020197C22FC22EC224C225C226C227E3
:1001A300D22512066012060212061BC21A1206603C
:1001B3007418203A01F4F5F053F01AE52855F0705D
:1001C30014B23AB23BE5F0F4F5F053F01AE52855D2
:1001D300F0700280D3203A030201EAD220D222C275
:1001E300231206600201F6D221D222C22312066034
:1001F30002029BC22FC22EC224C225C226C227D20C
:10020300251206601205EC12061B3009FA1205ECE2
:1002130012061B200B030205D1002009030205A4CB
:1002230000200AEC1205EC12061B300AFA1205EC48
:10023300D22E12066002023B12061B200B0302059C
:10024300D10020090302059500200AECD22F1206E3
:10025300601205EC12061B300AFA1205ECE528546D
:1002630008600AD223C22212066002027012061B21
:10027300200B030205D100200A030205B300200965
:10028300ECE5285408700302038CC220D23AC23B27
:10029300C22212066002032DC22FC22EC224C2251F
:1002A300C226C227D2251206601205EC12061B30A5
:1002B30009FA1205EC12061B200C030205C20020EA
:1002C30009030205A400200ACF1205EC12061B3015
:1002D3000AFA1205ECD22F1206600202E012061B84
:1002E300200C030205C20020090302059500200A21
:1002F300ECD22E1206601205EC12061B300AFA121B
:1003030005ECE5285402600AD223C22212066002D9
:10031300031512061B300C0530090280F5C221D2E9
:100323003BC23AC22212066001C7C22FC22EC224A8
:10033300C225C226C227D226120660120602120660
:100343001BC21B1206607410203A01F4F5F053F03F
:1003530016E52855F07014B23AB23BE5F0F4F5F027
:1003630053F016E52855F0700280D3203A030203B8
:1003730080D220D222C22312066002038CD221D261
:1003830022C22312066002041FC22FC22EC224C23D
:1003930025C226C227D2261206601205EC12061BBE
:1003A3003009FA1205EC12061B200B030205D100DB
:1003B3002009030205A400200AEC1205EC12061B17
:1003C300300AFA1205ECD22E1206600203D112068D
:1003D3001B200B030205D100200903020595002011
:1003E3000AECD22F1206601205EC12061B300AFA31
:1003F3001205ECE5285410600AD223C222120660CB
:1004030002040612061B300B0530090280F5C220D8
:10041300D23AC23BC2221206600204C3C22FC22ECA
:10042300C224C225C226C227D2261206601205ECB8
:1004330012061B3009FA1205EC12061B200C0302EC
:1004430005C2002009030205A400200ACF1205EC0F
:1004530012061B300AFA1205ECD22F1206600204B0
:100463006412061B200C030205C2002009030205C7
:100473009500200AECD22E1206601205EC12061B20
:10048300300AFA1205ECE5285404600AD223C2228A
:1004930012066002049912061B200C030205C20017
:1004A300200A030205B3002009ECE5285404700375
:1004B30002029BC221D23BC23AC22212066021979A
:1004C300C22FC22EC224C225C226C227D227120699
:1004D3006012060212061BC21C120660E528540EA7
:1004E30060F2D221D222C2231206600204F1C22F8B
:1004F300C22EC224C225C226C227D22712066012E8
:1005030005EC12061B3009FA1205EC12061B200C2F
:10051300030205C2002009030205A400200ACF122A
:1005230005EC12061B300AFA1205ECD22F120660F4
:1005330002053612061B200C030205C20020090324
:1005430002059500200AECD22E1206601205EC1269
:10055300061B300AFA1205ECE5285408600AD22378
:10056300C22212066002056B12061B200C03020551
:10057300C200200A030205B3002009ECE528540851
:10058300700302041FC221D23BC23AC22212066088
:10059300612DC220C221120660C2B3D2AA0000009C
:1005A30000C220C221120660C2B3D2AA000000001A
:1005B300C220C221120660C2B3D2AA00000000C248
:1005C30020C221120660C2B3D2AA00000000C220DA
:1005D300C221120660C2B3D2AA00000000D21812D0
:1005E3000660C2B3D2AA00002279637AFFDAFE7AE8
:1005F300FFDAFE7A24DAFE00D9F1792AD9FE227BCA
:10060300201205ECDBFB22D22C12066012061B30F3
:1006130013EDC22C1206602275A08075803FC2B70D
:1006230000000000858028D2B775A0817580FEC2C6
:10063300B700000000858021D2B775A08275803F86
:10064300C2B700000000858022D2B700000000007E
:10065300000000E528541E422312066022852380F1
:1006630075A0C0C2B600000000D2B685248075A074
:10067300C1C2B600000000D2B685258075A0C2C2F3
:10068300B600000000D2B600000000000000002207
:100693000D0A5269616469616369207379737465D2
:1006A3006D206A6520696E696369616C697A6F762A
:1006B300616E792E0D0A0052696164696163692074
:1006C30073797374656D206A65207265696E6963F9
:1006D30069616C697A6F76616E7920706F207374CB
:1006E3006C6163656E6920746C616369646C61201D
:1006F30053544F502E0D0A004B616C696272616353
:10070300696120767974616875206A6520756B6FFD
:090713006E63656E612E0D0A0093
:00000001FF
