:03000000020033C8
:03000B000210F1EF
:030023000212A71F
:03002B0002128836
:10003300D2B6D2B775330075815079007AFFD9FEF5
:10004300DAFC75809B75A083C2B600000000D2B6AF
:1000530075808075A0C3C2B600000000D2B6C28E00
:10006300759852758921758740758B00758DFA7562
:100073008A00758C4C75C80075CA0075CB4CD2AD1F
:10008300D28CC2A9D28EC299C298D263D2AC754522
:1000930000C26175280075211E75220075231E7527
:1000A30024F07525FFD218C2381212177523007574
:1000B300240075250012121775280075210075227A
:1000C300001211B0752A00752B009015AE12125252
:1000D3001211B0300C13D221D222C223C220121229
:1000E300171211B0300C0280F8C222C221D223D2DF
:1000F300201212171211B02009FAC223C220D224EF
:100103001212179015AE121252D2A975438175447B
:10011300C178C07600754700753C1E753D00753E7D
:100123000090177F121252633C03E53D623CE53CAD
:10013300B41D0302013C0210B900753D20753E2039
:10014300741D12129F53240FD224121217C2387532
:100153002D3CC27AD2CAC264D22FD22E1212177584
:1001630046001211B0200A0302109F00200B030265
:10017300109F00C219C228C228121217306103123D
:1001830012DC00206403307AD9D264307A14752DDE
:100193003CC27AD2CA740012129F12129F747E124A
:1001A300129FA20D720E720F9218922F922E12129C
:1001B30017200FAE3045ABA20D720E720F5006E53D
:1001C30028541E609DE528852AF053F00C63F0FF48
:1001D30055F0541C701AE522543EA2E2B05292E24A
:1001E300A2E3B05392E3A2E4B05392E47002216518
:1001F3009017A5121252D220C221D22FC22ED22280
:10020300C223D21812121702020D633C09E53CB453
:10021300140302021B0210B900753D1B753E2074C6
:100223001412129F53240FD22412121712111412F4
:1002330011B03009FA1211141211B0200B0302107D
:100243007D0020091E754701304206C222D223D207
:1002530038D252D2590539C21AC22AC229121217E8
:1002630002057100200AD1C252C2590012111412A0
:1002730011B0300AFA121114121217020281633CF0
:1002830016E53CB4020302028F0210B900753D0D5E
:10029300753E20740212129F1211141211B0300A0B
:1002A300FA1211141211B0200B0302107D00200961
:1002B3001E754701304206C222D223D238D252D20F
:1002C300590539C21AC22AC229121217020571002E
:1002D300200AD1C252C2590012121712111412115C
:1002E300B0300AFA121114633C0EE53CB40C03025D
:1002F30002F80210B900753D20753E20740C1212ED
:100303009FC374007212B00E7242B052720F7238F1
:100313003400704BE52233547EA2E3B05292E3A241
:10032300E4B05392E4A2E5B05392E578056006C3C6
:1003330013C313D8F87405C398B402030203450228
:10034300036C00E528541E852AF053F00C63F0FF7C
:1003530055F0C3137802C313D8FC600302036CD2B5
:1003630023C2221212170203C4633C0AE53CB406FB
:100373000302037A0210B900753D09753E0E740637
:1003830012129F1211141211B0300AFA1211141220
:1003930011B0200B0302107D00200A1E75470330A5
:1003A3004206C222D223D238D252D25A0536C21AB8
:1003B300C22AC2291212170205E9002009D1020537
:1003C30071633C10E53CB41C030203D20210B90074
:1003D300753D09753E14741C12129F1211B0200B47
:1003E3000302107D00200A1E754703304206C22215
:1003F300D223D238D252D25A0536C21AC22AC229BD
:100403001212170205E9002009D1C220D23AC23BD9
:10041300C22212121702041B633C1AE53D623CE53B
:100423003CB40F0302042D0210B900753D00753E64
:100433001E740F12129F53240FD225121217C238A3
:10044300752D3CC27AD2CAD22FD22E1212177546FC
:10045300401211B0200A0302109F00200B03021068
:100463009F00200C0302109F00C21AC22AC2291245
:1004730012173061031212DC00307AD5A20D720E0E
:10048300720F9218922F922E121217200FC330451B
:10049300C0A20D720E720F5006E528541E60B2788A
:1004A3002A79F87AF8203A0AE9F4F9EAF4FAE864DE
:1004B30001F8E52886F053F00C63F0FF55F0541A69
:1004C30059600302053D00E52886F053F00C63F004
:1004D300FF55F0541A7021E52254395A86F0A2E1EF
:1004E300B0F292E1A2E2B0F292E2A2E3B0F392E3BD
:1004F300A2E4B0F392E47042E86401F8B23AB23B8A
:10050300E9F4F9EAF4FAE52886F053F00C63F0FF16
:1005130055F0541A597023E52254395A86F0A2E152
:10052300B0F292E1A2E2B0F292E2A2E3B0F392E37C
:10053300A2E4B0F392E4700281549017A512125210
:10054300203A0302055DD220C221D22FC22ED2222D
:10055300C223D218121217020571C220D221C22F50
:10056300D22ED222C223D218121217020787633C5B
:1005730007E53D623CE53CB408030205830210B97C
:1005830000753D12753E00740812129F53240FD25A
:10059300251212171211141211B03009FA12111484
:1005A3001211B0200B0302107D0020091E754701B4
:1005B300304306C222D223D238D253D25A053AC28A
:1005C3001BC22CC22B121217020A2800200AD1C206
:1005D30053C25A001211141211B0300AFA12111434
:1005E3001212170205E9633C1AE53E623CE53CB48E
:1005F30012030205FB0210B900753D08753E207415
:100603001212129F1211141211B0300AFA1211149D
:100613001211B0200B0302107D0020091E75470143
:10062300304306C222D223D238D253D25A053AC219
:100633001BC22CC22B121217020A2800200AD1C295
:1006430053C25A001212171211141211B0300AFABF
:10065300121114633C13E53CB40103020664021057
:10066300B900753D20753E20740112129FC37400BA
:100673007214B00E7243B053720F72383400704B61
:10068300E52233547EA2E3B05292E3A2E4B0539244
:10069300E4A2E5B05392E578056006C313C313D80B
:1006A300F87405C398B403030206B10206D800E543
:1006B30028541E852AF053F00C63F0FF55F0C31342
:1006C3007803C313D8FC60030206D8D223C22212D4
:1006D3001217020730633C1BE53CB41A030206E61B
:1006E3000210B900753D00753E11741A12129F1263
:1006F30011141211B0300AFA1211141211B0200B96
:100703000302107D00200A1E754703304306C222F0
:10071300D223D238D253D25B0537C21BC22CC22B91
:10072300121217020AB3002009D1020A28633C05FA
:10073300E53CB4040302073E0210B900753D097598
:100743003E0F740412129F1211B0200B0302107D8E
:1007530000200A1E754703304306C222D223D23833
:10076300D253D25B0537C21BC22CC22B1212170203
:100773000AB3002009D1C220D23AC23BC2221212CC
:10078300170208D2633C09E53E623CE53CB418031A
:100793000207990210B900753D06753E09741812D7
:1007A300129F53240FD2251212171211141211B0D3
:1007B3003009FA1211141211B0200C0302105B005D
:1007C30020091E754701304106C222D223D238D2F6
:1007D30052D2590539C219C228C228121217020768
:1007E300E8000207F7C221D23BC23AC222C2231257
:1007F3001217212A200ABFC252C259001211141221
:1008030011B0300AFA121114121217020811633CC4
:100813000EE53E623CE53CB41F030208230210B917
:1008230000753D01753E20741F12129F12111412A0
:1008330011B0300AFA1211141211B0200C03021075
:100843005B0020091E754701304106C222D223D224
:1008530038D252D2590539C219C228C228121217E6
:1008630002086A0002087AC221D23BC23AC222C2FB
:100873002312121702012A200ABEC252C2590012C1
:1008830012171211141211B0300AFA121114D223D2
:10089300C22212121702089B633C11E53CB40E03FB
:1008A3000208A90210B900753D10753E20740E129E
:1008B300129F1211B0300907200CF7D2590535C227
:1008C30038C221D23BC23AC22212121702012A6352
:1008D3003C07E53D623CE53CB40A030208E4021030
:1008E300B900753D10753E13740A12129F53240FFD
:1008F300D226121217C238752D3CC27AD2CAD22F11
:10090300D22E1212177546801211B0200A0302105C
:100913009F00200B0302109F00200C0302109F0076
:10092300C21BC22CC22B1212173061031212DC003D
:10093300307AD5A20D720E720F9218922F922E1248
:100943001217200FC33045C0A20D720E720F50064E
:10095300E528541E60B2782A79F07AE0203A0AE951
:10096300F4F9EAF4FAE86401F8E52886F053F00CA8
:1009730063F0FF55F054165960030209F400E528AB
:1009830086F053F00C63F0FF55F054167021E52206
:1009930054275A86F0A2E1B0F292E1A2E2B0F292B9
:1009A300E2A2E3B0F392E3A2E4B0F392E47042E88C
:1009B3006401F8B23AB23BE9F4F9EAF4FAE52886BD
:1009C300F053F00C63F0FF55F05416597023E522F1
:1009D30054275A86F0A2E1B0F292E1A2E2B0F29279
:1009E300E2A2E3B0F392E3A2E4B0F392E470022153
:1009F3000B9017A5121252203A03020A14D220C2F6
:100A030021D22FC22ED222C223D218121217020AC7
:100A130028C220D221C22FD22ED222C223D2181210
:100A23001217020B80633C11E53D623CE53CB40BBD
:100A330003020A3A0210B900753D0E753E00740BAD
:100A430012129F53240FD2261212171211141211CD
:100A5300B03009FA1211141211B0200B0302107DE9
:100A63000020091E754701304406C222D223D23822
:100A7300D254D25B053BC21CC22DC22D12121702E7
:100A83000A8900020A99C220D23AC23BC222C22377
:100A9300121217020D8F200ABEC254C25B0012113C
:100AA300141211B0300AFA121114121217020AB3F7
:100AB300633C08E53E623CE53CB40303020AC5021D
:100AC30010B900753D06753E20740312129F121172
:100AD300141211B0300AFA1211141211B0200B03C0
:100AE30002107D0020091E754701304406C222D240
:100AF30023D238D254D25B053BC21CC22DC22D1265
:100B03001217020B0C00020B1CC220D23AC23BC2CA
:100B130022C223121217020D8F200ABEC254C25BD7
:100B2300001212171211141211B0300AFA12111412
:100B3300D223C222121217020B3D633C06E53CB4DA
:100B43000503020B4B0210B900753D00753E20747E
:100B53000512129F1211141211B0300AFA12111455
:100B63001211B0300907200BF7D2540538C238C22E
:100B730020D23AC23BC222121217020D8F633C02EB
:100B8300E53E623CE53CB41B03020B920210B90044
:100B9300753D16753E0A741B12129F53240FD226FD
:100BA3001212171211141211B03009FA1211141281
:100BB30011B0200C0302105B0020091E75470130A1
:100BC3004206C222D223D238D253D25A053AC21A8B
:100BD300C22AC22912121702078700200AD1C25360
:100BE300C25A001211141211B0300AFA121114125F
:100BF3001217020BF8633C04E53D623CE53CB40983
:100C030003020C0A0210B900753D20753E187409E1
:100C130012129F1211141211B0300AFA1211141287
:100C230011B0200C0302105B0020091E7547013030
:100C33004206C222D223D238D253D25A053AC21A1A
:100C4300C22AC22912121702078700200AD1C253EF
:100C5300C25A001212171211141211B0300AFA12EA
:100C63001114633C19E53CB41003020C730210B970
:100C730000753D20753E20741012129FC3740072DC
:100C830011B00E7242B05A720F723834007050E5D0
:100C93002233547EA2E2B05A92E2A2E3B05A92E324
:100CA300A2E4B05B92E478056006C333C333D8F89B
:100CB300E8B40203020CBD020CEC007405C39402F9
:100CC300F8E528541E852BF053F00C63F0FF55F024
:100CD300C333C333C333C333D8FC6003020CECD236
:100CE30023C222121217020D38633C01E53CB411F2
:100CF30003020CFA0210B900753D20753E00741111
:100D030012129F1211B0200C0302105B00200A1E66
:100D1300754703304206C222D223D238D252D25A66
:100D23000536C21AC22AC22912121702081100205C
:100D330009D1020787633C05E53CB41503020D4660
:100D43000210B900753D00753E04741512129F120E
:100D530011B0200C0302105B00200A1E75470330FC
:100D63004206C222D223D238D252D25A0536C21AEE
:100D7300C22AC229121217020811002009D1C22166
:100D8300D23BC23AC22212121702041B633C16E57D
:100D93003D623CE53CB41303020DA10210B900759A
:100DA3003D20753E20741312129F53240FD2271235
:100DB3001217C238752D3CC27AD2CAD22FD22E1244
:100DC30012177546C01211B0200A0302109F0020AB
:100DD3000C0302109F00C21CC22DC22D1212173029
:100DE30061031212DC00307ADCA20D720E720F92D4
:100DF30018922F922E121217200FCA3045C7A20D38
:100E0300720E720F5006E528541E60B9E528852B33
:100E1300F053F00C63F0FF55F0540E701AE52254B2
:100E23001FA2E1B05A92E1A2E2B05A92E2A2E3B069
:100E33005B92E37002808E9017A5121252C220D2E9
:100E430021C22FD22ED222C223D218121217020E7F
:100E530054633C05E53CB41603020E620210B9006C
:100E6300753D20753E0F741612129F53240FD2271F
:100E73001212171211141211B03009FA12111412AE
:100E830011B0200C0302105B0020091E75470130CE
:100E93004306C222D223D238D254D25B053BC21BB3
:100EA300C22CC22B121217020B8000200AD1C2548B
:100EB300C25B001211141211B0300AFA121114128B
:100EC3001217020EC8633C01E53CB41703020ED6A9
:100ED3000210B900753D20753E0E741712129F1251
:100EE30011141211B0300AFA1211141211B0200C9D
:100EF3000302105B0020091E754701304306C2221E
:100F0300D223D238D254D25B053BC21BC22CC22B94
:100F1300121217020B8000200AD1C254C25B0012C6
:100F230012171211141211B0300AFA121114633C81
:100F330010E53CB40703020F3F0210B900753D20D2
:100F4300753E20740712129FC374007213B00E72A1
:100F530043B05B720F723834007050E52233547E15
:100F6300A2E2B05A92E2A2E3B05A92E3A2E4B05BE7
:100F730092E478056006C333C333D8F8E8B40303B7
:100F8300020F89020FB8007405C39403F8E52854CF
:100F93001E852BF053F00C63F0FF55F0C333C333BE
:100FA300C333C333D8FC6003020FB8D223C2221267
:100FB3001217021004633C1EE53CB41903020FC66A
:100FC3000210B900753D14753E00741912129F1278
:100FD30011B0200C0302105B00200A1E754703307A
:100FE3004306C222D223D238D253D25B0537C21B67
:100FF300C22CC22B121217020BF8002009D1020BCC
:1010030080633C0AE53CB40D030210120210B900E0
:10101300753D00753E20740D12129F1211B0200C05
:101023000302105B00200A1E754703304306C222E9
:10103300D223D238D253D25B0537C21BC22CC22B68
:10104300121217020BF8002009D1C221D23BC23A77
:10105300C2221212170208D2C221C2221212179000
:10106300171212125275470512140112138E753C92
:101073001E753D00753E0002012AC222C2231212D0
:10108300179016D712125275470412140112138EB9
:10109300753C05753D00753E00020D8FC222C223CB
:1010A30012121790174D121252752D3CC27AD2CAE2
:1010B300307AFD020033C220C221C222C22312129F
:1010C3001790179012125212143112138E752D1499
:1010D300C27AD2CA307AFDD218121217752D14C2F1
:1010E3007AD2CA307AFDC21812121780E022C0D019
:1010F300C0E0C0F0E52E152E6002800E752E14E5BB
:101103002A452B541E2323236224D0F0D0E0D0D0D1
:1011130032C0D0C001C002752D01C27AD2CA30CA12
:1011230003307AFAD002D001D0D022C0D0C0E0D2AE
:1011330038C222C22374E15223C025D22FD22E12E9
:101143001217752D28C27AD2CA12116CE528541EC3
:1011530060F7307AF4C22FC22ED0E055C04225D2B8
:1011630023121217D0E0D0D022C0D0C2AF75A08016
:1011730075803FC2B700000000858028D2B775A0F4
:10118300817580FEC2B700000000858021D2B7754B
:10119300A08275803FC2B700000000858022D2B7CD
:1011A3000000000000000000D2AFD0D022C0D0C0A9
:1011B300E0C2AF75A08075803FC2B7000000008514
:1011C3008028D2B775A0817580FEC2B700000000E9
:1011D300858021D2B775A08275803FC2B700000019
:1011E30000858022D2B70000000000000000D2AFCB
:1011F300300F04C222D22320400312112EE52854BB
:101203001E4223121217E522543F4225121217D011
:10121300E0D0D022C0D0C2AF85238075A0C0C2B6B3
:1012230000000000D2B685248075A0C1C2B60000BC
:101233000000D2B685258075A0C2C2B600000000AA
:10124300D2B60000000000000000D2AFD0D022C010
:10125300D0C0E0C083C082E493600612129FA380D3
:10126300F6D082D083D0E0D0D022C0D0C0E0C083FB
:10127300C082E493600612129FA380F6D082D083CB
:10128300D0E0D0D022C2CFC0E0E52D600514F52D0B
:101293008007C2CA752D00D27AD0E0321063028073
:1012A300FBF59922C0D0C0E0C00130981EC298E57A
:1012B30099B47E08754500D2610212CE20610CC03C
:1012C300E074802545F9D0E0F70545309904D263F1
:1012D300C299D001D0E0D0D032C0D0C0C8C02DC098
:1012E3002F752D50C27AD2CA207A601211B03061A4
:1012F300F77880E6B4000302134E00B4FD03021333
:101303004E00B4FE0302134E00B4FF0302134E005B
:101313007880E675F002A404F542AA42788012149C
:101323007CB47E0104F5F0E5424480F8E6B5F009AB
:101333009017A91212520213469017AD121252C2FD
:1013430061809EC26112135912138EC261D02FD0D5
:101353002DD0C8D0D022C0D0C000C001C005754474
:10136300C178C076007880E6F978818843E6B400D6
:10137300031213EA00B4010312140100080819E967
:1013830070EBD005D001D000D0D022C0D0C000C0B7
:1013930001C00578C0E675F002A404F542AA4278BC
:1013A300C012147CB47E0104F67D0578C012144F7C
:1013B3001D752D50C27AD2CA1211B0207A19ED6070
:1013C300163061F4C2617880E6B4FE030213DA00DA
:1013D300B4FF030213AE007544C178C07600D00594
:1013E300D001D000D0D022C000C0E0A844760408C9
:1013F300760078C00605440544D0E0D00022C00042
:10140300C0E0C0F0A844760508E5464547300D0224
:101413004408300E024410300F024418F67547009A
:1014230078C00605440544D0F0D0E0D00022C000C7
:10143300C0E0C0F0A844760608E53C543FF678C007
:101443000605440544D0F0D0E0D00022C0D0C0E06F
:10145300C000C00179C0E775F002A40404F978C0A4
:10146300E96008E612129F081980F5747E12129F34
:10147300D001D000D0E0D0D022C0D0C0F075F000B1
:10148300BA0003021492E4E6121499081A80F1E5F3
:10149300F0D0F0D0D022C083C082C0E09014AE65FB
:1014A300F093F5F0D0E0D082D08322005EBCE261FD
:1014B3003FDD83C29C7E20A3FD1F419DC3217FFC92
:1014C300A2401E5F01E3BD3E6082DC237D9FC142DB
:1014D3001CFEA0E1BF5D0380DE3C62BEE0025CDF78
:1014E30081633D7C22C09E1D43A1FF4618FAA427B9
:1014F300799BC584DA3866E5BB5907DB856739BA5A
:10150300E406581947A5FB7826C49A653BD9870496
:101513005AB8E6A7F91B45C6987A24F8A6441A993F
:10152300C7257B3A6486D85B05E7B98CD2306EED6C
:10153300B3510F4E10F2AC2F7193CD114FADF37029
:101543002ECC92D38D6F31B2EC0E50AFF1134DCE42
:1015530090722C6D33D18F0C52B0EE326C8ED0530F
:101563000DEFB1F0AE4C1291CF2D73CA947628AB28
:10157300F517490856B4EA6937D58B5709EBB536E1
:10158300688AD495CB2977F4AA4816E9B7550B880E
:10159300D6346A2B7597C94A14F6A8742AC89615C7
:1015A3004BA9F7B6E80A54D7896B350D0A5269611E
:1015B30064696163692073797374656D206A65205A
:1015C300696E696369616C697A6F76616E792E0DF4
:1015D3000A000D0A5A6170696E616D205744542EDA
:1015E3002E2E0D0A000D0A43616B616D20313020F0
:1015F30073656B756E642E2E2E0D0A00526961643D
:10160300696163692073797374656D206A652072FB
:1016130065696E696369616C697A6F76616E792059
:10162300706F2073746C6163656E6920746C6163A1
:1016330069646C612053544F502E0D0A004B616C4A
:101643006962726163696120767974616875206A81
:101653006520756B6F6E63656E612E0D0A004368BE
:10166300796261212056797061646C612073706FB7
:101673006D616C6F766163696120636C6F6E6B6122
:10168300210D0A00436879626121205679706164F3
:101693006C69206476652073706F6D616C6F766121
:1016A30063696520636C6F6E6B79210D0A00436873
:1016B300796261212056797061646C61207A61736B
:1016C3007461766F766163696120636C6F6E6B61C1
:1016D300210D0A00436879626121204E656F6361C1
:1016E3006B6176616E65206E61636974616E6965B5
:1016F30020686F726E656A2073706F6D616C6F76B0
:101703006163656A20636C6F6E6B79210D0A004318
:101713006879626121204E656F63616B6176616EEA
:1017230065206E61636974616E696520646F6C6EB8
:10173300656A2073706F6D616C6F766163656A2093
:10174300636C6F6E6B79210D0A00436879626121C6
:10175300204E656F63616B6176616E6520706F68A3
:101763006E75746965206B6162796E79207A207079
:101773006F7363686F646961210D0A005370757339
:1017830074616D204B54502E2E2E0D0A00446F733E
:101793006C6F206B207A6D656E65204B5450210D64
:0E17A3000A00FD897E00FE6B7E00FF357E0091
:00000001FF
